:020000040800F2
:10000000A00D00200D02000807150008A11000082F
:1000100005150008EF030008B519000800000000EE
:10002000000000000000000000000000891500082A
:10003000F103000800000000291500088B150008D6
:1000400027020008270200082702000827020008EC
:1000500027020008270200082702000827020008DC
:1000600027020008270200082702000827020008CC
:1000700027020008270200082702000827020008BC
:1000800027020008270200082702000827020008AC
:10009000270200082702000827020008270200089C
:1000A000270200082702000827020008270200088C
:1000B000270200082702000827020008270200087C
:1000C000270200082702000827020008270200086C
:1000D0002702000869190008270200082702000803
:1000E000270200082702000827020008270200084C
:1000F000270200082702000827020008270200083C
:10010000270200082702000827020008270200082B
:10011000270200082702000827020008270200081B
:10012000270200082702000827020008270200080B
:1001300000F002F800F05AF80AA090E8000C82449F
:100140008344AAF10107DA4501D100F04FF8AFF27C
:10015000090EBAE80F0013F0010F18BFFB1A43F0A5
:10016000010318471C1900003C1900000A444FF015
:10017000000C10F8013B13F0070408BF10F8014B06
:100180001D1108BF10F8015B641E05D010F8016B4B
:10019000641E01F8016BF9D113F0080F1EBF10F8AF
:1001A000014BAD1C0C1B09D16D1E58BF01F801CBD2
:1001B000FAD505E014F8016B01F8016B6D1EF9D555
:1001C0009142D6D37047000000230024002500266A
:1001D000103A28BF78C1FBD8520728BF30C148BFAA
:1001E0000B6070471FB51FBD10B510BD00F0A3F820
:1001F0001146FFF7F7FF01F0EBFB00F0C1F803B485
:10020000FFF7F2FF03BC01F0D6FB0000094880476E
:1002100009480047FEE7FEE7FEE7FEE7FEE7FEE7E8
:10022000FEE7FEE7FEE7FEE704480549054A064B00
:1002300070470000F515000831010008A0070020F4
:10024000A00D0020A0090020A0090020704710B5D3
:10025000431C02E010F8011B71B18107FAD14FF085
:10026000013202C88C1A8C4314EAC211F9D0C01AA8
:100270000A0603D0C01E10BDC01A10BD0A0401D06A
:10028000801E10BD0902FCD0401E10BD02F0FF030D
:1002900043EA032242EA024200F006B87047704780
:1002A000704770474FF000020429C0F0128010F030
:1002B000030C00F01B80CCF1040CBCF1020F18BF42
:1002C00000F8012BA8BF20F8022BA1EB0C0100F0D5
:1002D0000DB85FEAC17C24BF00F8012B00F8012BA8
:1002E00048BF00F8012B70474FF0000200B51346DD
:1002F00094469646203922BFA0E80C50A0E80C5046
:10030000B1F12001BFF4F7AF090728BFA0E80C50F6
:1003100048BF0CC05DF804EB890028BF40F8042BEF
:1003200008BF704748BF20F8022B11F0804F18BF5C
:1003300000F8012B7047754600F028F8AE4605001E
:100340006946534620F00700854618B020B5FFF7F0
:100350006BFFBDE820404FF000064FF000074FF064
:1003600000084FF0000B21F00701AC46ACE8C009D3
:10037000ACE8C009ACE8C009ACE8C0098D467047DC
:100380000446AFF300802046FFF739FF004870476E
:100390003C0700202DE9F04107461C4615460E4655
:1003A0002A2000F043FFC7F3072000F031FFF8B226
:1003B00000F02EFFC5F3072000F02AFFE8B200F09E
:1003C00027FF2B2000F032FFC6F3072000F020FFAC
:1003D000F0B200F01DFFC4F3072000F019FFE0B2F7
:1003E00000F016FFBDE8F0412C2000F01FBFFEE733
:1003F000704731B500F004F9044600F001F90099A6
:10040000001B8842F9D338BD2DE9F84FDFF8BC91C5
:10041000002309F1040A0AF1040B1C464FF00F08EF
:100420000BF1040E01270A68A7403A40BA4272D184
:10043000DFF89CC14D68A5EB0C0665452BD00DDCA3
:10044000032D34D005DC35B3012D19D0022D2FD169
:100450001BE0112D16D0122D2AD119E0B6F5881FF8
:1004600019D006DCB6F5803F15D0B6F5801F1FD138
:1004700011E0B6F5001F0ED0B6F5041F18D10AE042
:10048000CB6815E0CB681B1D12E0CB6808330FE08A
:10049000CB680C330CE08B682BB1012B4FF00803B9
:1004A00003D0476104E0042302E0076100E0002379
:1004B000FF2A01D8064601E000F104064FEA840550
:1004C00001D9A5F12005376808FA05FC27EA0C07D1
:1004D00003FA05F547EA050737604D68ED006ED56C
:1004E0003C4DAE6946F00106AE61AD6924F00306ED
:1004F00005F001050095384D7719BE68A5072D0F49
:1005000008FA05FC26EA0C06DFF8D0C0604503D1E6
:100510004FF0000C25E052E0DFF8C4C0604502D186
:100520004FF0010C1DE0DFF8BCC0604502D14FF078
:10053000020C16E0DFF8B0C0604502D14FF0030CAA
:100540000FE0DFF8A8C0604502D14FF0040C08E0CE
:10055000DFF89CC0604502D14FF0050C01E04FF080
:10056000060C0CFA05FC4CEA060CC7F808C04D68EE
:10057000D9F80060ED034D4601D5164300E09643DF
:100580002E604D68DAF80060AD03554601D516437C
:1005900000E096432E604D68DBF80060ED025D469A
:1005A00001D5164300E096432E604D68DEF80060EA
:1005B000AD02754601D5164300E096432E60641CDB
:1005C000102CFFF42FAFBDE8F88F000000040140AD
:1005D000000011100010024000000140000801401E
:1005E000000C0140001001400014014000180140BF
:1005F000001C01400AB1016170470904FBE70000DB
:1006000001480068704700000400002002480168AB
:10061000491C01607047000004000020074810B525
:10062000016841F010010160032000F047F80F203D
:1006300000F006F800F015F8002010BD0020024080
:1006400010B5044600F00CF94FF47A71B0FBF1F0EC
:1006500000F049FC00222146501E00F00FF8002057
:1006600010BD704700F01F02012191404009800039
:1006700000F1E020C0F8001170470000F0B40E4B0C
:100680001B68C3F30223C3F10704042C00D904241C
:100690001D1D072D01D2002300E0DB1E012606FAF6
:1006A00004F56D1E0D409D409E40761E164045EAA5
:1006B0000601F0BC00F028BF0CED00E0064A00F097
:1006C000070110684FF6FF03184040EA0120034974
:1006D00008431060704700000CED00E00000FA05D0
:1006E0002DE9F047DFF8688104460E46D8F800008F
:1006F00000F00700B0420CD2D8F8001021F007013A
:100700003143C8F80010D8F8000000F00700B042EC
:1007100073D120784F4F800705D57868A16820F005
:10072000F000084378602078C00755D06068012247
:1007300001280CD0022828D0022393FAA3F1B1FAA1
:1007400081F141F02001490904D0396803E04FF4F8
:100750000033F2E7796A93FAA3F3B3FA83F303F071
:100760001F039A40114248D0796821F003010143E8
:100770007960FFF745FF0546606841F2883101283E
:100780000CD00228894615D022E04FF00073D4E740
:10079000FFF736FF411B494501D916E089467868C5
:1007A000C0F381000128F3D116E0FFF729FF411BB8
:1007B00049450AD87868C0F381000228F5D10BE0DA
:1007C000FFF71EFF411B494502D90320BDE8F08712
:1007D000786810F00C0FF3D1D8F80010404601F003
:1007E0000701B1420BD9016821F0070131430160D3
:1007F000006800F00700B04201D00120E6E7207851
:10080000400705D57868E16820F4E0600843786027
:100810002078000706D57868216920F4605040EA06
:10082000C100786000F052F87968F02292FAA2F2E2
:1008300001F0F001B2FA82F2D140074A515CC8409F
:10084000064908600F20FFF7FBFE0020BEE700000E
:1008500000200240001002405C1A00080000002046
:10086000014800687047000000000020084809495E
:10087000006849684FF4E06292FAA2F201F4E06184
:10088000B2FA82F2D140044A515CC840704700007D
:1008900000000020001002406C1A000808480949B6
:1008A000006849684FF4605292FAA2F201F4605174
:1008B000B2FA82F2D140044A515CC840704700004D
:1008C00000000020001002406C1A000810B519A0AA
:1008D00085B00FC88DE80F001AA01B4B006804906C
:1008E00059681A4801F00C02042A1DD0082A1BD1AD
:1008F0004FF4701494FAA4F401F47012B4FA84F46E
:10090000E240C9031DF8022010D559684FF40033A6
:1009100093FAA3F301F40031B3FA83F3D94004ABA3
:10092000595CB0FBF1F0504305B010BD084850438E
:10093000FAE7000002030405060708090A0B0C0D7C
:100940000E0F1010010200000010024000127A0089
:1009500000093D002DE9F84F04460078FE4EC0071F
:100960004FF001057FD070684FF40038C0F381006C
:10097000012807D07068C0F3810002281BD170687D
:10098000C00318D598FAA8F0B0FA80F040F0200023
:10099000400901D0306800E0706A98FAA8F1B1FA15
:1009A00081F101F01F0105FA01F108425BD0606896
:1009B000002879D057E06068B0F5803F0BD010B1C7
:1009C000B0F5A02F11D0306820F48030306030684E
:1009D00020F4802002E0306840F4803030606068AD
:1009E00018B3FFF70DFE074609E0306840F4802099
:1009F0003060F0E7FFF704FEC01B642870D898FA57
:100A0000A8F0B0FA80F040F02000400901D0306832
:100A100000E0706A98FAA8F1B1FA81F101F01F01C3
:100A200005FA01F10842E5D01DE0FFF7E9FD0746B0
:100A300004E0FFF7E5FDC01B6428DFD898FAA8F0B2
:100A4000B0FA80F040F02000400901D0306800E0AA
:100A5000706A98FAA8F1B1FA81F101F01F0105FA64
:100A600001F10842E5D12078DFF8F08280074FF0ED
:100A7000000A4FF002075AD570684FF0F80B10F0DB
:100A80000C0F07D07068C0F3810002281CD1706879
:100A9000C00319D497FAA7F0B0FA80F040F0200014
:100AA000400902D0306801E08AE0706A97FAA7F145
:100AB000B1FA81F101F01F0105FA01F108422BD0D2
:100AC000206901287CD127E0206988B395FAA5F038
:100AD000B0FA80F048F82050FFF792FD814606E01A
:100AE0004DE1FFF78DFDA0EB0900022886D897FAAB
:100AF000A7F0B0FA80F040F02000400901D0306843
:100B000000E0706A97FAA7F1B1FA81F101F01F01D4
:100B100005FA01F10842E4D030689BFAABF220F00C
:100B2000F8016069B2FA82F290400143316025E039
:100B3000FFE795FAA5F1B1FA81F148F821A0FFF796
:100B40005FFD814605E0FFF75BFDA0EB0900022891
:100B5000CCD897FAA7F0B0FA80F040F02000400916
:100B600001D0306800E0706A97FAA7F1B1FA81F11C
:100B700001F01F0105FA01F10842E4D120780007D5
:100B80006DD5A069B8B395FAA5F0B0FA80F008EB7E
:100B90008000C0F88054FFF733FD814605E0FFF781
:100BA0002FFDA0EB09000228A0D897FAA7F0B0FA11
:100BB00080F040F06000B5EB501F02D130680CE0CF
:100BC00063E197FAA7F0B0FA80F040F06000B7EB6D
:100BD000501F01D1306A00E0706A97FAA7F1B1FAAC
:100BE00081F101F01F0105FA01F21042D7D0012076
:100BF000FFF7FFFB33E0FFE795FAA5F1B1FA81F1CA
:100C000008EB8101C1F880A4FFF7FAFC814605E0FA
:100C1000FFF7F6FCA0EB0900022899D897FAA7F095
:100C2000B0FA80F040F06000B5EB501F01D13068A1
:100C30000BE097FAA7F0B0FA80F040F06000B7EB55
:100C4000501F01D1306A00E0706A97FAA7F1B1FA3B
:100C500081F101F01F0105FA01F21042D8D120788C
:100C6000400763D5F06940F08050F061F069DFF82B
:100C7000F0B000F080500090DBF8001041F480717B
:100C8000CBF80010FFF7BCFC814605E0FFF7B8FC8D
:100C9000A0EB0900642872D8DBF80000C005F5D588
:100CA000E06801280AD008B1052813D0306A20F086
:100CB00001003062306A20F0040002E0306A40F047
:100CC00001003062E06841F2883B80B3FFF798FC96
:100CD00081460AE0306A40F004003062EEE7FFF738
:100CE0008FFCA0EB0901594549D897FAA7F0B0FA53
:100CF00080F040F04000B5EB501F01D130680BE0B0
:100D000097FAA7F0B0FA80F040F04000B7EB501F20
:100D100001D1306A00E0706A97FAA7F1B1FA81F167
:100D200001F01F0205FA02F10842D8D033E0FFE7D4
:100D3000FFF766FC814605E0FFF762FCA0EB0901C6
:100D400059451CD897FAA7F0B0FA80F040F040005F
:100D5000B5EB501F08D105E00010024000004242F0
:100D60000070004030680CE097FAA7F0B0FA80F00D
:100D700040F04000B7EB501F02D1306A01E08AE03A
:100D8000706A97FAA7F1B1FA81F101F01F0205FA32
:100D900002F10842D0D1E06998B37168C1F38101D2
:100DA000022972D002284FF080714FF0007B50462C
:100DB0000AD091FAA1F1B1FA81F148F82100FFF7C8
:100DC0001FFC04465F4669E08A4691FAA1F1B1FA38
:100DD00081F1C14648F82100FFF712FCA8460746FA
:100DE0005D4604E0FFF70CFCC01B022853D895FABF
:100DF000A5F0B0FA80F040F02000400902D0306841
:100E000001E060E0706A95FAA5F1B1FA81F101F0B4
:100E10001F0208FA02F10842E4D1206AB0F5803FCF
:100E200005D17068A16820F4003008437060D4E9EF
:100E300008010843716821F47411084370609AFA3C
:100E4000AAF0B0FA80F0474649F82080FFF7D8FBB7
:100E5000044604E0FFF7D4FB001B02281BD895FAD8
:100E6000A5F0B0FA80F040F02000400901D03068D1
:100E700000E0706A95FAA5F1B1FA81F101F01F0165
:100E800007FA01F10842E5D01DE01EE0FFF7B8FBCC
:100E9000001B022802D90320BDE8F88F97FAA7F0BB
:100EA000B0FA80F040F02000400901D0306800E046
:100EB000706A97FAA7F1B1FA81F101F01F0105FA02
:100EC00001F10842E2D10020E6E70120E4E74FF01B
:100ED000E0210428086903D020F00400086170476D
:100EE00040F00400FAE710B5401EB0F1807F01D356
:100EF000012010BD4FF0E02460610F21601700F069
:100F000003FB0020A06107202061002010BD70B508
:100F1000040004D094F83900002510B106E0012047
:100F200070BD84F83850204600F020F8022084F884
:100F300039002068C16821F40051C160204600F0EA
:100F400009FC2068016921F4904101612068416930
:100F500021F02A0141612068C16841F40051C1605B
:100F6000E563012084F83900002070BDF0B5006809
:100F70002D4F00252D490222012303262C4C85B03C
:100F8000B8422FD1886940F004008861886900F078
:100F900004000490886940F480408861886900F406
:100FA00080400490886940F001008861886900F001
:100FB0000100049048158DE84D0069462046FFF772
:100FC00023FA2115CDE9001569462046FFF71CFAE2
:100FD0002520FFF747FB032211462520FFF74EFB94
:100FE00005B0F0BD134FB842FAD1886940F0040053
:100FF0008861886900F004000490C86940F40030FA
:10100000C861C869694600F40030049004208DE886
:101010004D002046FFF7F8F90821CDE90015694693
:101020002046FFF7F1F9DBE70038014000100240ED
:10103000000801400044004090F83930012B01D0F5
:10104000122B2BD131B32AB390F83830012B25D095
:10105000012380F8383081628285C2850021C16316
:1010600090F83920122A17D0222280F8392080F8EF
:1010700038100168CA6842F48072CA6001684A691F
:1010800042F001024A610068C16841F02001C1607C
:1010900000207047012070473222E6E702207047A7
:1010A000FEE72DE9F0414FEA1028C7B2002140F2D7
:1010B0003F13EF220846FFF76DF900254FF4A076A5
:1010C0000024404600F0A4F8384600F0A1F8641C63
:1010D000A4B2B442F5D36D1CADB2F02DF0D3BDE88F
:1010E000F081000010B50B460246FFF753F90348A4
:1010F0004088BDE8104000F079B8000010000020E2
:101100002DE9F05F074628481C468B46B0F8028060
:10111000E02F2AD8BBF5987F27D8203A02F0FF09A4
:101120000BF10F03FA1D59463846FFF733F91F48F4
:10113000ECB100251D4805EB09110024465C0BEBC2
:10114000050AF00705D038191FFA8AF180B2FFF7B7
:10115000C9FF641C7608E4B2082CF2D36D1CEDB212
:10116000102DE7D31049A1F80280BDE8F09F0E4F83
:101170000026824606EB091100241AF80150E80700
:1011800003D04046A7F8028001E03888788080B21A
:1011900000F02CF8641C6D08E4B2082CEFD3761C28
:1011A000F6B2102EE6D3DDE7100000201E0000206E
:1011B0002DE9F04116460D4604464FF4987710E0AD
:1011C000E02C02D900241035ADB2BD4201D9002473
:1011D0002546002329462046FFF792FF0834A4B293
:1011E000761C3278002AEBD1BDE8F08110B50446B8
:1011F000012211460548FFF7FDF9C4F3072000F06E
:1012000023F8E0B2BDE8104000F01EB8000C014029
:1012100010B50446012211460348FFF7EBF92046BA
:10122000BDE8104000F010B8000C014010B50446B5
:10123000002201210348FFF7DDF92046BDE81040F8
:1012400000F002B8000C014070B50E4E05460024B7
:10125000280601D5012200E0002280213046FFF758
:10126000C9F9002220213046FFF7C4F901222021CC
:101270003046FFF7BFF96806641C050EE4B2082C7F
:10128000E6D370BD0008014010B59C4C002202213D
:101290002046FFF7AFF90A2000F08EFB0122022161
:1012A0002046FFF7A7F90A2000F086FB0022012163
:1012B0002046FFF79FF9CB20FFF7B8FF3920FFF753
:1012C000A7FF2C20FFF7A4FF0020FFF7A1FF342089
:1012D000FFF79EFF0220FFF79BFFCF20FFF7A6FF3F
:1012E0000020FFF795FFC120FFF792FF3020FFF7A6
:1012F0008FFFE820FFF79AFF8520FFF789FF002086
:10130000FFF786FF7820FFF783FFEA20FFF78EFFC5
:101310000020FFF77DFF0020FFF77AFFED20FFF7A9
:1013200085FF6420FFF774FF0320FFF771FF122091
:10133000FFF76EFF8120FFF76BFFF720FFF776FFC7
:101340002020FFF765FFC020FFF770FF2320FFF785
:101350005FFFC120FFF76AFF1020FFF759FFC5208C
:10136000FFF764FF3E20FFF753FF2820FFF750FFF1
:10137000C720FFF75BFF8620FFF74AFF3620FFF705
:1013800055FF4820FFF744FF3A20FFF74FFF552055
:10139000FFF73EFFB120FFF749FF0020FFF738FFBE
:1013A0001820FFF735FFB620FFF740FF0820FFF7B2
:1013B0002FFF8220FFF72CFF2720FFF729FFF220C5
:1013C000FFF734FF0020FFF723FF2620FFF72EFF53
:1013D0000120FFF71DFFE020FFF728FF0F20FFF798
:1013E00017FF3120FFF714FF2B20FFF711FF0C2010
:1013F000FFF70EFF0E20FFF70BFF0820FFF708FF97
:101400004E20FFF705FFF120FFF702FF3720FFF71F
:10141000FFFE0720FFF7FCFE1020FFF7F9FE032078
:10142000FFF7F6FE0E20FFF7F3FE0920FFF7F0FEB0
:101430000020FFF7EDFEE120FFF7F8FE0020FFF7A8
:10144000E7FE0E20FFF7E4FE1420FFF7E1FE032085
:10145000FFF7DEFE1120FFF7DBFE0720FFF7D8FEC7
:101460003120FFF7D5FEC120FFF7D2FE4820FFF75D
:10147000CFFE0820FFF7CCFE0F20FFF7C9FE0C209F
:10148000FFF7C6FE3120FFF7C3FE3620FFF7C0FE90
:101490000F20FFF7BDFE2A20FFF7C8FE0020FFF750
:1014A000B7FE0020FFF7B4FE0020FFF7B1FEEF20EB
:1014B000FFF7AEFE2B20FFF7B9FE0020FFF7A8FED6
:1014C0000020FFF7A5FE0120FFF7A2FE3F20FFF757
:1014D0009FFE1120FFF7AAFE3C2000F06DFA2920A4
:1014E000FFF7A4FE2C20FFF7A1FE05484FF6FF7181
:1014F00001804FF47841418010BD00000008014098
:1015000010000020FEE770470907090E002806DAE0
:1015100000F00F0000F1E02080F8141D704700F18A
:10152000E02080F80014704770470000044B4FF42F
:10153000807108B1012200E000221846FFF75AB876
:101540000008014030B50E4885B0816941F00401C2
:10155000816180694FF4807400F0040004900120E0
:10156000CDE900400220074D039069462846FEF76A
:101570004BFF002221462846FFF73CF805B030BD5E
:1015800000100240000801407047FFF73FB830B537
:101590008FB00224012004900094102005900025B3
:1015A0004FF46010CDE9085007946846FFF7D2F970
:1015B00000B1FEE70AA90F2081E831004FF48060F6
:1015C000CDE90D0502210AA8FFF78AF800B1FEE770
:1015D000FFF746F94FF47A71B0FBF1F0FFF783FCA7
:1015E0000420FFF774FC00221146501EFFF746F856
:1015F0000FB030BD0F4810B5016841F00101016026
:1016000041680D4A1140416001680C4A1140016077
:10161000016821F480210160416821F4FE014160EC
:101620004FF41F018160FFF7B2FF05494FF00060E2
:10163000086010BD001002400000FFF8FFFFF6FE3A
:1016400008ED00E070B51A4886B0816941F00401E8
:101650008161816901F004010491816941F008010F
:101660008161816901F008010491816941F0010102
:101670008161806900F0010004900E48416821F00A
:10168000E06141F000714160A3200326012402259E
:101690008DE8710069460848FEF7B6FE01AA00947D
:1016A00082E8700069460548FEF7AEFE06B070BDE0
:1016B000001002400000014000080140000C014001
:1016C0000F4810B58178002919D0002181700D4A8A
:1016D00032214B20FFF76CFD0A481138FEF7B7FDA9
:1016E00000280CD008A264214B20FFF761FD054AB9
:1016F0006421113ABDE810404B20FFF759BD10BDE1
:10170000080000202106002020202020202020206A
:101710002020202020202020200000000B4910B590
:10172000094AC1E9002000208860C860086188611A
:101730000C2048610846FFF7EAFBBDE81040012293
:1017400003490248FFF778BC00380140FC0600203E
:101750000B0000202DE9F041044600680169E268B1
:1017600021F4405111430161A1682069014360697E
:1017700001432068C26841F20C639A430A43C26085
:1017800020684169A26921F44071114341614C49CB
:1017900020686426322788423CD1FFF77FF800EBAF
:1017A000C00101EB001061688900B0FBF1F5FFF7A3
:1017B00075F800EBC00101EB00106168B8468900C4
:1017C000B0FBF1F0B0FBF6F06FF01801484305EB09
:1017D000800107EB0110B0FBF6F000F0F005FFF719
:1017E0005DF800EBC00101EB001061688900B0FBFF
:1017F000F1F0B0FBF6F005EB0015FFF74FF800EB4A
:10180000C00101EB001061688900B0FBF1F7FFF740
:1018100045F83BE0FFF72AF800EBC00101EB0010B0
:1018200061688900B0FBF1F5FFF720F800EBC0011B
:1018300001EB00106168B8468900B0FBF1F0B0FB25
:10184000F6F06FF01801484305EB800107EB01103B
:10185000B0FBF6F000F0F005FFF708F800EBC00170
:1018600001EB001061688900B0FBF1F0B0FBF6F00D
:1018700005EB0015FEF7FAFF00EBC00101EB0010CD
:1018800061688900B0FBF1F7FEF7F0FF00EBC001E3
:1018900001EB001061688900B0FBF1F0B0FBF6F0DD
:1018A0006FF01801484307EB800108EB0110B0FB13
:1018B000F6F0216800F00F0028448860BDE8F08150
:1018C000003801402DE9F04100242046FFF72EFEAC
:1018D000224D287801283FD14FF000082048214EA2
:1018E00085F80080025D315D914203D1641CE4B251
:1018F000092CF7D3092C26D10120A870301947787C
:10190000492F13D117482A2210211138FEF7BEFCA7
:10191000144A0020113A21183144C9780D2904D005
:101920001154401CC0B21028F5D368704E2F0AD154
:101930000C490020223922183244D2780A54401C23
:10194000C0B21028F7D3C5F8048085F80080BDE840
:10195000F0410020FFF7EABDBDE8F081080000205B
:10196000741A0008320600200F4800680168C94355
:10197000890618D40D4909686FF0200202600C4AEC
:10198000094B5068CA3B1954401C506002280AD9C0
:10199000184410F8021C0D2905D110F8010C0A2872
:1019A00001D1012010707047FC060020043801406E
:1019B00008000020FEE7704700224FF4C85304E0FF
:1019C0000021491C9942FCD3521C8242F8D3704733
:1019D000FEF724FEFFF736FEFFF7B4FD4FF4E130CB
:1019E000FFF79CFEFFF750FC45F258442046FFF7F6
:1019F00058FB0F4A4FF6FF710E4811800EA204806B
:101A000032210520FFF7D4FB0DA232214B20FFF736
:101A1000CFFB10A264210520FFF7CAFB08A26421B6
:101A20004B20FFF7C5FBFFF74BFEFFF74BFFFAE735
:101A30001200002010000020496E70757400000034
:101A40002323232323232323232323232323232366
:101A5000000000004361726420494400000000005F
:101A6000000000000102030406070809000000004E
:101A700001020304726669642D3E6C636400000019
:101A8000A01A000800000020100600006C010008E9
:101A9000A81D00081006002090070000C8010008DB
:101AA000116490D00392017A200101134A080121A8
:101AB000331818E5486C241228082424247F1212B5
:101AC0001204392F280C1C2A2A0A0C1828282A2A22
:101AD0001C3611500C22251515152A585454542221
:101AE0001A0C2930080A76252911916E5C06060425
:101AF0008F614D402010107125101020402B0204E2
:101B00000A29015D08080402913D6B1C1C6B5C797D
:101B1000A14A7FA3D1A95B0213FE4306063D804084
:101B20004020743C040402604C182442012A24F032
:101B3000195F4A0E905408083E1A3C1B19326D0872
:101B400004427E105009201820404042221C500CB4
:101B5000203028242422227E2020788F7E02020238
:101B60001A26202B38241089606C7E2222F379609B
:101B70003A2485523C390B4E645840402440291386
:101B8000393A490649A449063308042A409C870289
:101B900004081020405A7F0451491B392569701AE6
:101BA000460F6A10501D1C225A55016A2DB0500C68
:101BB0000808181414243C224242E71E1F22222245
:101BC0001E0E5442221F2D7C4242010169302A1F01
:101BD0001C29015920B80C3F4212121E1212024257
:101BE000423F104C020207801B22223E5C712122E0
:101BF000402AE73C2A7E0549706B3E08014A3E7048
:101C00007A100133110F500C7722120A0E0A1212A9
:101C10002222771A075A39014A42F31B7736012AE2
:101C20002A01526B580CE346464A4A5252526262AB
:101C300047F04A410159802A3F7B2A3E4149A05939
:101C4000206E4D53321C60202A3E6F4B42C79018C5
:101C5000084242020418204016516B7F49B099D0C7
:101C600039016A3C10500922242414141808081B56
:101C70006B49015F55553622222220480A24241838
:101C80001818242442E7C09D2222141450300C7EE0
:101C90002120101008040442423F6A786D29013265
:101CA000781D020204040B10081010202020404070
:101CB0009B1E1001221E031C384412FF4A0695F198
:101CC00050083C4278444242FC1F030202021A269A
:101CD000CF93261A1B3844155344382D604040409A
:101CE0002E9C4264D840567E0202423C3EF0880858
:101CF000087EAF923E38087C22221C023C422229F8
:101D0000601B3A46405342E7230C0C9A0E301B30BE
:101D1000307019DD19011A22D13930500872120AB7
:101D200016122277492CC9602B7F920192B79A3BF9
:101D30006049A0290149A0412A1BE075221E020723
:101D400039D075447840E01C774C04018A1FC06E7E
:101D500042023C404270197A398019A9712A635FA6
:101D60009362DC9008E74224241408089008EB49A9
:101D70004955552222C8087624181818246E306C4C
:101D80001808089030087E22100808447E2BC020D6
:101D9000013A10061320C0DA1001113A068A192EF2
:081DA00029011206F40C32C205
:0400000508000131BD
:00000001FF
