:020000040800F2
:10000000C0080020D501000869140008F512000896
:100010006714000895040008C11E000800000000D5
:10002000000000000000000000000000451A000869
:100030001505000800000000891800085F1A000874
:10004000EF010008EF010008EF010008EF010008D0
:10005000EF010008EF010008EF010008EF010008C0
:10006000EF010008EF010008EF010008EF010008B0
:10007000EF010008EF010008EF010008EF010008A0
:10008000EF010008EF010008EF010008EF01000890
:10009000EF010008EF010008EF010008EF01000880
:1000A000EF010008EF010008EF010008EF01000870
:1000B000EF010008EF010008EF010008EF01000860
:1000C000EF010008EF010008EF010008EF01000850
:1000D000EF0100080D1E00085D1E0008EF0100087A
:1000E000EF010008EF010008EF010008EF01000830
:1000F000EF010008EF010008EF010008EF01000820
:10010000EF010008EF010008EF010008EF0100080F
:10011000EF010008EF010008EF010008EF010008FF
:10012000EF010008EF010008EF010008EF010008EF
:1001300000F002F800F03FF80AA090E8000C8244BA
:100140008344AAF10107DA4501D100F034F8AFF297
:10015000090EBAE80F0013F0010F18BFFB1A43F0A5
:10016000010318475C1F00007C1F0000103A24BFE9
:1001700078C878C1FAD8520724BF30C830C144BF0C
:1001800004680C607047000000230024002500264E
:10019000103A28BF78C1FBD8520728BF30C148BFEA
:1001A0000B607047732900F0EA80002070471FB58C
:1001B0001FBD10B510BD00F03DF91146FFF7F7FF68
:1001C00001F0BCFE00F05BF903B4FFF7F2FF03BCE3
:1001D00001F092FE0948804709480047FEE7FEE724
:1001E000FEE7FEE7FEE7FEE7FEE7FEE7FEE7FEE7E7
:1001F00004480549054A064B70470000C91A000823
:1002000031010008C0020020C0080020C004002006
:10021000C0040020704700000FB4044910B503AAC1
:10022000029800F0B1F810BC5DF814FB2800002023
:100230002DE9F0410E460446002020622046E16888
:10024000884730B3252805D0D4E901219047206A9A
:10025000401CF2E7E168204600278847050018D0D7
:10026000A5F14100192802D820354FF40067324625
:10027000294620462760FFF795FF40B1012804D0AA
:10028000F61D26F007060836D8E7361DD6E72846BD
:10029000DAE7206ABDE8F08170B50C460546012A10
:1002A00005D02878800600D5EA69002302E0012302
:1002B00005E05B1C934202D2E05C0028F9D1A869FA
:1002C000E618C01AA861286A184428622846AFF3C5
:1002D000008004E0D5E9012114F8010B9047B442F5
:1002E000F8D32846AFF3008070BD30B505460B4605
:1002F0002A4613F8014B12F8010B08B1A042F8D0BE
:100300001CB1002802D06D1CF1E7284630BD4FF02B
:1003100000020429C0F0128010F0030C00F04880A5
:10032000CCF1040CBCF1020F18BF00F8012BA8BFE0
:1003300020F8022BA1EB0C0100F03AB85FEAC17C77
:1003400024BF00F8012B00F8012B48BF00F8012B57
:100350007047704770477047704710B5436913B1D5
:10036000AFF3008001E0FFF797FF012010BD127886
:1003700000F124010A7000224A700122EDE71168A1
:100380004FF0FF32E9E70000074B70B50D467B44A4
:1003900000F039F80446284600F048F810B14FF054
:1003A000FF3070BD204670BD931B00004FF000026F
:1003B00000B5134694469646203922BFA0E80C505B
:1003C000A0E80C50B1F12001BFF4F7AF090728BF36
:1003D000A0E80C5048BF0CC05DF804EB890028BFB2
:1003E00040F8042B08BF704748BF20F8022B11F0DB
:1003F000804F18BF00F8012B7047000001694A1CAC
:1004000002610878704700B58FB0CDE90131002155
:10041000059105497944CDE9031011466846FFF777
:1004200007FF0FB000BD0000E5FFFFFF007B00F0FD
:1004300080007047754600F029F8AE460500694611
:10044000534620F00700854618B020B5FFF7D0FED0
:10045000BDE820404FF000064FF000074FF00008C5
:100460004FF0000B21F00701AC46ACE8C009ACE846
:10047000C009ACE8C009ACE8C0098D467047044625
:10048000AFF300802046FFF79FFE00000048704752
:1004900060020020FEE72DE9F0410E4607461546B2
:1004A0000421052000F02AF80021012001F00AFDB6
:1004B00080210A2001F0C7FA002405E0395D0920F7
:1004C00001F000FD641CE4B2B442F7D30321012023
:1004D00001F0F8FCFF24052001F00EFA641E14F070
:1004E000FF0401D04007F6D5222001F005FA28705C
:1004F000212001F001FA6870BDE8F08170B50C466A
:10050000054601F0F9F920EA04012846BDE87040EB
:1005100001F0D8BC7047000010B5FF2409A1FFF717
:10052000E4FE60B1417A807A3039CCB20D2806D031
:1005300004EB8401D02202EB41010844C4B22046FE
:1005400010BD00006D726B2D3E7266696400000084
:1005500031B500F009F9044600F006F90099001BD6
:100560008842F9D338BD00002DE9F84FDFF8BC917F
:10057000002309F1040A0AF1040B1C464FF00F088E
:100580000BF1040E01270A68A7403A40BA4272D123
:10059000DFF89CC14D68A5EB0C0665452BD00DDC42
:1005A000032D34D005DC35B3012D19D0022D2FD108
:1005B0001BE0112D16D0122D2AD119E0B6F5881F97
:1005C00019D006DCB6F5803F15D0B6F5801F1FD1D7
:1005D00011E0B6F5001F0ED0B6F5041F18D10AE0E1
:1005E000CB6815E0CB681B1D12E0CB6808330FE029
:1005F000CB680C330CE08B682BB1012B4FF0080358
:1006000003D0476104E0042302E0076100E0002317
:10061000FF2A01D8064601E000F104064FEA8405EE
:1006200001D9A5F12005376808FA05FC27EA0C076F
:1006300003FA05F547EA050737604D68ED006ED50A
:100640003C4DAE6946F00106AE61AD6924F003068B
:1006500005F001050095384D7719BE68A5072D0FE7
:1006600008FA05FC26EA0C06DFF8D0C0604503D185
:100670004FF0000C25E052E0DFF8C4C0604502D125
:100680004FF0010C1DE0DFF8BCC0604502D14FF017
:10069000020C16E0DFF8B0C0604502D14FF0030C49
:1006A0000FE0DFF8A8C0604502D14FF0040C08E06D
:1006B000DFF89CC0604502D14FF0050C01E04FF01F
:1006C000060C0CFA05FC4CEA060CC7F808C04D688D
:1006D000D9F80060ED034D4601D5164300E096437E
:1006E0002E604D68DAF80060AD03554601D516431B
:1006F00000E096432E604D68DBF80060ED025D4639
:1007000001D5164300E096432E604D68DEF8006088
:10071000AD02754601D5164300E096432E60641C79
:10072000102CFFF42FAFBDE8F88F0000000401404B
:1007300000001110001002400000014000080140BC
:10074000000C01400010014000140140001801405D
:10075000001C01408068084000D0012070470AB1A9
:10076000016170470904FBE7014800687047000019
:100770001800002002480168491C01607047000011
:1007800018000020074810B5016841F01001016011
:10079000032000F047F80F2000F006F800F015F8ED
:1007A000002010BD0020024010B5044600F00CF9F6
:1007B0004FF47A71B0FBF1F000F049FC00222146C1
:1007C000501E00F00FF8002010BD704700F01F020F
:1007D000012191404009800000F1E020C0F80011A3
:1007E00070470000F0B40E4B1B68C3F30223C3F143
:1007F0000704042C00D904241D1D072D01D2002359
:1008000000E0DB1E012606FA04F56D1E0D409D403A
:100810009E40761E164045EA0601F0BC00F025BE5B
:100820000CED00E0064A00F0070110684FF6FF03E8
:10083000184040EA01200349084310607047000057
:100840000CED00E00000FA052DE9F047DFF86881C3
:1008500004460E46D8F8000000F00700B0420CD263
:10086000D8F8001021F007013143C8F80010D8F87B
:10087000000000F00700B04273D120784F4F80078E
:1008800005D57868A16820F0F000084378602078EA
:10089000C00755D06068012201280CD0022828D05A
:1008A000022393FAA3F1B1FA81F141F02001490941
:1008B00004D0396803E04FF40033F2E7796A93FA21
:1008C000A3F3B3FA83F303F01F039A40114248D015
:1008D000796821F0030101437960FFF745FF054680
:1008E000606841F2883101280CD00228894615D071
:1008F00022E04FF00073D4E7FFF736FF411B494574
:1009000001D916E089467868C0F381000128F3D147
:1009100016E0FFF729FF411B49450AD87868C0F364
:1009200081000228F5D10BE0FFF71EFF411B49456E
:1009300002D90320BDE8F087786810F00C0FF3D1DE
:10094000D8F80010404601F00701B1420BD9016808
:1009500021F0070131430160006800F00700B04258
:1009600001D00120E6E72078400705D57868E168E6
:1009700020F4E060084378602078000706D57868A6
:10098000216920F4605040EAC100786000F052F81C
:100990007968F02292FAA2F201F0F001B2FA82F242
:1009A000D140074A515CC840064908600F20FFF754
:1009B000FBFE0020BEE700000020024000100240C5
:1009C000A8200008140000200148006870470000BB
:1009D0001400002008480949006849684FF4E062A3
:1009E00092FAA2F201F4E061B2FA82F2D140044A32
:1009F000515CC84070470000140000200010024005
:100A0000B820000808480949006849684FF4605256
:100A100092FAA2F201F46051B2FA82F2D140044A91
:100A2000515CC840704700001400002000100240D4
:100A3000B820000810B519A085B00FC88DE80F00C8
:100A40001AA01B4B0068049059681A4801F00C0268
:100A5000042A1DD0082A1BD14FF4701494FAA4F470
:100A600001F47012B4FA84F4E240C9031DF80220C4
:100A700010D559684FF4003393FAA3F301F4003111
:100A8000B3FA83F3D94004AB595CB0FBF1F05043A7
:100A900005B010BD08485043FAE700000203040502
:100AA000060708090A0B0C0D0E0F101001020000BA
:100AB0000010024000127A0000093D002DE9F84FB5
:100AC00004460078FE4EC0074FF001057FD07068E5
:100AD0004FF40038C0F38100012807D07068C0F3DC
:100AE000810002281BD17068C00318D598FAA8F0BD
:100AF000B0FA80F040F02000400901D0306800E0FA
:100B0000706A98FAA8F1B1FA81F101F01F0105FAB3
:100B100001F108425BD06068002879D057E0606836
:100B2000B0F5803F0BD010B1B0F5A02F11D03068D8
:100B300020F480303060306820F4802002E030689B
:100B400040F480303060606818B3FFF70DFE074650
:100B500009E0306840F480203060F0E7FFF704FEE1
:100B6000C01B642870D898FAA8F0B0FA80F040F062
:100B70002000400901D0306800E0706A98FAA8F1BE
:100B8000B1FA81F101F01F0105FA01F10842E5D047
:100B90001DE0FFF7E9FD074604E0FFF7E5FDC01B98
:100BA0006428DFD898FAA8F0B0FA80F040F020006E
:100BB000400901D0306800E0706A98FAA8F1B1FAF3
:100BC00081F101F01F0105FA01F10842E5D1207819
:100BD000DFF8F08280074FF0000A4FF002075AD585
:100BE00070684FF0F80B10F00C0F07D07068C0F36E
:100BF000810002281CD17068C00319D497FAA7F0AD
:100C0000B0FA80F040F02000400902D0306801E0E6
:100C10008AE0706A97FAA7F1B1FA81F101F01F0139
:100C200005FA01F108422BD0206901287CD127E088
:100C3000206988B395FAA5F0B0FA80F048F8205002
:100C4000FFF792FD814606E04DE1FFF78DFDA0EB39
:100C50000900022886D897FAA7F0B0FA80F040F091
:100C60002000400901D0306800E0706A97FAA7F1CF
:100C7000B1FA81F101F01F0105FA01F10842E4D057
:100C800030689BFAABF220F0F8016069B2FA82F2A8
:100C900090400143316025E0FFE795FAA5F1B1FAF4
:100CA00081F148F821A0FFF75FFD814605E0FFF7DD
:100CB0005BFDA0EB09000228CCD897FAA7F0B0FAA8
:100CC00080F040F02000400901D0306800E0706AF8
:100CD00097FAA7F1B1FA81F101F01F0105FA01F1CC
:100CE0000842E4D1207800076DD5A069B8B395FA21
:100CF000A5F0B0FA80F008EB8000C0F88054FFF750
:100D000033FD814605E0FFF72FFDA0EB0900022827
:100D1000A0D897FAA7F0B0FA80F040F06000B5EBE9
:100D2000501F02D130680CE063E197FAA7F0B0FAE7
:100D300080F040F06000B7EB501F01D1306A00E056
:100D4000706A97FAA7F1B1FA81F101F01F0105FA73
:100D500001F21042D7D00120FFF7FAFB33E0FFE7A2
:100D600095FAA5F1B1FA81F108EB8101C1F880A4EF
:100D7000FFF7FAFC814605E0FFF7F6FCA0EB09005F
:100D8000022899D897FAA7F0B0FA80F040F06000F6
:100D9000B5EB501F01D130680BE097FAA7F0B0FA1D
:100DA00080F040F06000B7EB501F01D1306A00E0E6
:100DB000706A97FAA7F1B1FA81F101F01F0105FA03
:100DC00001F21042D8D12078400763D5F06940F095
:100DD0008050F061F069DFF8F0B000F080500090D2
:100DE000DBF8001041F48071CBF80010FFF7BCFC79
:100DF000814605E0FFF7B8FCA0EB0900642872D833
:100E0000DBF80000C005F5D5E06801280AD008B17C
:100E1000052813D0306A20F001003062306A20F0DB
:100E2000040002E0306A40F001003062E06841F204
:100E3000883B80B3FFF798FC81460AE0306A40F0B7
:100E400004003062EEE7FFF78FFCA0EB0901594583
:100E500049D897FAA7F0B0FA80F040F04000B5EB1F
:100E6000501F01D130680BE097FAA7F0B0FA80F07C
:100E700040F04000B7EB501F01D1306A00E0706ACB
:100E800097FAA7F1B1FA81F101F01F0205FA02F118
:100E90000842D8D033E0FFE7FFF766FC814605E063
:100EA000FFF762FCA0EB090159451CD897FAA7F09F
:100EB000B0FA80F040F04000B5EB501F08D105E0DB
:100EC00000100240000042420070004030680CE018
:100ED00097FAA7F0B0FA80F040F04000B7EB501F4F
:100EE00002D1306A01E08AE0706A97FAA7F1B1FA9C
:100EF00081F101F01F0205FA02F10842D0D1E06948
:100F000098B37168C1F38101022972D002284FF0B1
:100F100080714FF0007B50460AD091FAA1F1B1FAEE
:100F200081F148F82100FFF71FFC04465F4669E0A5
:100F30008A4691FAA1F1B1FA81F1C14648F821003F
:100F4000FFF712FCA84607465D4604E0FFF70CFCDD
:100F5000C01B022853D895FAA5F0B0FA80F040F0F3
:100F60002000400902D0306801E060E0706A95FA24
:100F7000A5F1B1FA81F101F01F0208FA02F108426D
:100F8000E4D1206AB0F5803F05D17068A16820F4F3
:100F9000003008437060D4E908010843716821F407
:100FA0007411084370609AFAAAF0B0FA80F04746CC
:100FB00049F82080FFF7D8FB044604E0FFF7D4FB94
:100FC000001B02281BD895FAA5F0B0FA80F040F07B
:100FD0002000400901D0306800E0706A95FAA5F160
:100FE000B1FA81F101F01F0107FA01F10842E5D0E1
:100FF0001DE01EE0FFF7B8FB001B022802D903200A
:10100000BDE8F88F97FAA7F0B0FA80F040F0200022
:10101000400901D0306800E0706A97FAA7F1B1FA90
:1010200081F101F01F0105FA01F10842E2D100202F
:10103000E6E70120E4E74FF0E0210428086903D047
:1010400020F004000861704740F00400FAE710B592
:10105000401EB0F1807F01D3012010BD4FF0E0248D
:1010600060610F21601700F000FA0020A0610720E6
:101070002061002010BD704738B504460068016843
:10108000C268C1F3000102F4807221B11AB1E16BB0
:1010900041F00101E1630168C1F34002416901F0DF
:1010A000010122B119B1E26B42F00402E26302686D
:1010B000C2F3800222B119B1E26B42F00202E26394
:1010C0000268C2F3C00222B119B1E16B41F008011C
:1010D000E1630168C068C1F3401100F0200019B15C
:1010E00010B1204600F052FD20680168C068C1F3CD
:1010F000C01100F0800019B110B1204600F052FE7E
:1011000021680868CA68C0F3801002F04002012517
:1011100068B162B1CA68204622F04002CA6094F801
:101120003910322910D080F8395000F0E2F8E06B25
:10113000002808D0206801684068009084F8395081
:101140002046FFF798FF38BD222180F83910ECE7E0
:1011500070B5040004D094F83900002510B106E001
:10116000012070BD84F83850204600F021F802209C
:1011700084F839002068C16821F40051C16020461C
:1011800000F058FD2068016921F490410161206858
:10119000416921F02A0141612068C16841F4005190
:1011A000C160E563012084F83900002070BD0000B3
:1011B000F0B50068304F0025304902220123032694
:1011C0002F4C85B0B8422CD1886940F0040088616A
:1011D000886900F004000490886940F480408861C8
:1011E000886900F480400490886940F001008861BB
:1011F000886900F00100049048158DE84D006946AB
:101200002046FFF7B1F92115CDE9001569462046C2
:10121000FFF7AAF92520FFF7D9FA03221146252066
:1012200026E0184FB84225D1886940F00400886153
:10123000886900F004000490C86940F40030C86177
:10124000C869694600F40030049004208DE84D0020
:101250002046FFF789F90821CDE9001569462046A7
:10126000FFF782F92620FFF7B1FA03221146262064
:10127000FFF7B8FA05B0F0BD003801400010024099
:10128000000801400044004090F83930012B01D0A3
:10129000122B2BD131B32AB390F83830012B25D043
:1012A000012380F8383081628285C2850021C163C4
:1012B00090F83920122A17D0222280F8392080F89D
:1012C00038100168CA6842F48072CA6001684A69CD
:1012D00042F001024A610068C16841F02001C1602A
:1012E00000207047012070473222E6E70220704755
:1012F00070477047FEE700002DE9FF4100242546B6
:1013000000940194029426495220039400F0DCF9E1
:10131000244F0646262806D02149522000F0D4F951
:101320000646262839D13878002837D11C4800F0E5
:10133000B9F8262832D11A4800F032FA26282DD1E1
:101340000120184A3870164B921C0521612000F0CC
:10135000DFF8262822D16946052000F08FF92628DB
:101360001CD110211048FEF7D2FF0F496A46105DCC
:1013700030300855641CE4B2102CF8D3012000F082
:10138000D7FA094909A0FEF747FF0A2000F0B5FD8A
:10139000002000F0CDFA262E00D03D70BDE8FF8180
:1013A000540200202C000020340000207266696482
:1013B0002D3E6C63642C4E2C25730D0A000000003A
:1013C00070B50546104800F06DF8104C262818D16D
:1013D0000D4800F0E5F9262813D10B4BA21C05217E
:1013E000612000F095F826280BD12946052000F051
:1013F00009FA6070BB2804D12946052000F002FAE2
:101400006070607870BD0000540200202C00002045
:1014100010B5412826D108210846FFF76FF83D2175
:10142000112000F04FFD8621172000F04BFD7F2199
:10143000262000F047FD1E212D2000F043FD002155
:101440002C2000F03FFD8D212A2000F03BFD3E21A5
:101450002B2000F037FD022000F05BFDBDE81040BE
:1014600000F013B810BDFEE770470907090E002809
:1014700006DA00F00F0000F1E02080F8141D70473C
:1014800000F1E02080F80014704710B5142000F03F
:1014900033FA800705D10321BDE81040142000F085
:1014A000D2BA10BD70B50646082188B0002408469F
:1014B000FFF724F800210D2000F004FD80210E200C
:1014C000FFF71CF893208DF8040020208DF805000C
:1014D00006A801AB0090022219460C2000F042F849
:1014E000054626280DD1002101A8425C7254425CB9
:1014F000491C5440C9B20429F7D3405CA04200D033
:10150000BB2580210E2000F09EFA08B0284670BD51
:1015100030B587B08DF804008DF80510002001A9C2
:10152000145C0D18401CC0B2AC700628F8D3002023
:101530000C181A5C401CC0B222720628F8D306A808
:1015400000900B460C220E2000F00CF804462628D2
:1015500004D1082000F0D0F9000700D4BB2407B064
:10156000204630BD2DE9FF5F0025DDF838B0174675
:101570008A4681464FF0BB082E460C2805D0B9F1AB
:101580000E0F04D11225102601E07725302645F0F4
:101590008001022000F096FC80210420FEF7AEFFBF
:1015A0000021012000F08EFC80210A2000F04BFA7F
:1015B000002405E01AF80410092000F083FC641CE4
:1015C000BC42F7DB4946012000F07CFCB9F10C0F6E
:1015D00003D180210D2000F036FA4FF47A740420F4
:1015E00000F08AF90746641E03D0F80701D137429C
:1015F000F5D080210D20FEF781FF3CB1062000F0E0
:101600007BF910F01B0F0DD04FF0BB0880210C2090
:1016100000F019FA0021012000F054FC04B040460B
:10162000BDE8F09F2F404FF02608F80701D04FF09B
:10163000CC08B9F10C0FE9D10A2000F05DF905469C
:101640000C2000F059F910F007004FEAC50101D055
:1016500008390144CBF8001025B1122D00D912250C
:10166000002408E00125FBE7092000F045F90146C8
:1016700003980155641CAC42F6DBC7E730B587B070
:101680000C4630218DF8041001AD8DF805000221C3
:101690002846AA1CFEF7FFFE06A801AB0090042214
:1016A00019460C20FFF75EFF262802D106999029E3
:1016B00002D0BB2007B030BD0023E95CE1545B1CC5
:1016C000DBB2102BF9D3F5E730B50C4605460821FF
:1016D00087B00846FEF712FF07210D2000F0F2FB4D
:1016E0000321142000F0AFF906A801AB00908DF89B
:1016F0000450012219460C20FFF734FF262802D19E
:101700000699102902D0BB2007B030BD9DF8041007
:1017100021709DF805106170F6E7000010B51F4CB0
:10172000012211462046FFF71AF8012000F0F1FBD4
:10173000002201212046FFF712F8012000F0E9FB0A
:10174000012211462046FFF70AF8012000F0E1FBD4
:101750000F21012000F0B6FB012000F0CDF8C006FB
:10176000FAD4012000F0D5FB3D21112000F0AAFBA6
:101770001E212D2000F0A6FB00212C2000F0A2FB52
:101780008D212A2000F09EFB3E212B2000F09AFBA9
:101790004021BDE81040152000F094BB0008014036
:1017A00010B588B093218DF8041070218DF80510C4
:1017B00000218DF80A1001AA5418435CA370445C00
:1017C0009DF80A30491C6340C9B28DF80A300429DB
:1017D000F2D3072101A8D21DFEF75DFE08210846BD
:1017E000FEF78CFE06A801AB0090092219460C20DA
:1017F000FFF7B8FE262802D10699182900D0BB2091
:1018000008B010BD70B588B00C46A0218DF804104A
:1018100001AD8DF8050002212846AA1CFEF73BFE0B
:1018200006AE01AB042219460C200096FFF79AFE83
:10183000262826D10698042823D19DF8040000F01C
:101840000F000A281DD10020215C2954401CC0B281
:101850001028F9D305AA102101A8FEF71CFE01AB40
:10186000122219460C200096FFF77CFE262808D18C
:101870000699042905D19DF8041001F00F010A29E9
:1018800000D0BB2008B070BD7047000030B51848CC
:1018900085B0816941F0040181618069154D00F0D6
:1018A00004000490B12000900120032401906946B7
:1018B00003942846FEF758FE40210020CDE9001091
:1018C000039469462846FEF74FFE0122114628463A
:1018D000FEF745FF012210212846FEF740FFFFF7E3
:1018E0001DFF05B04120BDE83040FFF791BD00006D
:1018F000001002400008014070B57E2101EA40005E
:101900000A4D40F08004002210212846FEF727FFF0
:10191000204600F06DF800F043F804460122102143
:101920002846FEF71CFF204670BD0000000801405D
:1019300010B5094B4FF4807140B101221846FEF7F3
:101940000EFFBDE81040142000F0D7BABDE81040EB
:1019500000221846FEF703BF0008014030B50E48CC
:1019600085B0816941F00401816180694FF4807420
:1019700000F0040004900120CDE900400220074D52
:10198000039069462846FEF7EFFD002221462846CF
:10199000FEF7E5FE05B030BD001002400008014032
:1019A00070B5124E00256006040E0022202130463C
:1019B000FEF7D5FEC82000F0ACFA40213046FEF715
:1019C000C9FE012801D144F00104C82000F0A1FAA9
:1019D000012220213046FEF7C2FEC82000F099FA0D
:1019E0006D1CEDB2082DDED3204670BD000801400D
:1019F00070B5134E05460024280601D5012200E0EB
:101A0000002280213046FEF7AAFEC82000F081FAAD
:101A1000002220213046FEF7A2FEC82000F079FA0D
:101A2000012220213046FEF79AFEC82000F071FA0C
:101A30006806641C050EE4B2082CDDD370BD0000FE
:101A400000080140704770B50C460546FFF754FF8B
:101A500040EA04012846BDE8704000F033BAFEF7C2
:101A600089BE30B58FB0022401200490009410206C
:101A7000059000254FF46010CDE9085007946846A2
:101A8000FFF71CF800B1FEE70AA90F2081E831003A
:101A90004FF48060CDE90D0502210AA8FEF7D4FEBF
:101AA00000B1FEE7FEF790FF4FF47A71B0FBF1F062
:101AB000FFF7CDFA0420FFF7BEFA00221146501EB0
:101AC000FEF790FE0FB030BD0F4810B5016841F031
:101AD0000101016041680D4A1140416001680C4AF2
:101AE00011400160016821F480210160416821F406
:101AF000FE0141604FF41F018160FFF7B2FF05490D
:101B00004FF00060086010BD001002400000FFF8B8
:101B1000FFFFF6FE08ED00E00B4910B5094AC1E9E8
:101B2000002000208860C860086188610C2048613E
:101B30000846FFF70DFBBDE81040012203490248AB
:101B4000FFF7A2BB003801400C0100201D0000205F
:101B50000C4910B50A4AC1E9002000208860C8601D
:101B60000C220861C1E90520C8610846FFF7F0FAB8
:101B7000BDE81040012204490248FFF785BB000080
:101B800000440040140200201E00002010B590F810
:101B90003910222903D0322901D0022010BD8168DA
:101BA000B1F5805F11D00169002901681FD0496833
:101BB00001F07F03816A4A1C82620B70C18D491E4D
:101BC0000904090CC18518D02FE00269816A002A36
:101BD0000268526805D0D2B20A80816A491C8162CB
:101BE000ECE7C2F308020A80816A891CF7E74A68B9
:101BF000816A4B1C83620A70E0E70168CA6822F0C0
:101C00002002CA6090F83910322910D00168CA68E1
:101C100022F48072CA6001684A6922F001024A61B6
:101C2000012180F83910FFF763FB002010BD12215D
:101C3000F7E700002DE9F041044600680169E26819
:101C400021F4405111430161A16820690143606999
:101C500001432068C26841F20C639A430A43C260A0
:101C600020684169A26921F44071114341614C49E6
:101C700020686426322788423CD1FEF7C3FE00EB81
:101C8000C00101EB001061688900B0FBF1F5FEF7BF
:101C9000B9FE00EBC00101EB00106168B846890095
:101CA000B0FBF1F0B0FBF6F06FF01801484305EB24
:101CB000800107EB0110B0FBF6F000F0F005FEF735
:101CC000A1FE00EBC00101EB001061688900B0FBD0
:101CD000F1F0B0FBF6F005EB0015FEF793FE00EB1C
:101CE000C00101EB001061688900B0FBF1F7FEF75D
:101CF00089FE3BE0FEF76EFE00EBC00101EB001039
:101D000061688900B0FBF1F5FEF764FE00EBC001ED
:101D100001EB00106168B8468900B0FBF1F0B0FB40
:101D2000F6F06FF01801484305EB800107EB011056
:101D3000B0FBF6F000F0F005FEF74CFE00EBC00142
:101D400001EB001061688900B0FBF1F0B0FBF6F028
:101D500005EB0015FEF73EFE00EBC00101EB0010A5
:101D600061688900B0FBF1F7FEF734FE00EBC001BB
:101D700001EB001061688900B0FBF1F0B0FBF6F0F8
:101D80006FF01801484307EB800108EB0110B0FB2E
:101D9000F6F0216800F00F0028448860BDE8F0816B
:101DA0000038014090F83910122903D0322901D0AF
:101DB000022070478168B1F5805F016A0BD04A1C30
:101DC0000262026809785160C18C491E0904090C3D
:101DD000C1840ED017E009880268C1F30801516080
:101DE00001690029016A02D0491C0162ECE7891CE3
:101DF000FBE70168CA6822F08002CA600068C16817
:101E000041F04001C16000207047000010480068A8
:101E10000168C94389061AD46FF0200101600D489A
:101E200001680D4A0A4B5068C83B1954401C506069
:101E300002280CD9184410F8021C0D2907D110F8FB
:101E4000010C0A2803D10020506001201070704757
:101E50000C010020043801401C000020154830B45B
:101E600000680068C04380061BD413480068134A0A
:101E7000C1B29068030414D444044FF0000304D5A5
:101E80000A290DD140F4004011E00D290DD0094D73
:101E9000C0F30D04C83D401C29559060C72800D9E7
:101EA000936030BC0348FFF7E7B840F4804090608F
:101EB000F7E7000014020020044400401C0000204A
:101EC000FEE7000070B50D467E2101EA4004094E90
:101ED000002210213046FEF742FC2046FFF788FD25
:101EE0002846FFF785FD3046BDE8704001221021ED
:101EF000FEF735BC00080140704700224FF4C8537C
:101F000004E00021491C9942FCD3521C8242F8D3C0
:101F10007047002805D000BF00BF00BF00BF401EB3
:101F2000F9D1704704490A685206FCD5024AC1B289
:101F3000121D11607047000000380140FEF722FCBE
:101F4000FFF70CFD4FF4E130FFF7E6FD4FF41650BC
:101F5000FFF7FEFDFFF79AFCC820FFF7CEFF002039
:101F6000FFF7E6FC3F4FDFF8F8900025DFF8F88038
:101F7000BE1EFFF7C1F999F800100029F9D089F8C1
:101F800000503A48FEF7C8FA70700C28F1D2DFE82A
:101F900000F0060606060606060606061F4131780C
:101FA0000F29E6D87854491CCCB2347010212E4841
:101FB000FEF7ADF90020424604E0395C303111549F
:101FC000401CC0B2A042F8D30120FFF7B1FC13E0DF
:101FD000274800780128CCD13078102811D000286B
:101FE000C7D00120FFF7A4FC22A126A0FEF714F918
:101FF0004FF47A70FFF781FF1B4922A0FEF70CF91E
:1020000026E01848FFF7DCF9357010211548FEF777
:102010007EF9AEE730780028ABD0401EC4B23470F1
:102020003D5510211048FEF772F90020424604E0A9
:10203000395C30311154401CC0B2A042F8D30120A9
:10204000FFF776FC30780028D6D113A0FEF7E4F82D
:102050000A20FFF752FF0020FFF76AFC89E7000023
:102060001C0000200200002034000020440000205A
:102070002C0000206E65656420313620627974651D
:1020800073000000726669642D3E6C63642C492CF9
:1020900025730D0A00000000726669642D3E6C63B2
:1020A000642C492C0D0A0000000000000000000014
:1020B00001020304060708090000000001020304EE
:1020C000E020000800000020340000006C0100083F
:1020D00014210008340000208C080000880100084A
:1020E00000000102030506070809000102030405B8
:1020F000060000000090D003000000000000000077
:102100000000000000000000000000000000FFFFD1
:04211000FFFFFFFFCF
:0400000508000131BD
:00000001FF
