:020000040800F2
:1000000030080020D50100082B1D0008B11C000895
:10001000291D000849050008852800080000000087
:100020000000000000000000000000005D24000847
:100030004B050008000000004D1D00085F2400086B
:10004000EF010008EF010008EF010008EF010008D0
:10005000EF010008EF010008EF010008EF010008C0
:10006000EF010008EF010008EF010008EF010008B0
:10007000EF010008EF010008EF010008EF010008A0
:10008000EF010008EF010008EF010008EF01000890
:10009000EF010008EF010008EF010008EF01000880
:1000A000EF010008EF010008EF010008EF01000870
:1000B000EF010008EF010008EF010008EF01000860
:1000C000EF010008EF010008EF010008EF01000850
:1000D000EF01000821280008EF010008EF010008E7
:1000E000EF010008EF010008EF010008EF01000830
:1000F000EF010008EF010008EF010008EF01000820
:10010000EF010008EF010008EF010008EF0100080F
:10011000EF010008EF010008EF010008EF010008FF
:10012000EF010008EF010008EF010008EF010008EF
:1001300000F002F800F03FF80AA090E8000C8244BA
:100140008344AAF10107DA4501D100F034F8AFF297
:10015000090EBAE80F0013F0010F18BFFB1A43F0A5
:10016000010318479C330000BC330000103A24BF41
:1001700078C878C1FAD8520724BF30C830C144BF0C
:1001800004680C607047000000230024002500264E
:10019000103A28BF78C1FBD8520728BF30C148BFEA
:1001A0000B607047642900F07780002070471FB50E
:1001B0001FBD10B510BD00F037F91146FFF7F7FF6E
:1001C00002F07AFB00F055F903B4FFF7F2FF03BC2D
:1001D00002F059FB0948804709480047FEE7FEE75F
:1001E000FEE7FEE7FEE7FEE7FEE7FEE7FEE7FEE7E7
:1001F00004480549054A064B70470000D52400080D
:1002000031010008300200203008002030040020B6
:1002100030040020704700000FB4044910B503AA51
:10022000029800F0D3F810BC5DF814FB40000020E9
:100230002DE9F0410E460446002020622046E16888
:10024000884730B3252805D0D4E901219047206A9A
:10025000401CF2E7E168204600278847050018D0D7
:10026000A5F14100192802D820354FF40067324625
:10027000294620462760FFF795FF40B1012804D0AA
:10028000F61D26F007060836D8E7361DD6E72846BD
:10029000DAE7206ABDE8F0812DE9F0410646002446
:1002A00010687529314616A510D0AFF300800028DC
:1002B00002DA404213A507E031688A0701D512A58A
:1002C00002E0490704D511A5012401E0AFF3008045
:1002D00000210A2206F1240709E0B0FBF2FCB0FB82
:1002E000F2F302FB1C00303078541846491C0028F9
:1002F000F3D123462A463046BDE8F04100F00CB861
:10030000000000002D0000002B0000002000000075
:1003100070477047704770472DE9F0470D46994682
:100320009246044600F124080168880604D5E06975
:1003300021F01001216000E00120A84201DD471BEF
:1003400000E00027A1697A1902EB0900081AA061F0
:100350002078C00602D42046AFF30080002608E0D3
:10036000D4E901211AF806009047206A401C761C47
:1003700020624E45F4DB2078C0060AD52046AFF354
:10038000008006E0D4E9012130209047206A401C1B
:100390002062381EA7F10107F4DC07E0D4E901214F
:1003A00018F805009047206A401C2062281EA5F11D
:1003B0000105F3DC2046AFF300802078000602D56B
:1003C0000220BDE8F0870120FBE70000074B70B575
:1003D0000D467B4400F011F80446284600F020F852
:1003E00010B14FF0FF3070BD204670BDCB2400002F
:1003F00001694A1C02610878704700B58FB0CDE9E9
:1004000001310021059105497944CDE903101146D8
:100410006846FFF70DFF0FB000BD0000E5FFFFFFCE
:10042000007B00F080007047754600F02BF8AE4668
:1004300005006946534620F00700854618B020B5F0
:10044000FFF7D6FEBDE820404FF000064FF0000752
:100450004FF000084FF0000B21F00701AC46ACE86C
:10046000C009ACE8C009ACE8C009ACE8C0098D46D9
:10047000704710B50446AFF300802046BDE8104039
:10048000FFF7A2BE00487047D001002070B50446B7
:1004900000688168C943C9071BD1816821F0010147
:1004A000816000F08BFC05460EE000F087FC401BED
:1004B000022809D9A06A40F01000A062E06A40F06A
:1004C0000100E062012070BD20688068C043C00761
:1004D000EBD0002070BD0000F8B500260446009661
:1004E00000688168C943C90727D0816841F00101CC
:1004F0008160134813490068B0FBF1F000E0401E32
:1005000000900028FBD100F059FC054610E000F0F7
:1005100055FC401B02280BD9A06A40F01000A062D5
:10052000E06A40F00100E06284F824600120F8BD38
:1005300020688068C043C007E9D10020F8BD0000F2
:100540000C00002040420F00FEE770470EB56946E0
:1005500000900120019007200290074800F0A0F8C9
:10056000054800F0BFFA0A21034800F023FA0248C8
:1005700000F04AF980B20EBD4400002070B5154C61
:1005800006460020C4E902000D462070C0B2A84211
:1005900010D23046FFF7DAFF02F041FDD4E9022322
:1005A00002F010FBC4E90201052000F0FBFA2078FC
:1005B000401CEAE7284602F032FD02460B46D4E929
:1005C000020102F0A7FBC4E9020102F0FBFC80B2C9
:1005D00070BD000018000020F8B500260446009603
:1005E00090F82400012808D0012084F82400204637
:1005F000FFF74CFF070002D04BE00220F8BDA06AD5
:1006000020F4885040F00200A062022000F0EAFCD2
:1006100022490968B1FBF0F0400000E0401E009064
:100620000028FBD12046FFF757FF2068816841F082
:100630000801816000F0C2FB054604E000F0BEFB4B
:10064000401B0A2811D8206880680007F6D420686B
:10065000816841F00401816000F0B0FB05460EE0C6
:1006600000F0ACFB401B0A2809D9A06A20F0020068
:1006700040F01000A06284F824600120F8BD2068DA
:1006800080684007ECD4A06A20F0020040F001002E
:10069000A06284F824603846F8BD00000C000020F9
:1006A000F8B50023009390F824209E46012A1ED01E
:1006B000012280F824204A681F254FF47874072A05
:1006C00017D20668776B94FAA4FCBCFA8CFC521E15
:1006D00002FB0CFC05FA0CF5AF4394FAA4F4B4FA4F
:1006E00084F40D68624395402F4377632DE0022028
:1006F000F8BD06680D2A14D2376B94FAA4FCBCFA34
:100700008CFCD21F02FB0CFC05FA0CF5AF4394FAEB
:10071000A4F4B4FA84F40D68624395402F43376320
:1007200013E0F76A94FAA4FCBCFA8CFC0D3A02FBC5
:100730000CFC05FA0CF5AF4394FAA4F4B4FA84F473
:100740000D68624395402F43F7620A6838250726F3
:1007500004680A2A14D3E76895FAA5FCBCFA8CFC55
:100760000A3A02FB0CFC06FA0CF6B74395FAA5F51B
:10077000B5FA85F58E686A4396403743E76012E024
:10078000276995FAA5FCBCFA8CFC02FB0CFC06FA66
:100790000CF6B74395FAA5F5B5FA85F58E686A4368
:1007A0009640374327610A68102A01D0112A20D1C8
:1007B000124C0268A24217D19468240219D494689A
:1007C00044F4000494600968102912D10C490D4AC0
:1007D0000968B1FBF2F101EB8101490000E0491E1B
:1007E00000910029FBD104E0816A41F0200181627F
:1007F000012380F824E01846F8BD000000240140E1
:100800000C00002040420F000068C06C70470000E0
:100810002DE9F04104004FF0000513D0A06A002636
:1008200028B9E66284F82460204600F09FF820464C
:10083000FFF72CFEA16AC90600D420B1A06A40F0DF
:100840001000A06289E0A16A21F4885141F0020100
:10085000A16243492368E2698B4204D1B2F5402F7B
:1008600001D14FF40022022191FAA1F1D4F80CC079
:10087000B1FA81F10CFA01F10A4361684FF4807713
:100880000A43A168B94208D0012906D00021D4F852
:1008900014E0BEF1010F02D010E03946F7E7BCF1D9
:1008A000000F21D0D4F828C04CF0200CC4F828C088
:1008B000D4F82CC04CF0010CC4F82CC0D3F804C000
:1008C0002CF4694C4CEA010CC3F804C021688B6815
:1008D000DFF890C003EA0C0313438B60A168B942B0
:1008E00013D0012911D019E04FF4604ED4F818C08C
:1008F0009EFAAEFEBEFA8EFEACF1010C0CFA0EFCB6
:100900004CEA010C4CF40061D8E74FF47001256902
:1009100091FAA1F1B1FA81F16D1E8D402168CB6A87
:1009200023F470032B43CB62216889680E4B194076
:10093000914208D1E662A16A21F0020141F0010171
:10094000A162BDE8F081A06A20F0020040F0100032
:10095000A062E06A40F00100E0620120F1E70000DF
:10096000003C0140FDF7E1FFFE0E1FFF0F4800B500
:10097000816985B041F400718161816901F4007180
:100980000491816941F0040181618069694600F048
:1009900004000490012000900320019000200290A8
:1009A000034800F00BF905B000BD00000010024044
:1009B000000801402DE9F8434FF000080D460446B9
:1009C000CDF8008000F0FAF9064620688168C90574
:1009D00008D5A06A40F02000A06284F8248001209D
:1009E000BDE8F8834168C90503D4C06A10F4700FEC
:1009F00025D0022000F0F6FA37490968B1FBF0F77C
:100A000020680169354A11424FEA62024FEAA21397
:100A10001AD1C1684FEA621C11EA0C0F14D10169A6
:100A2000114220D1C06818421DD114201EE0681C5C
:100A300005D035B300F0C2F9801BA84221D8206848
:100A400000688007F3D529E00169114202D1C1682D
:100A5000194206D0026922490A4206D1C0680842FA
:100A600003D1542002E0292000E0FC2047430098F5
:100A700012E0681C0DD025B100F0A0F9801BA8423F
:100A800007D9A06A40F00400A06284F82480032003
:100A9000A6E70098401C0090B842EAD321686FF0A6
:100AA00012000860A06A40F40070A06220688068AC
:100AB000C0F3424007280CD1E06850B9A06A20F486
:100AC0008070A062A06AC00403D4A06A40F0010054
:100AD000A062002084E700000C000020244992243A
:100AE0004992240070B5044690F8240001280DD0E6
:100AF000012084F824002046FFF7EEFC01004FF0AF
:100B0000000205D084F82420084670BD022070BD84
:100B1000A06A40F20123984340F48070A0621F4D08
:100B200020681F4BA84218D11E6816F4702F14D0ED
:100B3000A66A46F48016A6621E68760505D5A66AE2
:100B400026F4005646F48056A662A66AF6040AD534
:100B5000E66A26F00606E66206E0A66A26F4801635
:100B6000A6624668E9E7E26284F824206FF0020298
:100B7000026020688268C2F34242072A05D1A84277
:100B800008D11A6812F4702F04D0826842F48012DF
:100B90008260B9E7826842F4A002F9E700280140C8
:100BA0000424014031B500F009F9044600F006F9CB
:100BB0000099001B8842F9D338BD00002DE9F84F99
:100BC000DFF8BC91002309F1040A0AF1040B1C466A
:100BD0004FF00F080BF1040E01270A68A7403A40B6
:100BE000BA4272D1DFF89CC14D68A5EB0C06654591
:100BF0002BD00DDC032D34D005DC35B3012D19D0FD
:100C0000022D2FD11BE0112D16D0122D2AD119E063
:100C1000B6F5881F19D006DCB6F5803F15D0B6F5BD
:100C2000801F1FD111E0B6F5001F0ED0B6F5041FCE
:100C300018D10AE0CB6815E0CB681B1D12E0CB6829
:100C400008330FE0CB680C330CE08B682BB1012B21
:100C50004FF0080303D0476104E0042302E007617A
:100C600000E00023FF2A01D8064601E000F1040657
:100C70004FEA840501D9A5F12005376808FA05FC7B
:100C800027EA0C0703FA05F547EA050737604D68C0
:100C9000ED006ED53C4DAE6946F00106AE61AD6922
:100CA00024F0030605F001050095384D7719BE685C
:100CB000A5072D0F08FA05FC26EA0C06DFF8D0C0C0
:100CC000604503D14FF0000C25E052E0DFF8C4C0CE
:100CD000604502D14FF0010C1DE0DFF8BCC060455B
:100CE00002D14FF0020C16E0DFF8B0C0604502D12F
:100CF0004FF0030C0FE0DFF8A8C0604502D14FF0C1
:100D0000040C08E0DFF89CC0604502D14FF0050CF0
:100D100001E04FF0060C0CFA05FC4CEA060CC7F893
:100D200008C04D68D9F80060ED034D4601D5164363
:100D300000E096432E604D68DAF80060AD0355463A
:100D400001D5164300E096432E604D68DBF8006045
:100D5000ED025D4601D5164300E096432E604D68D6
:100D6000DEF80060AD02754601D5164300E09643FB
:100D70002E60641C102CFFF42FAFBDE8F88F00002C
:100D8000000401400000111000100240000001406A
:100D900000080140000C0140001001400014014017
:100DA00000180140001C01408068084000D001206C
:100DB00070470AB1016170470904FBE70148006808
:100DC000704700001000002070B5040004D094F8B3
:100DD0003500002510B106E0012070BD84F83450C4
:100DE000204600F061F8242084F83500206801686E
:100DF00021F00101016000F0D1FA29492268B0FB1D
:100E0000F1F15160274A6368934206D94FF4967313
:100E100059434FF47A73B1FBF3F12368491C19620B
:100E20006168914208D84900B0FBF1F0C0F30B01B2
:100E3000042916D2042014E0A26852B101EBC102C9
:100E400002EB0111B0FBF1F040F44040010507D086
:100E500007E001EB4101B0FBF1F040F40040F5E7A1
:100E600001202168C861D4E90701084321680860AE
:100E7000D4E90310084321688860D4E905010843D8
:100E80002168C8602068016841F001010160A56324
:100E9000202084F8350084F83650002070BD000012
:100EA00040420F00A086010030B50068154985B0AA
:100EB000884225D1144CA06940F00800A061A069C7
:100EC000124D00F008000490C02000901220019004
:100ED0000320039069462846FFF770FEE06940F45E
:100EE0000010E061E069012200F40010049040214C
:100EF0002846FFF75EFF012280212846FFF759FFB1
:100F000005B030BD0054004000100240000C01400C
:100F100002480168491C0160704700001000002071
:100F2000074810B5016841F010010160032000F08E
:100F300047F80F2000F006F800F015F8002010BD6B
:100F40000020024010B5044600F022FA4FF47A71F6
:100F5000B0FBF1F000F05FFD00222146501E00F0D2
:100F60000FF8002010BD704700F01F0201219140D2
:100F70004009800000F1E020C0F800117047000037
:100F8000F0B40E4B1B68C3F30223C3F10704042C17
:100F900000D904241D1D072D01D2002300E0DB1E13
:100FA000012606FA04F56D1E0D409D409E40761EFA
:100FB000164045EA0601F0BC00F0B8BE0CED00E0BA
:100FC000064A00F0070110684FF6FF03184040EA98
:100FD0000120034908431060704700000CED00E059
:100FE0000000FA0510B5014636A086B01DC88DE890
:100FF0001D0038A0384C006804900020042944D01B
:1010000012DC012944D002293DD100F0DFF96168EA
:101010004FF4804292FAA2F201F44041B2FA82F215
:10102000D140491C49002CE008292ED010292AD192
:1010300061682268D20126D54FF4701292FAA2F2AA
:1010400001F47010B2FA82F2D040C9031DF800001A
:1010500010D561684FF4003292FAA2F201F4003127
:10106000B2FA82F2D14004AA515C1C4AB2FBF1F1FF
:10107000484301E01A4948436168490203D44000EB
:101080000321B0FBF1F006B010BD00F0B7F9FAE7AC
:10109000216AC1F30122012A03D1890701D5D003B6
:1010A000F1E7022A05D1616A890702D549F6404075
:1010B000E9E7032AE7D121688903E4D54FF2244008
:1010C000E1E7000002030405060708090A0B0C0DFE
:1010D0000E0F1010010200000010024000127A00F2
:1010E00000093D002DE9F84304460078454EC0074D
:1010F00073D0F06940F08050F061F069424F00F029
:1011000080500090386840F480703860FFF756FED9
:10111000054604E0FFF752FE401B642832D83868C9
:10112000C005F7D5306A10F4407050D0A18801F4A2
:10113000407181424BD0306A01273B0493FAA3F1FE
:10114000B1FA81F18A00314920F440700A44C2F8B2
:10115000007493FAA3F3B3FA83F301EB8301002243
:10116000C1F800243062C00731D0FFF727FE0546E2
:1011700041F288394FF0020807E0FFF71FFE411BDC
:10118000494502D90320BDE8F88398FAA8F0B0FADF
:1011900080F040F040004146B7EB501F01D130686D
:1011A0000BE091FAA1F0B0FA80F040F04000B1EB12
:1011B000501F01D1306A00E0706A98FAA8F1B1FAC4
:1011C00081F101F01F0207FA02F10842D5D0306A1E
:1011D000616820F44070084330622078800705D5AC
:1011E0007068A16820F44040084370602078C00611
:1011F00005D57068616920F48000084370600020A4
:10120000C1E70000001002400070004000004242B0
:101210002DE9F047DFF8688104460E46D8F8000053
:1012200000F00700B0420CD2D8F8001021F00701FE
:101230003143C8F80010D8F8000000F00700B042B1
:1012400073D120784F4F800705D57868A16820F0CA
:10125000F000084378602078C00755D0606801220C
:1012600001280CD0022828D0022393FAA3F1B1FA66
:1012700081F141F02001490904D0396803E04FF4BD
:101280000033F2E7796A93FAA3F3B3FA83F303F036
:101290001F039A40114248D0796821F003010143AD
:1012A0007960FFF78BFD0546606841F288310128BF
:1012B0000CD00228894615D022E04FF00073D4E705
:1012C000FFF77CFD411B494501D916E08946786846
:1012D000C0F381000128F3D116E0FFF76FFD411B39
:1012E00049450AD87868C0F381000228F5D10BE09F
:1012F000FFF764FD411B494502D90320BDE8F08793
:10130000786810F00C0FF3D1D8F80010404601F0C7
:101310000701B1420BD9016821F007013143016097
:10132000006800F00700B04201D00120E6E7207815
:10133000400705D57868E16820F4E06008437860EC
:101340002078000706D57868216920F4605040EACB
:10135000C100786000F052F87968F02292FAA2F2A7
:1013600001F0F001B2FA82F2D140074A515CC84064
:10137000064908600F20FFF7E5FD0020BEE70000EA
:101380000020024000100240E83400080C00002059
:1013900001480068704700000C0000200848094917
:1013A000006849684FF4E06292FAA2F201F4E06149
:1013B000B2FA82F2D140044A515CC8407047000042
:1013C0000C00002000100240F834000808480949C9
:1013D000006849684FF4605292FAA2F201F4605139
:1013E000B2FA82F2D140044A515CC8407047000012
:1013F0000C00002000100240F834000810B519A0BD
:1014000085B00FC88DE80F001AA01B4B0068049030
:1014100059681A4801F00C02042A1DD0082A1BD171
:101420004FF4701494FAA4F401F47012B4FA84F432
:10143000E240C9031DF8022010D559684FF400336B
:1014400093FAA3F301F40031B3FA83F3D94004AB68
:10145000595CB0FBF1F0504305B010BD0848504353
:10146000FAE7000002030405060708090A0B0C0D41
:101470000E0F1010010200000010024000127A004E
:1014800000093D002DE9F84F04460078FE4EC007E4
:101490004FF001057FD070684FF40038C0F3810031
:1014A000012807D07068C0F3810002281BD1706842
:1014B000C00318D598FAA8F0B0FA80F040F02000E8
:1014C000400901D0306800E0706A98FAA8F1B1FADA
:1014D00081F101F01F0105FA01F108425BD060685B
:1014E000002879D057E06068B0F5803F0BD010B18C
:1014F000B0F5A02F11D0306820F480303060306813
:1015000020F4802002E0306840F480303060606871
:1015100018B3FFF753FC074609E0306840F4802019
:101520003060F0E7FFF74AFCC01B642870D898FAD7
:10153000A8F0B0FA80F040F02000400901D03068F7
:1015400000E0706A98FAA8F1B1FA81F101F01F0188
:1015500005FA01F10842E5D01DE0FFF72FFC074630
:1015600004E0FFF72BFCC01B6428DFD898FAA8F032
:10157000B0FA80F040F02000400901D0306800E06F
:10158000706A98FAA8F1B1FA81F101F01F0105FA29
:1015900001F10842E5D12078DFF8F08280074FF0B2
:1015A000000A4FF002075AD570684FF0F80B10F0A0
:1015B0000C0F07D07068C0F3810002281CD170683E
:1015C000C00319D497FAA7F0B0FA80F040F02000D9
:1015D000400902D0306801E08AE0706A97FAA7F10A
:1015E000B1FA81F101F01F0105FA01F108422BD097
:1015F000206901287CD127E0206988B395FAA5F0FD
:10160000B0FA80F048F82050FFF7D8FB814606E09A
:101610004DE1FFF7D3FBA0EB0900022886D897FA2B
:10162000A7F0B0FA80F040F02000400901D0306807
:1016300000E0706A97FAA7F1B1FA81F101F01F0199
:1016400005FA01F10842E4D030689BFAABF220F0D1
:10165000F8016069B2FA82F290400143316025E0FE
:10166000FFE795FAA5F1B1FA81F148F821A0FFF75B
:10167000A5FB814605E0FFF7A1FBA0EB09000228CE
:10168000CCD897FAA7F0B0FA80F040F020004009DB
:1016900001D0306800E0706A97FAA7F1B1FA81F1E1
:1016A00001F01F0105FA01F10842E4D1207800079A
:1016B0006DD5A069B8B395FAA5F0B0FA80F008EB43
:1016C0008000C0F88054FFF779FB814605E0FFF702
:1016D00075FBA0EB09000228A0D897FAA7F0B0FA92
:1016E00080F040F06000B5EB501F02D130680CE094
:1016F00063E197FAA7F0B0FA80F040F06000B7EB32
:10170000501F01D1306A00E0706A97FAA7F1B1FA70
:1017100081F101F01F0105FA01F21042D7D001203A
:10172000FFF740FA33E0FFE795FAA5F1B1FA81F14E
:1017300008EB8101C1F880A4FFF740FB814605E07A
:10174000FFF73CFBA0EB0900022899D897FAA7F015
:10175000B0FA80F040F06000B5EB501F01D1306866
:101760000BE097FAA7F0B0FA80F040F06000B7EB1A
:10177000501F01D1306A00E0706A97FAA7F1B1FA00
:1017800081F101F01F0105FA01F21042D8D1207851
:10179000400763D5F06940F08050F061F069DFF8F0
:1017A000F0B000F080500090DBF8001041F4807140
:1017B000CBF80010FFF702FB814605E0FFF7FEFAC9
:1017C000A0EB0900642872D8DBF80000C005F5D54D
:1017D000E06801280AD008B1052813D0306A20F04B
:1017E00001003062306A20F0040002E0306A40F00C
:1017F00001003062E06841F2883B80B3FFF7DEFA17
:1018000081460AE0306A40F004003062EEE7FFF7FC
:10181000D5FAA0EB0901594549D897FAA7F0B0FAD3
:1018200080F040F04000B5EB501F01D130680BE074
:1018300097FAA7F0B0FA80F040F04000B7EB501FE5
:1018400001D1306A00E0706A97FAA7F1B1FA81F12C
:1018500001F01F0205FA02F10842D8D033E0FFE799
:10186000FFF7ACFA814605E0FFF7A8FAA0EB090103
:1018700059451CD897FAA7F0B0FA80F040F0400024
:10188000B5EB501F08D105E00010024000004242B5
:101890000070004030680CE097FAA7F0B0FA80F0D2
:1018A00040F04000B7EB501F02D1306A01E08AE0FF
:1018B000706A97FAA7F1B1FA81F101F01F0205FAF7
:1018C00002F10842D0D1E06998B37168C1F3810197
:1018D000022972D002284FF080714FF0007B5046F1
:1018E0000AD091FAA1F1B1FA81F148F82100FFF78D
:1018F00065FA04465F4669E08A4691FAA1F1B1FAB9
:1019000081F1C14648F82100FFF758FAA84607467A
:101910005D4604E0FFF752FAC01B022853D895FA3F
:10192000A5F0B0FA80F040F02000400902D0306805
:1019300001E060E0706A95FAA5F1B1FA81F101F079
:101940001F0208FA02F10842E4D1206AB0F5803F94
:1019500005D17068A16820F4003008437060D4E9B4
:1019600008010843716821F47411084370609AFA01
:10197000AAF0B0FA80F0474649F82080FFF71EFA37
:10198000044604E0FFF71AFA001B02281BD895FA58
:10199000A5F0B0FA80F040F02000400901D0306896
:1019A00000E0706A95FAA5F1B1FA81F101F01F012A
:1019B00007FA01F10842E5D01DE01EE0FFF7FEF94D
:1019C000001B022802D90320BDE8F88F97FAA7F080
:1019D000B0FA80F040F02000400901D0306800E00B
:1019E000706A97FAA7F1B1FA81F101F01F0105FAC7
:1019F00001F10842E2D10020E6E70120E4E74FF0E0
:101A0000E0210428086903D020F004000861704731
:101A100040F00400FAE710B5401EB0F1807F01D31A
:101A2000012010BD4FF0E02460610F21601700F02D
:101A30007DF90020A06107202061002010BD7047C3
:101A400038B5044600680168C268C1F3000102F4B9
:101A5000807221B11AB1E16B41F00101E1630168CB
:101A6000C1F34002416901F0010122B119B1E26BF9
:101A700042F00402E2630268C2F3800222B119B1AB
:101A8000E26B42F00202E2630268C2F3C00222B1DA
:101A900019B1E16B41F00801E1630168C068C1F36D
:101AA000401100F0200019B110B1204600F078FD7F
:101AB00020680168C068C1F3C01100F0800019B14E
:101AC00010B1204600F078FE21680868CA68C0F3AB
:101AD000801002F04002012568B162B1CA68204658
:101AE00022F04002CA6094F83910322910D080F8F0
:101AF000395000F0DCF8E06B002808D0206801685D
:101B00004068009084F839502046FFF798FF38BDB0
:101B1000222180F83910ECE770B5040004D094F865
:101B20003900002510B106E0012070BD84F838505E
:101B3000204600F021F8022084F839002068C168AE
:101B400021F40051C160204600F07EFD206801694B
:101B500021F4904101612068416921F02A0141612D
:101B60002068C16841F40051C160E563012084F838
:101B70003900002070BD0000F0B500682D4F002531
:101B80002D490222012303262C4C85B0B8422FD1C7
:101B9000886940F004008861886900F004000490BE
:101BA000886940F480408861886900F4804004902E
:101BB000886940F001008861886900F001000490A4
:101BC00048158DE84D0069462046FEF7F7FF2115C0
:101BD000CDE9001569462046FEF7F0FF2520FFF706
:101BE000C3F9032211462520FFF7CAF905B0F0BD5D
:101BF000134FB842FAD1886940F0040088618869BF
:101C000000F004000490C86940F40030C861C8695D
:101C1000694600F40030049004208DE84D00204611
:101C2000FEF7CCFF0821CDE9001569462046FEF7F6
:101C3000C5FFDBE70038014000100240000801400A
:101C40000044004090F83930012B01D0122B2BD1E9
:101C500031B32AB390F83830012B25D0012380F816
:101C6000383081628285C2850021C16390F83920B5
:101C7000122A17D0222280F8392080F83810016803
:101C8000CA6842F48072CA6001684A6942F001027F
:101C90004A610068C16841F02001C16000207047BE
:101CA000012070473222E6E70220704770477047F4
:101CB000FEE70000094808494FF4804201600849E6
:101CC000416000218160C0E9031241618161C1610D
:101CD0000162FFF779B80000005400408C0000203A
:101CE000A086010000B587B002200090800302901A
:101CF0006846FFF7F7F90B48094901220160002106
:101D000041608160C0E90312416181614FF460214B
:101D1000C161FEF77DFD0348FEF75EFC07B000BD24
:101D20000024014044000020FEE770470907090E27
:101D3000002806DA00F00F0000F1E02080F8141D02
:101D4000704700F1E02080F80014704770470000F1
:101D50002DE9F041404C414DDFF80481207886B0F8
:101D60004FF40046E0B16088401C80B26080B0F55E
:101D7000FA7F12D3002767806078E8B3012857D034
:101D800002280AD1002231464046FFF712F801220C
:101D900018212846FFF70DF8677006B0BDE8F081FE
:101DA000304A01202070916941F0010191619169EF
:101DB00001F0010104912C494B6823F0E06343F0EA
:101DC00000734B60916941F008019161916901F0E4
:101DD00008010491916941F00401916191690190B8
:101DE000029048F2180401F0040103200094CDE9A8
:101DF00003016946284600E012E0FEF7DFFE69466F
:101E0000474640460096FEF7D9FE01222146284665
:101E1000FEF7CFFF012231463846FEF7CAFFBCE786
:101E2000002210212846FEF7C4FF0122082107E006
:101E3000002208212846FEF7BCFF012248F21001CB
:101E40002846FEF7B6FF012231464046FEF7B1FFB5
:101E50006078401C6070A0E708000020000C014082
:101E6000000801400010024000000140044B4FF404
:101E7000807108B1012200E000221846FEF799BFE8
:101E80000008014030B50E4885B0816941F0040179
:101E9000816180694FF4807400F004000490012097
:101EA000CDE900400220074D039069462846FEF721
:101EB00085FE002221462846FEF77BFF05B030BD97
:101EC000001002400008014005E0002100BF491C4D
:101ED000C9B26429FAD3401EF7D2704710B5044640
:101EE00000F0ECF8802000F031F9FA2000F02EF933
:101EF0000F2000F02BF900F0E1F8812000F026F926
:101F000000F0AAF8607100F067F800F0A5F800F0A2
:101F100063F800F0A1F8207100F05EF800F09CF882
:101F200000F05AF800F098F8E07000F055F800F072
:101F300093F800F051F800F08FF8A07000F04CF822
:101F400000F08AF800F068F800F0DCF800F0B6F86D
:101F5000802000F0FBF8FC2000F0F8F8C92000F029
:101F6000F5F800F0ABF8812000F0F0F800F074F81C
:101F7000607000F031F800F06FF8207000F02CF87D
:101F800000F06AF800F028F800F066F8E07100F060
:101F900023F800F061F8A07100F01EF800F05CF882
:101FA00000F03AF8BDE8104000F0ACB810B500F011
:101FB00099F9084C206000F011F9606000F0E0F938
:101FC000A06000F057F9E06004F11000BDE8104097
:101FD000FFF784BF7400002010B500F017FA00F07E
:101FE0002FFA0C4C002280212046FEF7E2FE01224F
:101FF00040212046FEF7DDFE5020FFF765FF00225E
:1020000040212046FEF7D5FEBDE810405020FFF7E6
:102010005BBF0000000C014010B500F0F7F900F0C4
:102020000FFA0C4C012280212046FEF7C2FE01224D
:1020300040212046FEF7BDFE5020FFF745FF00225D
:1020400040212046FEF7B5FEBDE810405020FFF7C6
:102050003BBF0000000C014070B5002400F0D6F931
:1020600000F0EEF9144E012280213046FEF7A1FE69
:1020700000F0DAF900256006040E01224021304606
:10208000FEF797FE80213046FEF78EFE012801D133
:1020900044F00104002240213046FEF78AFE6D1C08
:1020A000EDB2082DE7D300F0CBF9012280213046B4
:1020B000FEF77FFE204670BD000C014010B500F019
:1020C000A5F900F0BDF90E4C012280212046FEF753
:1020D00070FE012240212046FEF76BFE0022802187
:1020E0002046FEF766FE1E20FFF7EEFE002240218E
:1020F0002046FEF75EFEBDE810401E20FFF7E4BE5E
:10210000000C014010B500F081F900F099F90E4C77
:10211000002280212046FEF74CFE0022402120466E
:10212000FEF747FE012240212046FEF742FE1E2018
:10213000FFF7CAFE012280212046FEF73AFEBDE8E5
:1021400010401E20FFF7C0BE000C014070B50546D0
:1021500000F05CF900F074F91F4E0024280601D548
:10216000012200E0002280213046FEF722FE0122FB
:1021700040213046FEF71DFE5020FFF7A5FE00224D
:1021800040213046FEF715FE5020FFF79DFE680601
:10219000641C050EE4B2082CE0D300F045F90122DE
:1021A00040213046FEF705FE80213046FEF7FCFD5B
:1021B00001280ED00024002240213046FEF7F9FD10
:1021C00000F03EF9012280213046FEF7F2FD204664
:1021D00070BD0124EFE70000000C014070B500F075
:1021E00015F9FFF76BFF8020FFF7B0FFE520FFF741
:1021F000ADFFFFF763FF8120FFF7A8FF194C012215
:1022000040212046FEF7D5FD00F0F4F802E014204E
:10221000FFF75AFE40212046FEF7C6FD0028F6D003
:10222000FFF71AFF0446FFF7D7FEFFF715FF054635
:10223000FFF7F2FEFFF766FF45EA042020F00300F7
:1022400000F0EDFE084A094B00F0FCFE0022084BAE
:1022500000F0F6FF00F084FC044600F0D7F82046BA
:1022600070BD0000000C01407644CF7701405F3F15
:102270000000184070B5FFF721FF8020FFF766FFD0
:10228000F520FFF763FF1420FFF71EFEFFF716FF90
:102290008120FFF75BFF0128F5D0FFF7DDFE054643
:1022A000FFF79AFEFFF7D8FE0446FFF7B5FEFFF7EB
:1022B00029FF44EA052020F0030000F0B0FE064AA2
:1022C000064B00F0BFFE0022054B00F0B9FFBDE851
:1022D000704000F045BC00007644CF7701405F3F7E
:1022E0000000184070B500F091F8FFF7E7FE80207D
:1022F000FFF72CFFE320FFF729FFFFF7DFFE812028
:10230000FFF724FF194C012240212046FEF751FD22
:1023100000F070F802E01420FFF7D6FD40212046BF
:10232000FEF742FD0028F6D0FFF796FE0446FFF7C1
:1023300053FEFFF791FE0546FFF76EFEFFF7E2FE44
:1023400045EA042020F0030000F069FE084A094B2A
:1023500000F078FE084A094B00F072FF00F000FC24
:10236000044600F053F8204670BD0000000C014008
:10237000619FC6DE07F7653FCDCCCCCCCC6C474027
:1023800070B5FFF79BFE8020FFF7E0FEF320FFF71C
:10239000DDFE1420FFF798FDFFF790FE8120FFF788
:1023A000D5FE0128F5D0FFF757FE0546FFF714FECE
:1023B000FFF752FE0446FFF72FFEFFF7A3FE44EAA5
:1023C000052020F0030000F02AFE064A064B00F02C
:1023D00039FE064A064B00F033FFBDE8704000F0BE
:1023E000BFBB0000619FC6DE07F7653FCDCCCCCCFC
:1023F000CC6C47401FB540200090002001906946FA
:102400000148FEF7DBFB1FBD000C01401FB540205B
:102410000090112001900220039069460148FEF7C8
:10242000CDFB1FBD000C01401FB580200090002097
:10243000019069460148FEF7C1FB1FBD000C014039
:102440001FB5802000901120019002200390694662
:102450000148FEF7B3FB1FBD000C0140704710B5EB
:10246000FFF776FCBDE81040FEF752BD30B58FB0E7
:1024700002240120049000941020059000254FF4C0
:102480006010CDE9085007946846FEF7FBFF00B1E5
:10249000FEE70AA90F2081E831004FF48060CDE902
:1024A0000D0502210AA8FEF7B3FE00B1FEE7FEF714
:1024B0006FFF4FF47A71B0FBF1F0FFF7ACFA042034
:1024C000FFF79DFA00221146501EFEF759FD0FB08E
:1024D00030BD00000F4810B5016841F001010160F6
:1024E00041680D4A1140416001680C4A1140016089
:1024F000016821F480210160416821F4FE014160FE
:102500004FF41F018160FFF7B1FF05494FF00060F4
:10251000086010BD001002400000FFF8FFFFF6FE4B
:1025200008ED00E00E4810B5816986B041F0040165
:10253000816180690B4C00F0040004903020009011
:10254000012001900220039069462046FEF736FBE9
:10255000002230212046FEF72CFC06B010BD000002
:1025600000100240000801400B4910B5094AC1E9BA
:10257000002000208860C860086188610C204861E4
:102580000846FFF7C9FABDE8104001220349024896
:10259000FFF758BB003801409001002038000020B0
:1025A00010B590F83910222903D0322901D0022029
:1025B00010BD8168B1F5805F11D001690029016803
:1025C0001FD0496801F07F03816A4A1C82620B7048
:1025D000C18D491E0904090CC18518D02FE002697C
:1025E000816A002A0268526805D0D2B20A80816AE4
:1025F000491C8162ECE7C2F308020A80816A891CE7
:10260000F7E74A68816A4B1C83620A70E0E7016859
:10261000CA6822F02002CA6090F83910322910D01E
:102620000168CA6822F48072CA6001684A6922F0AF
:1026300001024A61012180F83910FFF737FB0020C1
:1026400010BD1221F7E700002DE9F04104460068B3
:102650000169E26821F4405111430161A1682069D8
:102660000143606901432068C26841F20C639A43E8
:102670000A43C26020684169A26921F44071114394
:1026800041614C4920686426322788423CD1FEF7DC
:102690009DFE00EBC00101EB001061688900B0FBFA
:1026A000F1F5FEF793FE00EBC00101EB001061684D
:1026B000B8468900B0FBF1F0B0FBF6F06FF01801FE
:1026C000484305EB800107EB0110B0FBF6F000F08A
:1026D000F005FEF77BFE00EBC00101EB0010616826
:1026E0008900B0FBF1F0B0FBF6F005EB0015FEF74A
:1026F0006DFE00EBC00101EB001061688900B0FBCA
:10270000F1F7FEF763FE3BE0FEF748FE00EBC00189
:1027100001EB001061688900B0FBF1F5FEF73EFEA9
:1027200000EBC00101EB00106168B8468900B0FB06
:10273000F1F0B0FBF6F06FF01801484305EB8001B3
:1027400007EB0110B0FBF6F000F0F005FEF726FEF7
:1027500000EBC00101EB001061688900B0FBF1F0F3
:10276000B0FBF6F005EB0015FEF718FE00EBC0011C
:1027700001EB001061688900B0FBF1F7FEF70EFE77
:1027800000EBC00101EB001061688900B0FBF1F0C3
:10279000B0FBF6F06FF01801484307EB800108EB3F
:1027A0000110B0FBF6F0216800F00F0028448860AB
:1027B000BDE8F0810038014090F83910122903D0AB
:1027C000322901D0022070478168B1F5805F016A2B
:1027D0000BD04A1C0262026809785160C18C491E04
:1027E0000904090CC1840ED017E009880268C1F3FE
:1027F0000801516001690029016A02D0491C016287
:10280000ECE7891CFBE70168CA6822F08002CA6015
:102810000068C16841F04001C160002070470000BD
:10282000154830B400680068C04380061BD41348C4
:102830000068134AC1B25068030414D444044FF032
:10284000000304D50A290DD140F4004011E00D2900
:102850000DD0094DC0F30D04C83D401C29555060F2
:10286000C72800D9536030BC0348FFF7E9B840F4EB
:1028700080405060F7E700009001002004380140DC
:1028800038000020FEE7704700224FF4C85304E0F0
:102890000021491C9942FCD3521C8242F8D3704754
:1028A00004490A685206FCD5024AC1B2121D1160E1
:1028B0007047000000380140FEF732FBFFF732FEA0
:1028C000FFF710FAFFF7F6F94FF4E130FFF74CFE8F
:1028D000FFF7D8FA1D4C1E4E4FF47A77FFF766FBD0
:1028E00032210020FDF74AFE05466060306800F0A6
:1028F00091FD2070706800F08DFD60702946032204
:10290000C02000F031F83846FEF74CF90222617819
:10291000C02000F029F83846FEF744F9012221785A
:10292000C02000F021F83846FEF73CF90120FFF7FF
:102930009DFA6278217807A06368FDF76DFC14208A
:10294000FFF7A2FF0020FFF791FAC7E70000002081
:10295000740000207773642D3E67736D25642564D1
:1029600025640D0A000000002DE9F04781460A2089
:1029700064234FF47A75012A06D0022A06D0032A6E
:1029800006D0042A1AD007E00B2405E00C2403E04B
:10299000B1FBF0F200FB1214A9421AD9B1FBF5F217
:1029A000D6B2B1FBF3F2B2FBF0F3B1FBF0F100FBF6
:1029B0001325B1FBF0F200FB121717E0B1FBF5F2A3
:1029C000B1FBF3F2B2FBF0F2B1FBF0F2B2FBF0F2CA
:1029D000DEE7092907D9B1FBF0F2D6B2B1FBF0F27C
:1029E00000FB121501E00026CDB20A27DFF868804F
:1029F000012220214046FEF7DCF901221021404649
:102A0000FEF7D7F900F02CF8402000F071F800F044
:102A10004BF800F025F8484600F06AF8DFF83C80F3
:102A200018F8060000F064F818F8050000F060F8E7
:102A300018F8070000F05CF818F8040000F058F8E7
:102A400000F032F800F00CF88C2000F051F8BDE8EE
:102A5000F04700F029B800000008014028000020DD
:102A600010B5104C012220212046FEF7A2F90122C8
:102A700010212046FEF79DF90220FEF793F8002270
:102A800020212046FEF795F90220FEF78BF8002260
:102A900010212046FEF78DF9BDE810400220FEF718
:102AA00081B800000008014010B5104C0022202120
:102AB0002046FEF77EF9012210212046FEF779F923
:102AC0000220FEF76FF8012220212046FEF771F95F
:102AD0000220FEF767F8002210212046FEF769F970
:102AE000BDE810400220FEF75DB80000000801407C
:102AF00070B51A4E0446002220213046FEF759F9DF
:102B0000002210213046FEF754F900250022102142
:102B10003046FEF74EF9E00701D0012200E0002226
:102B200020213046FEF745F90220FEF73BF801224E
:102B300010213046FEF73DF96D1C6408EDB2082DFA
:102B4000E4D3002210213046FEF733F93046BDE8C9
:102B5000704000222021FEF72CB90000000801403F
:102B600021F00042A2F16052B2F5801F01F0004353
:102B700028BFD2F17F6C0BD95FEA001C43EAC20286
:102B800042EB507018BF704728BF20F0010070471B
:102B9000B2F5801FBCBF184670474FEA410C1CF5C8
:102BA000001F02D2084600F09ABC70B500F0F4FA9B
:102BB00000000089FFF7F6BF4FF00040A0F580004D
:102BC0007047000010B591EA030F48BF83F000433F
:102BD00000F13E83841A71EB030C05D2121943EB0A
:102BE0000C03001B61EB0C01DFF824E14FEA1154E8
:102BF000A4EB135C1EEA430F18BF9EEA445F73D038
:102C000023EA0E03DCF1200E21EA045143F4801381
:102C100032D322FA0CFE10EB0E0023FA0CFE41EB2D
:102C20000E01CCF1200E03FA0EFE10EB0E0051F156
:102C30000001B1F5801FCCF1200E32D201EB04511E
:102C400012FA0EF2BDE8104058BF7047401C38BF62
:102C50005FEA420218BF7047002814BF20F001004D
:102C600041F100014FEA410313F5001F38BF7047DF
:102C7000A1F1C04100F0DEBA012A43EB0302ACF13E
:102C8000200CDCF11F0E32BF4FF0000E23FA0CF3C4
:102C900010EB030041EB0451B4EB115FD0D0A1EB7A
:102CA000045101F5801149085FEA300001EB04513D
:102CB0000ED350F1000038BF12FA0EFE08D1BDE865
:102CC0001040C9E7401C38BF5FEA4202CAD1C3E7DF
:102CD000BDE810404FEA410313F5001F38BF7047AD
:102CE000A1F1C04100F0A6BA9EEA445F08D011EA03
:102CF0005E0FBDE8104004BF01F0004100207047A6
:102D0000BDE8104070B500F047FA00BF64FBBE3E5E
:102D10000000E0FF2DE9C04130B4DFF8A0C23CEA7A
:102D2000111418BF3CEA131400F0EC8081EA03058B
:102D30001CEA111444EAD57418BF1CEA131500F0FC
:102D4000C780A4EB05044FF0004545EAC12145EAE0
:102D5000C32341EA505143EA525304F17F7499422C
:102D600004F500344FEAC0204FEAC22208BF904267
:102D700000F09C804FEA13650FF24016765D4FEA33
:102D8000134506FB05F7C7F1807706FB07F74FEA07
:102D9000D737A7FB03687642C8F58038A7FB06CE75
:102DA00038BFA8F1010807FB08E64FF0000EA6FBAC
:102DB000028CE6FB03CEDCF1000CCEF1004E38BFF6
:102DC000AEF1010EA6FB0C584FF000074FF00005C6
:102DD000E6FB0E87A1FB08C6A0FB07CE16EB0E068E
:102DE00045F10005E1FB076515F1E04E7EBFA4F556
:102DF00080345FEA46066D4116F1800745F1000513
:102E00004FEA17274FEA066647EA0567A6F1DE464E
:102E1000B6F1805F4FEA15251FD9384624F0010C22
:102E200005EBC471BCF1FE6F01EB0C1102D8F0BCD4
:102E3000BDE8008124425CBF01F5801E9EEAC47F8C
:102E400002D4F0BCBDE80081244238D4F0BCA1F12A
:102E5000C041BDE8004100F0EDB94FEAD22242EA9C
:102E600043524FEAD323A7FB02864FEAD02040EA21
:102E7000415007FB03661EEA0E0F4FEAD12105FB06
:102E8000026658BFA6EB0056B6EB00564FEA520E4C
:102E90004EEAC37E18EB0E0E56EB530EBDD518EB63
:102EA00002085E417F1C55F10005B6E74FF480151E
:102EB0004FF000074FF000064FF00008ADE7F0BC00
:102EC0004FF0000001F1C04101F00041BDE8008178
:102ED00011EA0C1F0CEA131500D00CE013EA0C1FCA
:102EE00000F025804FF00000F0BC81EA030101F002
:102EF0000041BDE80081F0BCBDE8004181EA03016A
:102F000000F098B9F0BCBDE8004170B500F044F99C
:102F1000097EFC3E00F007B881EA03014FF0000093
:102F200001F00041704781EA030100F083B9F0BC71
:102F3000BDE800414FF0000021497047FFFDFBF95B
:102F4000F7F5F4F2F0EEEDEBE9E8E6E4E3E1E0DEDC
:102F5000DDDBDAD8D7D5D4D3D1D0CFCDCCCBCAC84E
:102F6000C7C6C5C4C2C1C0BFBEBDBCBBBAB9B8B775
:102F7000B6B5B4B3B2B1B0AFAEADACABAAA9A8A868
:102F8000A7A6A5A4A3A3A2A1A09F9F9E9D9C9C9B36
:102F90009A999998979796959594939392919190E1
:102FA0008F8F8E8E8D8C8C8B8B8A89898888878772
:102FB0008685858484838382828181800000FF07E7
:102FC0000000F87F4FEA1153A3F58063D3F11E038D
:102FD000A8BFD3F1200C08DB4FF0004242EAC12227
:102FE00052EA505232FA03F0704709420BD4102BC8
:102FF000C4BF0020704703F5787CBCF1FF3F05D0CB
:103000004FF0FF3070474FF00000704770B500F090
:10301000C3F800BF4992248000207047F0E7B0FA5F
:1030200080F310FA03F10AD0C3F11D0303F58063A6
:103030004FEA41504FEA035202EBD12170474FF063
:1030400000007047DFF848C170B51CEA111E1EBFB2
:103050001CEA13159EEA0C0F95EA0C0F00F06F8026
:1030600081EA030423EA4C134EEAD47E21EA4C1190
:1030700041F4801143F48013AE44A1FB024CA0FB49
:103080000365AEF17F7E361955EB0C05A1FB034CB1
:103090004CF10003A0FB021C16EB0C06654153F13A
:1030A0000003094218BF46F0010613F4007F0BD15C
:1030B0004FEA03314FEA0530340341EA155140EA43
:1030C00016506FF003020AE04FEAC3214FEAC52011
:1030D000F40241EA555140EA56506FF0020202EB09
:1030E0002E4201EB025585EACE710AD05FEA440C0C
:1030F00018BF24F0004450F1000041F1000120EA23
:10310000D47040F2FE7C624500D270BDA84214BF6C
:103110004FF080444FF04044002E08BF0024BEF121
:10312000806FA8BFA1F1C041BDE8704080F28280ED
:103130004FF0000001F1C04101F0004170479EEAEC
:103140000C0F0CEA131518BF95EA0C0F06D04FF0C0
:10315000000081EA030E0EF0004170BD00F01CF883
:103160008900013E00F007B800F009B84FEA430CAF
:103170005FEA5C5C08D081EA030100F05BB84FEACB
:10318000410C5FEA5C5CF6D14FF0000001497047EA
:103190000000FF070000F87F0EF1020E2EF0030E74
:1031A0005EF8046B364205D4012A43EB030515F59E
:1031B000001F12D8012841EB010C1CF5001F0CD890
:1031C0000ED14FEAD17C15F5001F0CEB4C0C0CF125
:1031D000020C08BF4CEBD37C04E04FF0080C01E07C
:1031E0004FEAD37C0CEB4C0526FA05F606F00706F1
:1031F000B6F1040C06D20EEB860CBDE870404CF024
:10320000010C6047DFE80CF0090B02024FF00041AF
:103210004FF00000A1F5002170BD194610460128AD
:1032200051EB010418BFD4F5001484BF002001F055
:10323000004170BD0808A0F500114FEA3101704748
:1032400010B591EA030F48BF83F000433FF5C2ACCD
:10325000841A71EB030C07D212198CF0004C43EB6B
:103260000C03001B61EB0C01DFF8A4E14FEA1154E1
:10327000A4EB135C1EEA430F18BF9EEA445F00F004
:10328000B08023EA6E03524221EA0451C3EB6E037D
:1032900038BF5B1EDCF1200E25D322FA0CFE10EBAA
:1032A0000E0043FA0CFE41EB0E01CCF1200E03FAA6
:1032B0000EFE10EB0E0051F10001CCF1200E29D4CE
:1032C00012FA0EF201EB0451BDE8104058BF7047EE
:1032D000401C1CBFB2F1004F704700280CBF491CB6
:1032E00020F00100704712EB020E43EB030218BFFF
:1032F0004FF0010E4EEA4202ACF1200CDCF11E0E42
:1033000054D943FA0CFE10EB0E0051F1FF31CCF111
:103310001E0ED5D50EF1010E12FA0EFE404141EB04
:10332000010101EB445C5FEA5C5C10D910EBDE70DC
:1033300001EB045138BFBEF1004FBDE8104018BF8B
:10334000704700280CBF491C20F00100704730D2A4
:103350004FEAD42C11F5001124F400641BD0B1FA0B
:1033600081F20B3AA41AA41ED2F12003914030FA44
:1033700003F31943904001EBCC71002C01EB045195
:10338000BDE81040A8BF704701F1C0414FF00000F8
:1033900001F000417047B0FA80F310FA03F100D158
:1033A00010BDE41A173C4805C90AE4E701EB0451D3
:1033B00010BD491001EB0451BDE810404FEA300048
:1033C00002E04FF0000170474A0008BF0042F8D009
:1033D000B2F5001F28BF704701F000414FF0000018
:1033E00070479EEA445F07D011EA5E0FBDE81040C7
:1033F00004BF002100207047BDE8104070B5FFF702
:10340000CBFE00BF40DFF63E83F000411046704720
:103410000000E0FFC10DD1F19E0206DB4FEA002360
:1034200043F0004323FA02F07047004207D54FEA09
:103430004001B1F1FE4F02D24FF00000704710B5CD
:1034400000F007F849922480002070476FEA2000BE
:1034500070470EF1020E2EF0030E5EF8044B24426C
:1034600004D44FEA4102B2F17F4F11D84FEA400332
:10347000B3F17F4F0CD80ED14FEAD07CB2F17F4F21
:103480000CEB4C0C0CF1020C08BF4CEBD17C04E0B3
:103490004FF0080C01E04FEAD17C0CEB4C0324FA0E
:1034A00003F404F00704B4F1040C06D20EEB840C10
:1034B000BDE810404CF0010C6047DFE80CF0070855
:1034C00002024FF00040A0F5800010BD0846420007
:1034D00018BFD2F1807288BF00F0004010BDFF21FC
:1034E00041EAD050C0057047000000000000000015
:1034F000010203040607080900000000010203049A
:103500002035000800000020440000006C01000885
:103510006435000844000020EC0700008801000822
:1035200000000000000000000000F4010090D00343
:10353000000000000000000000000000000000008B
:1035400000000000000000003F065B4F666D7D0735
:103550007F6F00397680000000000000000000004E
:043560000000000067
:0400000508000131BD
:00000001FF
