:020000040800F2
:1000000088070020D5010008B71500082512000850
:10001000B515000889040008391B0008000000001D
:10002000000000000000000000000000551700085C
:100030008B04000800000000D915000857170008BD
:10004000EF010008EF010008EF010008EF010008D0
:10005000EF010008EF010008EF010008EF010008C0
:10006000EF010008EF010008EF010008EF010008B0
:10007000EF010008EF010008EF010008EF010008A0
:10008000EF010008EF010008EF010008EF01000890
:10009000EF010008EF010008EF010008EF01000880
:1000A000EF010008EF010008EF010008EF01000870
:1000B000EF010008EF010008EF010008EF01000860
:1000C000EF010008EF010008EF010008EF01000850
:1000D000EF010008D51A0008EF010008EF01000841
:1000E000EF010008EF010008EF010008EF01000830
:1000F000EF010008EF010008EF010008EF01000820
:10010000EF010008EF010008EF010008EF0100080F
:10011000EF010008EF010008EF010008EF010008FF
:10012000EF010008EF010008EF010008EF010008EF
:1001300000F002F800F03FF80AA090E8000C8244BA
:100140008344AAF10107DA4501D100F034F8AFF297
:10015000090EBAE80F0013F0010F18BFFB1A43F0A5
:10016000010318473C1A00005C1A0000103A24BF33
:1001700078C878C1FAD8520724BF30C830C144BF0C
:1001800004680C607047000000230024002500264E
:10019000103A28BF78C1FBD8520728BF30C148BFEA
:1001A0000B607047642900F07780002070471FB50E
:1001B0001FBD10B510BD00F037F91146FFF7F7FF6E
:1001C00001F0D4FC00F055F903B4FFF7F2FF03BCD3
:1001D00001F0B3FC0948804709480047FEE7FEE705
:1001E000FEE7FEE7FEE7FEE7FEE7FEE7FEE7FEE7E7
:1001F00004480549054A064B70470000CD17000822
:1002000031010008880100208807002088030020B1
:1002100088030020704700000FB4044910B503AAFA
:10022000029800F0D3F810BC5DF814FB1800002011
:100230002DE9F0410E460446002020622046E16888
:10024000884730B3252805D0D4E901219047206A9A
:10025000401CF2E7E168204600278847050018D0D7
:10026000A5F14100192802D820354FF40067324625
:10027000294620462760FFF795FF40B1012804D0AA
:10028000F61D26F007060836D8E7361DD6E72846BD
:10029000DAE7206ABDE8F0812DE9F0410646002446
:1002A00010687529314616A510D0AFF300800028DC
:1002B00002DA404213A507E031688A0701D512A58A
:1002C00002E0490704D511A5012401E0AFF3008045
:1002D00000210A2206F1240709E0B0FBF2FCB0FB82
:1002E000F2F302FB1C00303078541846491C0028F9
:1002F000F3D123462A463046BDE8F04100F00CB861
:10030000000000002D0000002B0000002000000075
:1003100070477047704770472DE9F0470D46994682
:100320009246044600F124080168880604D5E06975
:1003300021F01001216000E00120A84201DD471BEF
:1003400000E00027A1697A1902EB0900081AA061F0
:100350002078C00602D42046AFF30080002608E0D3
:10036000D4E901211AF806009047206A401C761C47
:1003700020624E45F4DB2078C0060AD52046AFF354
:10038000008006E0D4E9012130209047206A401C1B
:100390002062381EA7F10107F4DC07E0D4E901214F
:1003A00018F805009047206A401C2062281EA5F11D
:1003B0000105F3DC2046AFF300802078000602D56B
:1003C0000220BDE8F0870120FBE70000074B70B575
:1003D0000D467B4400F011F80446284600F020F852
:1003E00010B14FF0FF3070BD204670BD7F17000088
:1003F00001694A1C02610878704700B58FB0CDE9E9
:1004000001310021059105497944CDE903101146D8
:100410006846FFF70DFF0FB000BD0000E5FFFFFFCE
:10042000007B00F080007047754600F029F8AE466A
:1004300005006946534620F00700854618B020B5F0
:10044000FFF7D6FEBDE820404FF000064FF0000752
:100450004FF000084FF0000B21F00701AC46ACE86C
:10046000C009ACE8C009ACE8C009ACE8C0098D46D9
:1004700070470446AFF300802046FFF7A5FE00005A
:100480000048704724010020FEE7704731B500F0B6
:1004900009F9044600F006F90099001B8842F9D3D7
:1004A00038BD00002DE9F84FDFF8BC91002309F1B9
:1004B000040A0AF1040B1C464FF00F080BF1040E5E
:1004C00001270A68A7403A40BA4272D1DFF89CC1BE
:1004D0004D68A5EB0C0665452BD00DDC032D34D003
:1004E00005DC35B3012D19D0022D2FD11BE0112DC4
:1004F00016D0122D2AD119E0B6F5881F19D006DCC6
:10050000B6F5803F15D0B6F5801F1FD111E0B6F5C6
:10051000001F0ED0B6F5041F18D10AE0CB6815E015
:10052000CB681B1D12E0CB6808330FE0CB680C339F
:100530000CE08B682BB1012B4FF0080303D047610F
:1005400004E0042302E0076100E00023FF2A01D851
:10055000064601E000F104064FEA840501D9A5F141
:100560002005376808FA05FC27EA0C0703FA05F5A9
:1005700047EA050737604D68ED006ED53C4DAE6922
:1005800046F00106AE61AD6924F0030605F00105F1
:100590000095384D7719BE68A5072D0F08FA05FCA0
:1005A00026EA0C06DFF8D0C0604503D14FF0000CFE
:1005B00025E052E0DFF8C4C0604502D14FF0010CE5
:1005C0001DE0DFF8BCC0604502D14FF0020C16E020
:1005D000DFF8B0C0604502D14FF0030C0FE0DFF848
:1005E000A8C0604502D14FF0040C08E0DFF89CC0C1
:1005F000604502D14FF0050C01E04FF0060C0CFAFB
:1006000005FC4CEA060CC7F808C04D68D9F8006034
:10061000ED034D4601D5164300E096432E604D682C
:10062000DAF80060AD03554601D5164300E0964365
:100630002E604D68DBF80060ED025D4601D5164383
:1006400000E096432E604D68DEF80060AD0275460E
:1006500001D5164300E096432E60641C102CFFF475
:100660002FAFBDE8F88F000000040140000011101A
:10067000001002400000014000080140000C014051
:10068000001001400014014000180140001C01400E
:100690008068084000D0012070470AB101617047AE
:1006A0000904FBE7014800687047000008000020CB
:1006B00002480168491C01607047000008000020E2
:1006C000074810B5016841F010010160032000F0F7
:1006D00047F80F2000F006F800F015F8002010BDD4
:1006E0000020024010B5044600F00CF94FF47A7176
:1006F000B0FBF1F000F049FC00222146501E00F052
:100700000FF8002010BD704700F01F02012191403A
:100710004009800000F1E020C0F80011704700009F
:10072000F0B40E4B1B68C3F30223C3F10704042C7F
:1007300000D904241D1D072D01D2002300E0DB1E7B
:10074000012606FA04F56D1E0D409D409E40761E62
:10075000164045EA0601F0BC00F02EBF0CED00E0AB
:10076000064A00F0070110684FF6FF03184040EA00
:100770000120034908431060704700000CED00E0C1
:100780000000FA052DE9F047DFF8688104460E46BF
:10079000D8F8000000F00700B0420CD2D8F80010E2
:1007A00021F007013143C8F80010D8F8000000F02C
:1007B0000700B04273D120784F4F800705D5786885
:1007C000A16820F0F000084378602078C00755D079
:1007D0006068012201280CD0022828D0022393FA55
:1007E000A3F1B1FA81F141F02001490904D039683F
:1007F00003E04FF40033F2E7796A93FAA3F3B3FA14
:1008000083F303F01F039A40114248D0796821F026
:10081000030101437960FFF745FF0546606841F237
:10082000883101280CD00228894615D022E04FF0EB
:100830000073D4E7FFF736FF411B494501D916E0A5
:1008400089467868C0F381000128F3D116E0FFF7EC
:1008500029FF411B49450AD87868C0F38100022866
:10086000F5D10BE0FFF71EFF411B494502D90320DC
:10087000BDE8F087786810F00C0FF3D1D8F80010BD
:10088000404601F00701B1420BD9016821F0070190
:1008900031430160006800F00700B04201D0012040
:1008A000E6E72078400705D57868E16820F4E06045
:1008B000084378602078000706D57868216920F41D
:1008C000605040EAC100786000F052F87968F02288
:1008D00092FAA2F201F0F001B2FA82F2D140074A94
:1008E000515CC840064908600F20FFF7FBFE00205E
:1008F000BEE700000020024000100240861B0008F6
:100900000400002001480068704700000400002037
:1009100008480949006849684FF4E06292FAA2F277
:1009200001F4E061B2FA82F2D140044A515CC8405D
:10093000704700000400002000100240961B0008D1
:1009400008480949006849684FF4605292FAA2F2D7
:1009500001F46051B2FA82F2D140044A515CC840BD
:10096000704700000400002000100240961B0008A1
:1009700010B519A085B00FC88DE80F001AA01B4B49
:100980000068049059681A4801F00C02042A1DD02E
:10099000082A1BD14FF4701494FAA4F401F47012D5
:1009A000B4FA84F4E240C9031DF8022010D5596856
:1009B0004FF4003393FAA3F301F40031B3FA83F355
:1009C000D94004AB595CB0FBF1F0504305B010BD09
:1009D00008485043FAE70000020304050607080927
:1009E0000A0B0C0D0E0F1010010200000010024047
:1009F00000127A0000093D002DE9F84F0446007806
:100A0000FE4EC0074FF001057FD070684FF40038EC
:100A1000C0F38100012807D07068C0F3810002286C
:100A20001BD17068C00318D598FAA8F0B0FA80F00E
:100A300040F02000400901D0306800E0706A98FA68
:100A4000A8F1B1FA81F101F01F0105FA01F10842A4
:100A50005BD06068002879D057E06068B0F5803FCF
:100A60000BD010B1B0F5A02F11D0306820F4803039
:100A70003060306820F4802002E0306840F480303C
:100A80003060606818B3FFF70DFE074609E0306874
:100A900040F480203060F0E7FFF704FEC01B6428BC
:100AA00070D898FAA8F0B0FA80F040F02000400921
:100AB00001D0306800E0706A98FAA8F1B1FA81F1CB
:100AC00001F01F0105FA01F10842E5D01DE0FFF732
:100AD000E9FD074604E0FFF7E5FDC01B6428DFD809
:100AE00098FAA8F0B0FA80F040F02000400901D058
:100AF000306800E0706A98FAA8F1B1FA81F101F06B
:100B00001F0105FA01F10842E5D12078DFF8F082F3
:100B100080074FF0000A4FF002075AD570684FF077
:100B2000F80B10F00C0F07D07068C0F3810002289A
:100B30001CD17068C00319D497FAA7F0B0FA80F0FE
:100B400040F02000400902D0306801E08AE0706A7D
:100B500097FAA7F1B1FA81F101F01F0105FA01F14D
:100B600008422BD0206901287CD127E0206988B376
:100B700095FAA5F0B0FA80F048F82050FFF792FD02
:100B8000814606E04DE1FFF78DFDA0EB090002284C
:100B900086D897FAA7F0B0FA80F040F0200040091C
:100BA00001D0306800E0706A97FAA7F1B1FA81F1DC
:100BB00001F01F0105FA01F10842E4D030689BFA08
:100BC000ABF220F0F8016069B2FA82F29040014382
:100BD000316025E0FFE795FAA5F1B1FA81F148F817
:100BE00021A0FFF75FFD814605E0FFF75BFDA0EB6D
:100BF00009000228CCD897FAA7F0B0FA80F040F0AC
:100C00002000400901D0306800E0706A97FAA7F12F
:100C1000B1FA81F101F01F0105FA01F10842E4D1B6
:100C2000207800076DD5A069B8B395FAA5F0B0FAA1
:100C300080F008EB8000C0F88054FFF733FD814658
:100C400005E0FFF72FFDA0EB09000228A0D897FAD6
:100C5000A7F0B0FA80F040F06000B5EB501F02D171
:100C600030680CE063E197FAA7F0B0FA80F040F04A
:100C70006000B7EB501F01D1306A00E0706A97FA4C
:100C8000A7F1B1FA81F101F01F0105FA01F210425A
:100C9000D7D00120FFF7FAFB33E0FFE795FAA5F183
:100CA000B1FA81F108EB8101C1F880A4FFF7FAFCE9
:100CB000814605E0FFF7F6FCA0EB0900022899D871
:100CC00097FAA7F0B0FA80F040F06000B5EB501F43
:100CD00001D130680BE097FAA7F0B0FA80F040F04D
:100CE0006000B7EB501F01D1306A00E0706A97FADC
:100CF000A7F1B1FA81F101F01F0105FA01F21042EA
:100D0000D8D12078400763D5F06940F08050F06179
:100D1000F069DFF8F0B000F080500090DBF80010D0
:100D200041F48071CBF80010FFF7BCFC814605E070
:100D3000FFF7B8FCA0EB0900642872D8DBF80000CC
:100D4000C005F5D5E06801280AD008B1052813D000
:100D5000306A20F001003062306A20F0040002E0C6
:100D6000306A40F001003062E06841F2883B80B3B5
:100D7000FFF798FC81460AE0306A40F004003062D8
:100D8000EEE7FFF78FFCA0EB0901594549D897FA28
:100D9000A7F0B0FA80F040F04000B5EB501F01D151
:100DA00030680BE097FAA7F0B0FA80F040F040000E
:100DB000B7EB501F01D1306A00E0706A97FAA7F1D3
:100DC000B1FA81F101F01F0205FA02F10842D8D010
:100DD00033E0FFE7FFF766FC814605E0FFF762FCC2
:100DE000A0EB090159451CD897FAA7F0B0FA80F09A
:100DF00040F04000B5EB501F08D105E00010024064
:100E0000000042420070004030680CE097FAA7F002
:100E1000B0FA80F040F04000B7EB501F02D1306ACA
:100E200001E08AE0706A97FAA7F1B1FA81F101F066
:100E30001F0205FA02F10842D0D1E06998B3716847
:100E4000C1F38101022972D002284FF080714FF066
:100E5000007B50460AD091FAA1F1B1FA81F148F82D
:100E60002100FFF71FFC04465F4669E08A4691FABD
:100E7000A1F1B1FA81F1C14648F82100FFF712FC57
:100E8000A84607465D4604E0FFF70CFCC01B02289D
:100E900053D895FAA5F0B0FA80F040F02000400950
:100EA00002D0306801E060E0706A95FAA5F1B1FA0D
:100EB00081F101F01F0208FA02F10842E4D1206A30
:100EC000B0F5803F05D17068A16820F40030084378
:100ED0007060D4E908010843716821F47411084373
:100EE00070609AFAAAF0B0FA80F0474649F820807C
:100EF000FFF7D8FB044604E0FFF7D4FB001B0228F1
:100F00001BD895FAA5F0B0FA80F040F02000400917
:100F100001D0306800E0706A95FAA5F1B1FA81F16C
:100F200001F01F0107FA01F10842E5D01DE01EE0C3
:100F3000FFF7B8FB001B022802D90320BDE8F88F99
:100F400097FAA7F0B0FA80F040F02000400901D0F5
:100F5000306800E0706A97FAA7F1B1FA81F101F008
:100F60001F0105FA01F10842E2D10020E6E7012065
:100F7000E4E74FF0E0210428086903D020F00400E2
:100F80000861704740F00400FAE710B5401EB0F168
:100F9000807F01D3012010BD4FF0E02460610F215C
:100FA000601700F009FB0020A061072020610020ED
:100FB00010BD704738B5044600680168C268C1F3C7
:100FC000000102F4807221B11AB1E16B41F001011C
:100FD000E1630168C1F34002416901F0010122B1FE
:100FE00019B1E26B42F00402E2630268C2F38002CC
:100FF00022B119B1E26B42F00202E2630268C2F36D
:10100000C00222B119B1E16B41F00801E16301684E
:10101000C068C1F3401100F0200019B110B12046A2
:1010200000F018FC20680168C068C1F3C01100F02E
:10103000800019B110B1204600F018FD2168086841
:10104000CA68C0F3801002F04002012568B162B1A5
:10105000CA68204622F04002CA6094F8391032294A
:1010600010D080F8395000F0DCF8E06B002808D090
:10107000206801684068009084F839502046FFF7E6
:1010800098FF38BD222180F83910ECE770B50400D4
:1010900004D094F83900002510B106E0012070BD9D
:1010A00084F83850204600F021F8022084F83900F6
:1010B0002068C16821F40051C160204600F01EFC88
:1010C0002068016921F4904101612068416921F0A3
:1010D0002A0141612068C16841F40051C160E563A3
:1010E000012084F83900002070BD0000F0B50068D0
:1010F0002D4F00252D490222012303262C4C85B0BB
:10110000B8422FD1886940F004008861886900F0F6
:1011100004000490886940F480408861886900F484
:1011200080400490886940F001008861886900F07F
:101130000100049048158DE84D0069462046FFF7F0
:10114000B1F92115CDE9001569462046FFF7AAF946
:101150002520FFF7D9FA032211462520FFF7E0FAF0
:1011600005B0F0BD134FB842FAD1886940F00400D1
:101170008861886900F004000490C86940F4003078
:10118000C861C869694600F40030049004208DE805
:101190004D002046FFF786F90821CDE90015694684
:1011A0002046FFF77FF9DBE70038014000100240DE
:1011B000000801400044004090F83930012B01D074
:1011C000122B2BD131B32AB390F83830012B25D014
:1011D000012380F8383081628285C2850021C16395
:1011E00090F83920122A17D0222280F8392080F86E
:1011F00038100168CA6842F48072CA6001684A699E
:1012000042F001024A610068C16841F02001C160FA
:1012100000207047012070473222E6E70220704725
:1012200070477047FEE700002DE9F0470A20FFF7FE
:101230002DF9BE4CDFF8F882BE4E20784FF0000A40
:1012400010F003004FF001054FF400574FF48049B0
:1012500006D001286DD002287DD0032821D13CE1A1
:101260000122F0214046FFF718FA002210214046E3
:10127000FFF713FA01213046FFF70AFA90B1022175
:101280003046FFF705FAE0B139463046FFF700FA7D
:1012900030B34F4649463046FFF7FAF978B384F841
:1012A00001A037E1322000F049FC01213046FFF770
:1012B000EFF961780843F4D1012000F01DFA07210D
:1012C0002CE0322000F03AFC02213046FFF7E0F932
:1012D00061780843E5D1012000F00EFA04211DE0F9
:1012E000322000F02BFC39463046FFF7D1F9617807
:1012F0000843D6D1012000F0FFF901210EE0FFE7FD
:10130000322000F01BFC39463046FFF7C1F9617806
:101310000843C6D1012000F0EFF90A2186A0FEF7AC
:101320007BFF0A20FFF7B2F8002000F0E5F96570B6
:10133000F0E00122F0214046FFF7AFF90022202122
:101340004046FFF7AAF901213046FFF7A1F9A0B105
:101350000221304600E057E0FFF79AF9E0B1394644
:101360003046FFF795F930B34F4649463046FFF710
:101370008FF978B384F802A0CCE0322000F0DEFBD5
:1013800001213046FFF784F9A178084389D1012073
:1013900000F0B2F908212CE0322000F0CFFB02214E
:1013A0003046FFF775F9A1780843C1D1012000F05C
:1013B000A3F905211DE0322000F0C0FB394630467C
:1013C000FFF766F9A1780843B2D1012000F094F943
:1013D00002210EE0FFE7322000F0B0FB3946304634
:1013E000FFF756F9A17808430DD1012000F084F9E8
:1013F000002151A0FEF710FF0A20FFF747F8002058
:1014000000F07AF9A57085E00122F0214046FFF74F
:1014100044F9002240214046FFF73FF901213046C0
:10142000FFF736F990B102213046FFF731F9E0B10C
:1014300039463046FFF72CF930B34F46494630461F
:10144000FFF726F978B384F803A063E0322000F0B8
:1014500075FB01213046FFF71BF9E178084359D1AC
:10146000012000F049F909212CE0322000F066FB50
:1014700002213046FFF70CF9E17808434AD10120F8
:1014800000F03AF906211DE0322000F057FB394602
:101490003046FFF7FDF8E17808433BD1012000F02A
:1014A0002BF903210EE0FFE7322000F047FB39461D
:1014B0003046FFF7EDF8E17808432BD1012000F02A
:1014C0001BF90B211CA0FEF7A7FE0A20FEF7DEFF8A
:1014D000002000F011F9E5701CE00122F0214046E7
:1014E000FFF7DBF8002280214046FFF7D6F8012104
:1014F0003046FFF7CDF868B102213046FFF7C8F853
:1015000068B139463046FFF7C3F818B1494630464E
:10151000FFF7BEF82078401C2070BDE8F08700225D
:101520004FF400414046FFF7B8F8F3E70C00002005
:1015300000080140000C01406D726B2D3E7266691F
:101540006425640D0A00000030B5174885B0816934
:1015500041F004018161816901F004010491816914
:1015600041F0080181618069012400F008000490C5
:10157000F020CDE9000402200C4D03906946284676
:10158000FEF790FF46F203010020CDE9001002941F
:1015900069460748FEF786FF0022F0212846FFF73C
:1015A0007CF805B030BD000000100240000801408A
:1015B000000C0140FEE770470907090E002806DA13
:1015C00000F00F0000F1E02080F8141D704700F1DA
:1015D000E02080F800147047704700002DE9F041CA
:1015E000404C414DDFF80481207886B04FF400462E
:1015F000E0B16088401C80B26080B0F5FA7F12D301
:10160000002767806078E8B3012857D002280AD104
:10161000002231464046FFF740F8012218212846B3
:10162000FFF73BF8677006B0BDE8F081304A012053
:101630002070916941F001019161916901F001010E
:1016400004912C494B6823F0E06343F000734B6036
:10165000916941F008019161916901F008010491DB
:10166000916941F00401916191690190029048F201
:10167000180401F0040103200094CDE90301694638
:10168000284600E012E0FEF70DFF69464746404657
:101690000096FEF707FF012221462846FEF7FDFFD0
:1016A000012231463846FEF7F8FFBCE70022102140
:1016B0002846FEF7F2FF0122082107E00022082158
:1016C0002846FEF7EAFF012248F210012846FEF7FD
:1016D000E4FF012231464046FEF7DFFF6078401C00
:1016E0006070A0E700000020000C014000080140ED
:1016F0000010024000000140044B4FF4807108B11B
:10170000012200E000221846FEF7C7BF0008014092
:1017100030B50E4885B0816941F00401816180696E
:101720004FF4807400F0040004900120CDE90040E3
:101730000220074D039069462846FEF7B3FE0022BB
:1017400021462846FEF7A9FF05B030BD0010024033
:1017500000080140704710B5FFF740FFBDE810409A
:10176000FEF7A6BF30B58FB002240120049000948C
:101770001020059000254FF46010CDE90850079423
:101780006846FFF739F900B1FEE70AA90F2081E8A2
:1017900031004FF48060CDE90D0502210AA8FEF763
:1017A000F1FF00B1FEE7FFF7ADF84FF47A71B0FB3F
:1017B000F1F0FFF7EAFB0420FFF7DBFB0022114604
:1017C000501EFEF7ADFF0FB030BD00000F4810B542
:1017D000016841F00101016041680D4A114041601A
:1017E00001680C4A11400160016821F48021016008
:1017F000416821F4FE0141604FF41F018160FFF751
:10180000B1FF05494FF00060086010BD00100240B4
:101810000000FFF8FFFFF6FE08ED00E00B4910B5F1
:10182000094AC1E9002000208860C8600861886119
:101830000C2048610846FFF729FCBDE81040012252
:1018400003490248FFF7B8BC00380140E40000201B
:101850001000002010B590F83910222903D0322949
:1018600001D0022010BD8168B1F5805F11D00169FF
:10187000002901681FD0496801F07F03816A4A1C72
:1018800082620B70C18D491E0904090CC18518D0F4
:101890002FE00269816A002A0268526805D0D2B23C
:1018A0000A80816A491C8162ECE7C2F308020A805F
:1018B000816A891CF7E74A68816A4B1C83620A7057
:1018C000E0E70168CA6822F02002CA6090F8391087
:1018D000322910D00168CA6822F48072CA60016897
:1018E0004A6922F001024A61012180F83910FFF7AC
:1018F00097FC002010BD1221F7E700002DE9F04110
:10190000044600680169E26821F440511143016115
:10191000A16820690143606901432068C26841F2FF
:101920000C639A430A43C26020684169A26921F4AA
:101930004071114341614C49206864263227884236
:101940003CD1FEF7FDFF00EBC00101EB0010616828
:101950008900B0FBF1F5FEF7F3FF00EBC00101EBEE
:1019600000106168B8468900B0FBF1F0B0FBF6F0FA
:101970006FF01801484305EB800107EB0110B0FB45
:10198000F6F000F0F005FEF7DBFF00EBC00101EB25
:10199000001061688900B0FBF1F0B0FBF6F005EBD8
:1019A0000015FEF7CDFF00EBC00101EB00106168F0
:1019B0008900B0FBF1F7FEF7C3FF3BE0FEF7A8FF9D
:1019C00000EBC00101EB001061688900B0FBF1F58C
:1019D000FEF79EFF00EBC00101EB00106168B84606
:1019E0008900B0FBF1F0B0FBF6F06FF0180148434E
:1019F00005EB800107EB0110B0FBF6F000F0F005FD
:101A0000FEF786FF00EBC00101EB00106168890062
:101A1000B0FBF1F0B0FBF6F005EB0015FEF778FF38
:101A200000EBC00101EB001061688900B0FBF1F729
:101A3000FEF76EFF00EBC00101EB0010616889004A
:101A4000B0FBF1F0B0FBF6F06FF01801484307EB84
:101A5000800108EB0110B0FBF6F0216800F00F00E8
:101A600028448860BDE8F0810038014090F83910C2
:101A7000122903D0322901D0022070478168B1F5C4
:101A8000805F016A0BD04A1C0262026809785160CB
:101A9000C18C491E0904090CC1840ED017E00988C5
:101AA0000268C1F30801516001690029016A02D08E
:101AB000491C0162ECE7891CFBE70168CA6822F057
:101AC0008002CA600068C16841F04001C160002026
:101AD00070470000154830B400680068C0438006B5
:101AE0001BD413480068134AC1B25068030414D4CD
:101AF00044044FF0000304D50A290DD140F40040FE
:101B000011E00D290DD0094DC0F30D04C83D401C56
:101B100029555060C72800D9536030BC0348FFF7EF
:101B200049BA40F480405060F7E70000E40000202C
:101B30000438014010000020FEE77047002242F602
:101B40009A1304E00021491C9942FCD3521C8242A2
:101B5000F8D3704704490A685206FCD5024AC1B25C
:101B6000121D11607047000000380140FEF7A8FD0B
:101B70004FF4E130FFF752FEFFF7CAFDFFF7E4FC38
:101B8000FFF752FBFCE7000000000000000001022C
:101B90000304060708090000000001020304000016
:101BA000C01B0008000000201C0000006C010008A1
:101BB000DC1B00081C0000206C07000088010008E6
:101BC0000000F4010090D0030000000000000000BD
:0C1BD00000000000000000000000000009
:0400000508000131BD
:00000001FF
