:020000040800F2
:1000000008080020D5010008231D00081519000864
:10001000211D0008AD07000885220008000000002F
:10002000000000000000000000000000C11E0008E9
:10003000AF07000800000000451D0008C31E0008AF
:10004000EF010008EF010008EF010008EF010008D0
:10005000EF010008EF010008EF010008EF010008C0
:10006000EF010008EF010008EF010008EF010008B0
:10007000EF010008EF010008EF010008EF010008A0
:10008000EF010008EF010008EF010008EF01000890
:10009000EF010008EF010008EF010008EF01000880
:1000A000EF010008EF010008EF010008EF01000870
:1000B000EF010008EF010008EF010008EF01000860
:1000C000EF010008EF010008EF010008EF01000850
:1000D000EF01000821220008EF010008EF010008ED
:1000E000EF010008EF010008EF010008EF01000830
:1000F000EF010008EF010008EF010008EF01000820
:10010000EF010008EF010008EF010008EF0100080F
:10011000EF010008EF010008EF010008EF010008FF
:10012000EF010008EF010008EF010008EF010008EF
:1001300000F002F800F03FF80AA090E8000C8244BA
:100140008344AAF10107DA4501D100F034F8AFF297
:10015000090EBAE80F0013F0010F18BFFB1A43F0A5
:1001600001031847F465000014660000103A24BF2C
:1001700078C878C1FAD8520724BF30C830C144BF0C
:1001800004680C607047000000230024002500264E
:10019000103A28BF78C1FBD8520728BF30C148BFEA
:1001A0000B607047642900F06780002070471FB51E
:1001B0001FBD10B510BD00F0CBFA1146FFF7F7FFD9
:1001C00003F060FB00F0E9FA03B4FFF7F2FF03BCB1
:1001D00002F0DDF80948804709480047FEE7FEE7DE
:1001E000FEE7FEE7FEE7FEE7FEE7FEE7FEE7FEE7E7
:1001F00004480549054A064B70470000191F0008CE
:10020000310100080802002008080020080400202E
:1002100008040020704710B54C1084EA530404D53C
:100220004042C1F1000138BF491E1B4204D5524271
:10023000C3F1000338BF5B1E00F02EF914F0804FAD
:1002400004D04042C1F1000138BF491E14F0004FF4
:1002500004D05242C3F1000338BF5B1E10BD000042
:100260000FB4044910B503AA029800F0F1F910BCCC
:100270005DF814FB500000202DE9F04106460024F3
:1002800010687529314616A510D0AFF300800028FC
:1002900002DA404213A507E031688A0701D512A5AA
:1002A00002E0490704D511A5012401E0AFF3008065
:1002B00000210A2206F1240709E0B0FBF2FCB0FBA2
:1002C000F2F302FB1C00303078541846491C002819
:1002D000F3D123462A463046BDE8F04100F05EB92E
:1002E000000000002D0000002B0000002000000096
:1002F0002DE9F05F894604464FF0000ADFF824B18B
:10030000FB44C0F820A02046E168884700287DD043
:10031000252806D0D4E901219047206A401C20629C
:10032000F1E700255F462046E16888472028064619
:1003300007DB312E05D2B81910F8200C08B105439F
:10034000F1E7A80701D525F00405C4F81CA0002793
:10035000C4F818A02A2E09D0304602F011F838B39C
:1003600004EB8708303EC8F8186019E059F8041B00
:10037000204604EB87029161E1688847012F064619
:1003800018D1E069002820DA25F020051DE0D8F812
:10039000180000EB800006EB40003038C8F8180069
:1003A0002046E1688847064601F0EAFF0028EED1C2
:1003B000012F0AD02E2E08D12046E16888477F1CE5
:1003C0000646022F45F02005C4DBA069002803DAA9
:1003D000404245F00105A061E80701D025F0100575
:1003E000A6B1A6F14100192802D8203645F40065CF
:1003F0004A463146204625604D46FFF7D3FE60B1A0
:10040000012807D0ED1D25F0070000E007E000F10E
:10041000080978E705F1040975E730467AE7206AAC
:10042000BDE8F09F4E63000040EA010310B59B0752
:100430000FD1042A0DD310C808C9121F9C42F8D04E
:1004400020BA19BA884201D9012010BD4FF0FF30FF
:1004500010BD1AB1D30703D0521C07E0002010BD15
:1004600010F8013B11F8014B1B1B07D110F8013BA1
:1004700011F8014B1B1B01D1921EF1D1184610BD82
:1004800002F0FF0343EA032242EA024200F0F4B81A
:10049000704770477047704753EA020C00F069805C
:1004A0002DE9F04B4FF00006002B1FBFB3FA83F588
:1004B00003FA05F424FA05F65E4012BF1643B2FAB9
:1004C00082F502FA05F4C5F120051EBF22FA05FCEB
:1004D00044EA0C04203556EA044C4FEA144418BF91
:1004E000641C4FF000084FF00009904271EB030CC0
:1004F00039D3002919BFB1FA81F701FA07F6B0FA2A
:1005000080F700FA07F6C7F120071EBF20FA07FCA4
:1005100046EA0C062037B6FBF4FCA7EB0507103FB4
:1005200007F01F0BCBF120060CFA0BFB2CFA06F69A
:1005300044BFB3460026202FA4BF5E464FF0000BF9
:100540005BEA060C08BF4FF0010B19EB0B09ABFB84
:10055000027C48EB0608C01B06FB02CC0BFB03CC5D
:1005600071EB0C01C1E70B46024641464846BDE827
:10057000F08B13B54FF000004FF00001AFF3008097
:10058000BDE81C40704710B500F096F8006810BD3B
:1005900010B5044600F090F8046010BD2DE9F04756
:1005A0000D4699469246044600F1240801688806E3
:1005B00004D5E06921F01001216000E00120A8428B
:1005C00001DD471B00E00027A1697A1902EB090051
:1005D000081AA0612078C00602D42046AFF300803C
:1005E000002608E0D4E901211AF806009047206AA5
:1005F000401C761C20624E45F4DB2078C0060AD5EC
:100600002046AFF3008006E0D4E901213020904776
:10061000206A401C2062381EA7F10107F4DC07E0C5
:10062000D4E9012118F805009047206A401C206297
:10063000281EA5F10105F3DC2046AFF300802078E9
:10064000000602D50220BDE8F0870120FBE700008C
:10065000074B70B50D467B4400F037F8044628463A
:1006600000F046F810B14FF0FF3070BD204670BD6D
:10067000132D00004FF000020429C0F0128010F08A
:10068000030C00F03B80CCF1040CBCF1020F18BF4E
:1006900000F8012BA8BF20F8022BA1EB0C0100F001
:1006A0002DB85FEAC17C24BF00F8012B00F8012BB4
:1006B00048BF00F8012B704700487047A801002090
:1006C00001694A1C02610878704700B58FB0CDE916
:1006D00001310021059105497944CDE90310114606
:1006E0006846FFF705FE0FB000BD0000E5FFFFFF05
:1006F000007B00F0800070474FF0000200B5134609
:1007000094469646203922BFA0E80C50A0E80C5031
:10071000B1F12001BFF4F7AF090728BFA0E80C50E2
:1007200048BF0CC05DF804EB890028BF40F8042BDB
:1007300008BF704748BF20F8022B11F0804F18BF48
:1007400000F8012B7047000000487047A801002006
:100750007546FFF7F9FFAE4605006946534620F09F
:100760000700854618B020B5FFF742FDBDE82040E0
:100770004FF000064FF000074FF000084FF0000B5D
:1007800021F00701AC46ACE8C009ACE8C009ACE810
:10079000C009ACE8C0098D46704710B50446AFF3F8
:1007A00000802046BDE81040FFF70EBDFEE7704711
:1007B00031B500F005F9044600F002F90099001B7C
:1007C0008842F9D338BD00002DE9F84FDFF8BC911D
:1007D000002309F1040A0AF1040B1C464FF00F082C
:1007E0000BF1040E01270A68A7403A40BA4272D1C1
:1007F000DFF89CC14D68A5EB0C0665452BD00DDCE0
:10080000032D34D005DC35B3012D19D0022D2FD1A5
:100810001BE0112D16D0122D2AD119E0B6F5881F34
:1008200019D006DCB6F5803F15D0B6F5801F1FD174
:1008300011E0B6F5001F0ED0B6F5041F18D10AE07E
:10084000CB6815E0CB681B1D12E0CB6808330FE0C6
:10085000CB680C330CE08B682BB1012B4FF00803F5
:1008600003D0476104E0042302E0076100E00023B5
:10087000FF2A01D8064601E000F104064FEA84058C
:1008800001D9A5F12005376808FA05FC27EA0C070D
:1008900003FA05F547EA050737604D68ED006ED5A8
:1008A0003C4DAE6946F00106AE61AD6924F0030629
:1008B00005F001050095384D7719BE68A5072D0F85
:1008C00008FA05FC26EA0C06DFF8D0C0604503D123
:1008D0004FF0000C25E052E0DFF8C4C0604502D1C3
:1008E0004FF0010C1DE0DFF8BCC0604502D14FF0B5
:1008F000020C16E0DFF8B0C0604502D14FF0030CE7
:100900000FE0DFF8A8C0604502D14FF0040C08E00A
:10091000DFF89CC0604502D14FF0050C01E04FF0BC
:10092000060C0CFA05FC4CEA060CC7F808C04D682A
:10093000D9F80060ED034D4601D5164300E096431B
:100940002E604D68DAF80060AD03554601D51643B8
:1009500000E096432E604D68DBF80060ED025D46D6
:1009600001D5164300E096432E604D68DEF8006026
:10097000AD02754601D5164300E096432E60641C17
:10098000102CFFF42FAFBDE8F88F000000040140E9
:10099000000011100010024000000140000801405A
:1009A000000C0140001001400014014000180140FB
:1009B000001C01400AB1016170470904FBE7000017
:1009C00001480068704700000800002070B504006E
:1009D00004D094F83500002510B106E0012070BD68
:1009E00084F83450204600F0C5F9242084F83500FE
:1009F0002068016821F00101016000F00DFB294928
:100A00002268B0FBF1F15160274A6368934206D92E
:100A10004FF4967359434FF47A73B1FBF3F12368A3
:100A2000491C19626168914208D84900B0FBF1F095
:100A3000C0F30B01042916D2042014E0A26852B1BD
:100A400001EBC10202EB0111B0FBF1F040F44040B8
:100A5000010507D007E001EB4101B0FBF1F040F4E4
:100A60000040F5E701202168C861D4E90701084387
:100A700021680860D4E90310084321688860D4E93C
:100A8000050108432168C8602068016841F0010140
:100A90000160A563202084F8350084F836500020DA
:100AA00070BD000040420F00A08601002DE9F84F04
:100AB0000446DDE90A6590F83500DDF83090984687
:100AC00092468B46202874D1002E6FD0002D6DD019
:100AD00042F2107301226749204600F0EFFF002820
:100AE000F1D194F83400012863D0012084F8340057
:100AF0002068016821F400610160222084F835003B
:100B0000402084F836000027A763434652465946E2
:100B10002046CDF8009000F013FF28B1A06B84F8B8
:100B20003470042842D06EE0012D1BD02068022DC5
:100B3000016825D041F480610160206841698069C5
:100B40000090DFF83481032D70D8012D26D0022DBE
:100B50004B464FF000024146204630D000F0AEFF39
:100B600040BB3DE02068016821F48061016072B6FD
:100B70002068416981690091016841F400710AE0CF
:100B800041F40061016072B6206841698169009199
:100B9000016821F48061016062B6D2E749462046CF
:100BA00001F013F838B1A06B20282CD00120BDE84B
:100BB000F88F5DE027E02068006930704FE000F0BA
:100BC0007DFF00BB72B62068016841F400710160CE
:100BD00020680069307062B62068006970703EE07D
:100BE0002068016821F48061016072B620680069A4
:100BF00006F8010B6D1EADB24B4600224146204661
:100C000000F05CFF08B10320D1E72068016841F4DF
:100C1000007101602068006906F8010B62B6206867
:100C2000006906F8010BAD1E15E0FFE749462046B6
:100C300000F0CBFF0028B6D12068006906F8010B50
:100C400020686D1EADB24169C943490704D40069EB
:100C500006F8010B6D1EADB2002D7FF474AF20209D
:100C600084F8350084F8367084F8347000209EE7EC
:100C700002209CE702001000040001002DE9F84F5B
:100C80000446DDE90A6590F83500DDF830809946C4
:100C900092468B46202868D1002E64D0002D62D069
:100CA00042F2107301223249204600F007FFE8BBF0
:100CB00094F83400012858D0012084F834002068CA
:100CC000016821F400610160212084F83500402092
:100CD00084F836000027A7634B4652465946204603
:100CE000CDF8008000F09EFE28B1A06B84F834702F
:100CF000042838D007E04146204600F099FF28B18B
:100D0000A06B04282AD00320BDE8F88F216816F8CC
:100D1000010B086120686D1EADB24169C9434907E6
:100D200007D445B116F8011B016100E01DE06D1EFE
:100D3000ADB2002DDFD14146204600F079FF0028FA
:100D4000DED154F8350B016841F4007101602020B8
:100D500004F81E09E77767770020D5E72068016867
:100D600041F4007101600120CEE70220CCE70000D1
:100D70000200100000B500680C4985B0884212D10D
:100D8000C02000901220019003200390694608487B
:100D9000FFF71AFD0748C16941F40011C161C0693C
:100DA00000F40010049005B000BD000000540040A5
:100DB000000C01400010024002480168491C01601B
:100DC0007047000008000020074810B5016841F096
:100DD00010010160032000F047F80F2000F006F832
:100DE00000F015F8002010BD0020024010B50446A8
:100DF00000F00CF94FF47A71B0FBF1F000F03DFC1B
:100E000000222146501E00F00FF8002010BD704750
:100E100000F01F02012191404009800000F1E02014
:100E2000C0F8001170470000F0B40E4B1B68C3F30C
:100E30000223C3F10704042C00D904241D1D072D2F
:100E400001D2002300E0DB1E012606FA04F56D1E28
:100E50000D409D409E40761E164045EA0601F0BCBE
:100E600000F060BF0CED00E0064A00F007011068DA
:100E70004FF6FF03184040EA012003490843106081
:100E8000704700000CED00E00000FA052DE9F04786
:100E9000DFF8688104460E46D8F8000000F007002D
:100EA000B0420CD2D8F8001021F007013143C8F845
:100EB0000010D8F8000000F00700B04273D120788D
:100EC0004F4F800705D57868A16820F0F0000843EF
:100ED00078602078C00755D06068012201280CD0C6
:100EE000022828D0022393FAA3F1B1FA81F141F04C
:100EF0002001490904D0396803E04FF40033F2E7D8
:100F0000796A93FAA3F3B3FA83F303F01F039A40C9
:100F1000114248D0796821F0030101437960FFF75D
:100F20004FFD0546606841F2883101280CD0022847
:100F3000894615D022E04FF00073D4E7FFF740FD5B
:100F4000411B494501D916E089467868C0F3810004
:100F50000128F3D116E0FFF733FD411B49450AD8BC
:100F60007868C0F381000228F5D10BE0FFF728FD77
:100F7000411B494502D90320BDE8F087786810F08D
:100F80000C0FF3D1D8F80010404601F00701B14230
:100F90000BD9016821F0070131430160006800F0BE
:100FA0000700B04201D00120E6E72078400705D5D0
:100FB0007868E16820F4E0600843786020780007F2
:100FC00006D57868216920F4605040EAC100786055
:100FD00000F052F87968F02292FAA2F201F0F001E2
:100FE000B2FA82F2D140074A515CC8400649086013
:100FF0000F20FFF7FBFE0020BEE7000000200240AC
:1010000000100240F259000800000020014800686A
:10101000704700000000002008480949006849683E
:101020004FF4E06292FAA2F201F4E061B2FA82F2C5
:10103000D140044A515CC8407047000000000020C5
:1010400000100240025A000808480949006849682F
:101050004FF4605292FAA2F201F46051B2FA82F2B5
:10106000D140044A515CC840704700000000002095
:1010700000100240025A000810B519A085B00FC830
:101080008DE80F001AA01B4B0068049059681A489D
:1010900001F00C02042A1DD0082A1BD14FF4701451
:1010A00094FAA4F401F47012B4FA84F4E240C9038F
:1010B0001DF8022010D559684FF4003393FAA3F3BA
:1010C00001F40031B3FA83F3D94004AB595CB0FBAF
:1010D000F1F0504305B010BD08485043FAE7000056
:1010E00002030405060708090A0B0C0D0E0F101069
:1010F000010200000010024000127A0000093D00C9
:101100002DE9F84F04460078FE4EC0074FF0010568
:101110007FD070684FF40038C0F38100012807D0F9
:101120007068C0F3810002281BD17068C00318D515
:1011300098FAA8F0B0FA80F040F02000400901D001
:10114000306800E0706A98FAA8F1B1FA81F101F014
:101150001F0105FA01F108425BD06068002879D0D0
:1011600057E06068B0F5803F0BD010B1B0F5A02F0C
:1011700011D0306820F480303060306820F4802056
:1011800002E0306840F480303060606818B3FFF7E8
:1011900017FC074609E0306840F480203060F0E733
:1011A000FFF70EFCC01B642870D898FAA8F0B0FABC
:1011B00080F040F02000400901D0306800E0706A03
:1011C00098FAA8F1B1FA81F101F01F0105FA01F1D5
:1011D0000842E5D01DE0FFF7F3FB074604E0FFF708
:1011E000EFFBC01B6428DFD898FAA8F0B0FA80F0B3
:1011F00040F02000400901D0306800E0706A98FAA1
:10120000A8F1B1FA81F101F01F0105FA01F10842DC
:10121000E5D12078DFF8F08280074FF0000A4FF028
:1012200002075AD570684FF0F80B10F00C0F07D07A
:101230007068C0F3810002281CD17068C00319D403
:1012400097FAA7F0B0FA80F040F02000400902D0F1
:10125000306801E08AE0706A97FAA7F1B1FA81F18B
:1012600001F01F0105FA01F108422BD02069012885
:101270007CD127E0206988B395FAA5F0B0FA80F018
:1012800048F82050FFF79CFB814606E04DE1FFF750
:1012900097FBA0EB0900022886D897FAA7F0B0FACE
:1012A00080F040F02000400901D0306800E0706A12
:1012B00097FAA7F1B1FA81F101F01F0105FA01F1E6
:1012C0000842E4D030689BFAABF220F0F801606984
:1012D000B2FA82F290400143316025E0FFE795FACF
:1012E000A5F1B1FA81F148F821A0FFF769FB814629
:1012F00005E0FFF765FBA0EB09000228CCD897FAC0
:10130000A7F0B0FA80F040F02000400901D030682A
:1013100000E0706A97FAA7F1B1FA81F101F01F01BC
:1013200005FA01F10842E4D1207800076DD5A069E3
:10133000B8B395FAA5F0B0FA80F008EB8000C0F8D9
:101340008054FFF73DFB814605E0FFF739FBA0EB3A
:1013500009000228A0D897FAA7F0B0FA80F040F070
:101360006000B5EB501F02D130680CE063E197FAE2
:10137000A7F0B0FA80F040F06000B7EB501F01D149
:10138000306A00E0706A97FAA7F1B1FA81F101F0D2
:101390001F0105FA01F21042D7D00120FFF708FA29
:1013A00033E0FFE795FAA5F1B1FA81F108EB81018D
:1013B000C1F880A4FFF704FB814605E0FFF700FBBE
:1013C000A0EB0900022899D897FAA7F0B0FA80F0AC
:1013D00040F06000B5EB501F01D130680BE097FA88
:1013E000A7F0B0FA80F040F06000B7EB501F01D1D9
:1013F000306A00E0706A97FAA7F1B1FA81F101F062
:101400001F0105FA01F21042D8D12078400763D5B8
:10141000F06940F08050F061F069DFF8F0B000F062
:1014200080500090DBF8001041F48071CBF8001080
:10143000FFF7C6FA814605E0FFF7C2FAA0EB090004
:10144000642872D8DBF80000C005F5D5E0680128F3
:101450000AD008B1052813D0306A20F001003062AC
:10146000306A20F0040002E0306A40F0010030628F
:10147000E06841F2883B80B3FFF7A2FA81460AE0B8
:10148000306A40F004003062EEE7FFF799FAA0EB13
:101490000901594549D897FAA7F0B0FA80F040F011
:1014A0004000B5EB501F01D130680BE097FAA7F070
:1014B000B0FA80F040F04000B7EB501F01D1306A25
:1014C00000E0706A97FAA7F1B1FA81F101F01F020A
:1014D00005FA02F10842D8D033E0FFE7FFF770FACF
:1014E000814605E0FFF76CFAA0EB090159451CD8CD
:1014F00097FAA7F0B0FA80F040F04000B5EB501F2B
:1015000008D105E000100240000042420070004097
:1015100030680CE097FAA7F0B0FA80F040F0400095
:10152000B7EB501F02D1306A01E08AE0706A97FA87
:10153000A7F1B1FA81F101F01F0205FA02F10842A8
:10154000D0D1E06998B37168C1F38101022972D0EA
:1015500002284FF080714FF0007B50460AD091FA7C
:10156000A1F1B1FA81F148F82100FFF729FA044608
:101570005F4669E08A4691FAA1F1B1FA81F1C1466C
:1015800048F82100FFF71CFAA84607465D4604E02C
:10159000FFF716FAC01B022853D895FAA5F0B0FA47
:1015A00080F040F02000400902D0306801E060E0A7
:1015B000706A95FAA5F1B1FA81F101F01F0208FAFB
:1015C00002F10842E4D1206AB0F5803F05D170688D
:1015D000A16820F4003008437060D4E90801084392
:1015E000716821F47411084370609AFAAAF0B0FA95
:1015F00080F0474649F82080FFF7E2F9044604E00E
:10160000FFF7DEF9001B02281BD895FAA5F0B0FA07
:1016100080F040F02000400901D0306800E0706A9E
:1016200095FAA5F1B1FA81F101F01F0107FA01F174
:101630000842E5D01DE01EE0FFF7C2F9001B0228BA
:1016400002D90320BDE8F88F97FAA7F0B0FA80F02E
:1016500040F02000400901D0306800E0706A97FA3D
:10166000A7F1B1FA81F101F01F0105FA01F1084279
:10167000E2D10020E6E70120E4E710B5401EB0F11A
:10168000807F01D3012010BD4FF0E02460610F2165
:10169000601700F047FB0020A061072020610020B8
:1016A00010BD704738B5044600680168C268C1F3D0
:1016B000000102F4807221B11AB1E16B41F0010125
:1016C000E1630168C1F34002416901F0010122B107
:1016D00019B1E26B42F00402E2630268C2F38002D5
:1016E00022B119B1E26B42F00202E2630268C2F376
:1016F000C00222B119B1E16B41F00801E163016858
:10170000C068C1F3401100F0200019B110B12046AB
:1017100000F046FC20680168C068C1F3C01100F009
:10172000800019B110B1204600F046FD216808681C
:10173000CA68C0F3801002F04002012568B162B1AE
:10174000CA68204622F04002CA6094F83910322953
:1017500010D080F8395000F0DCF8E06B002808D099
:10176000206801684068009084F839502046FFF7EF
:1017700098FF38BD222180F83910ECE770B50400DD
:1017800004D094F83900002510B106E0012070BDA6
:1017900084F83850204600F021F8022084F83900FF
:1017A0002068C16821F40051C160204600F04CFC63
:1017B0002068016921F4904101612068416921F0AC
:1017C0002A0141612068C16841F40051C160E563AC
:1017D000012084F83900002070BD0000F0B50068D9
:1017E0002D4F00252D490222012303262C4C85B0C4
:1017F000B8422FD1886940F004008861886900F000
:1018000004000490886940F480408861886900F48D
:1018100080400490886940F001008861886900F088
:101820000100049048158DE84D0069462046FEF7FA
:10183000CBFF2115CDE9001569462046FEF7C4FF10
:101840002520FFF7E5FA032211462520FFF7ECFAE1
:1018500005B0F0BD134FB842FAD1886940F00400DA
:101860008861886900F004000490C86940F4003081
:10187000C861C869694600F40030049004208DE80E
:101880004D002046FEF7A0FF0821CDE9001569466E
:101890002046FEF799FFDBE70038014000100240C8
:1018A000000801400044004090F83930012B01D07D
:1018B000122B2BD131B32AB390F83830012B25D01D
:1018C000012380F8383081628285C2850021C1639E
:1018D00090F83920122A17D0222280F8392080F877
:1018E00038100168CA6842F48072CA6001684A69A7
:1018F00042F001024A610068C16841F02001C16004
:1019000000207047012070473222E6E7022070472E
:1019100070477047FEE701684A69D24352050DD40B
:101920004A6922F480624A6104218163202180F89F
:101930003510002180F834100120704700207047D6
:101940002DE9F84F044600680F46DDF828B001681D
:101950009846164641F4806101602068016841F4B0
:10196000807101604FF001195B4600224946204614
:1019700000F0A4F8F0BB216807F0FE00086109F14F
:10198000010A5A465146204600F0DDF818B1A06B16
:10199000042811D036E020684169806900905946DA
:1019A000204600F045F950B1A06B04282AD12068E8
:1019B000016841F4007101600120BDE8F88FF5B2C3
:1019C000B8F1010F08D02168300A08615946204655
:1019D00000F02EF90028E7D120680561594620461D
:1019E00000F026F90028DFD12068016841F48071F9
:1019F000016000E006E05B4600224946204600F018
:101A00005DF808B10320D8E72168F8B240F0010082
:101A100008615A465146204600F095F80028B6D194
:101A2000CBE700002DE9F843044600680D46DDF8D9
:101A3000208001681F46164641F4807101604346CC
:101A400000224FF00111204600F038F8D8B9216883
:101A500005F0FE00086142461749204600F073F881
:101A600028B1A06B04280ED10120BDE8F8832068BE
:101A70004169806900904146204600F0D9F820B1C4
:101A8000A06B042811D00320EFE7F5B2012F08D096
:101A90002168300A08614146204600F0C9F8002854
:101AA000EED1206805610020DFE72068016841F47D
:101AB00000710160D8E70000020001002DE9F04745
:101AC0001C4690460E460546FEF77AFF07465FEA3B
:101AD00008004FF000094FF0200AC6F3074808D06D
:101AE00023E0601C05D0CCB1FEF76AFFC01BA0420A
:101AF00014D82868B8F1010F06D0806926EA0000E2
:101B00000004000C1BD0ECE74069F7E7601C0CD028
:101B100024B1FEF755FFC01BA04206D985F835A0B9
:101B200085F834900320BDE8F0872868B8F1010FEC
:101B300007D0806926EA00000004000CE6D00020EF
:101B4000F1E74069F6E72DE9F04715460E460446F1
:101B5000FEF736FF07464FF0000A4FF02009C6F3A4
:101B6000074825E020684069C043400512D420683A
:101B7000016841F4007101602068416921F48061CD
:101B800041610420A06384F8359084F834A00120DA
:101B9000BDE8F087681C0BD025B1FEF711FFC01B14
:101BA000A84205D984F8359084F834A00320EFE7E3
:101BB0002068B8F1010F06D0806926EA0000000411
:101BC000000CE5D0CEE74069F7E72DE9F0410D467E
:101BD0000446FEF7F5FE064600274FF0200820E0F9
:101BE0004169C943C9060BD4416921F01001416123
:101BF000A76384F8358084F834700120BDE8F08153
:101C000025B1FEF7DDFE801BA8420AD954F8380F33
:101C100040F0200044F8040984F801802770032074
:101C2000ECE720684169C9434906D9D40020E5E7BB
:101C300070B50D460446FEF7C3FE064619E0204681
:101C4000FFF769FE08B1012070BD681C11D025B1F5
:101C5000FEF7B6FE801BA8420BD954F8380F40F0AF
:101C6000200044F804092020607000202070032028
:101C700070BD20684069C0430006E0D4002070BDFC
:101C80000F4808B5816941F00801816180690D49FB
:101C900000F0080000900C484FF4804201600B49AE
:101CA000416000218160C0E9031241618161C1612D
:101CB0000162FEF78BFE002800D0FEE708BD0000A1
:101CC000001002400054004054000020400D03006A
:101CD0000EB50A20CDE9003202900A460123D02138
:101CE0000348FEF7E3FE0349087000200EBD000024
:101CF000540000200C0000200EB50A20CDE900326F
:101D000002900A460123D0210348FEF7B7FF03499A
:101D1000087000200EBD0000540000200C000020C0
:101D2000FEE770470907090E002806DA00F00F00E9
:101D300000F1E02080F8141D704700F1E02080F8E9
:101D400000147047704700002DE9F041404C414DB0
:101D5000DFF80481207886B04FF40046E0B1608857
:101D6000401C80B26080B0F5FA7F12D300276780F4
:101D70006078E8B3012857D002280AD10022314602
:101D80004046FEF717FE012218212846FEF712FEF4
:101D9000677006B0BDE8F081304A0120207091697B
:101DA00041F001019161916901F0010104912C4917
:101DB0004B6823F0E06343F000734B60916941F09E
:101DC00008019161916901F008010491916941F064
:101DD0000401916191690190029048F2180401F0A8
:101DE000040103200094CDE903016946284600E080
:101DF00012E0FEF7E9FC6946474640460096FEF7CA
:101E0000E3FC012221462846FEF7D4FD012231469B
:101E10003846FEF7CFFDBCE7002210212846FEF72A
:101E2000C9FD0122082107E0002208212846FEF70B
:101E3000C1FD012248F210012846FEF7BBFD012238
:101E400031464046FEF7B6FD6078401C6070A0E762
:101E500004000020000C0140000801400010024076
:101E600000000140044B4FF4807108B1012200E0F2
:101E700000221846FEF79EBD0008014030B50E480E
:101E800085B0816941F00401816180694FF48074FB
:101E900000F0040004900120CDE900400220074D2D
:101EA000039069462846FEF78FFC0022214628460B
:101EB000FEF780FD05B030BD001002400008014073
:101EC000704710B5FFF740FFBDE81040FEF774BF44
:101ED00030B58FB0022401200490009410200590AA
:101EE00000254FF46010CDE9085007946846FFF7CD
:101EF00007F900B1FEE70AA90F2081E831004FF48D
:101F00008060CDE90D0502210AA8FEF7BFFF002879
:101F100000D0FEE70FB030BD0F4810B5016841F0AA
:101F20000101016041680D4A1140416001680C4A9D
:101F300011400160016821F480210160416821F4B1
:101F4000FE0141604FF41F018160FFF7C1FF0549A9
:101F50004FF00060086010BD001002400000FFF864
:101F6000FFFFF6FE08ED00E00B4910B5094AC1E994
:101F7000002000208860C860086188610C204861EA
:101F80000846FFF7FBFBBDE8104001220349024869
:101F9000FFF78ABC0038014068010020480000209B
:101FA00010B590F83910222903D0322901D002202F
:101FB00010BD8168B1F5805F11D001690029016809
:101FC0001FD0496801F07F03816A4A1C82620B704E
:101FD000C18D491E0904090CC18518D02FE0026982
:101FE000816A002A0268526805D0D2B20A80816AEA
:101FF000491C8162ECE7C2F308020A80816A891CED
:10200000F7E74A68816A4B1C83620A70E0E701685F
:10201000CA6822F02002CA6090F83910322910D024
:102020000168CA6822F48072CA6001684A6922F0B5
:1020300001024A61012180F83910FFF769FC002094
:1020400010BD1221F7E700002DE9F04104460068B9
:102050000169E26821F4405111430161A1682069DE
:102060000143606901432068C26841F20C639A43EE
:102070000A43C26020684169A26921F4407111439A
:1020800041614C4920686426322788423CD1FEF7E2
:10209000DBFF00EBC00101EB001061688900B0FBC1
:1020A000F1F5FEF7D1FF00EBC00101EB0010616814
:1020B000B8468900B0FBF1F0B0FBF6F06FF0180104
:1020C000484305EB800107EB0110B0FBF6F000F090
:1020D000F005FEF7B9FF00EBC00101EB00106168ED
:1020E0008900B0FBF1F0B0FBF6F005EB0015FEF750
:1020F000ABFF00EBC00101EB001061688900B0FB91
:10210000F1F7FEF7A1FF3BE0FEF786FF00EBC00111
:1021100001EB001061688900B0FBF1F5FEF77CFF70
:1021200000EBC00101EB00106168B8468900B0FB0C
:10213000F1F0B0FBF6F06FF01801484305EB8001B9
:1021400007EB0110B0FBF6F000F0F005FEF764FFBE
:1021500000EBC00101EB001061688900B0FBF1F0F9
:10216000B0FBF6F005EB0015FEF756FF00EBC001E3
:1021700001EB001061688900B0FBF1F7FEF74CFF3E
:1021800000EBC00101EB001061688900B0FBF1F0C9
:10219000B0FBF6F06FF01801484307EB800108EB45
:1021A0000110B0FBF6F0216800F00F0028448860B1
:1021B000BDE8F0810038014090F83910122903D0B1
:1021C000322901D0022070478168B1F5805F016A31
:1021D0000BD04A1C0262026809785160C18C491E0A
:1021E0000904090CC1840ED017E009880268C1F304
:1021F0000801516001690029016A02D0491C01628D
:10220000ECE7891CFBE70168CA6822F08002CA601B
:102210000068C16841F04001C160002070470000C3
:10222000154830B400680068C04380061BD41348CA
:102230000068134AC1B25068030414D444044FF038
:10224000000304D50A290DD140F4004011E00D2906
:102250000DD0094DC0F30D04C83D401C29555060F8
:10226000C72800D9536030BC0348FFF71BBA40F4BD
:1022700080405060F7E7000068010020043801400A
:1022800048000020FEE7490050EAC12018BF0420A2
:102290004A0D18BF40F0010040F2FF72B2EB515FEF
:1022A00008BF40F00200012808BF052070472DE953
:1022B000F0414F1E00EBC7010446D1E9000115466D
:1022C0001E4637F006020DD02A46334602F01AFDAC
:1022D0007F1E04EBC703D3E9002302F00BFB37F0AA
:1022E0000602F1D1022F25D0042F13D0062F18BFDC
:1022F000BDE8F0812A46334602F004FDD4E90A2302
:1023000002F0F8FA2A46334602F0FCFCD4E908232E
:1023100002F0F0FA2A46334602F0F4FCD4E9062330
:1023200002F0E8FA2A46334602F0ECFCD4E9042332
:1023300002F0E0FA2A46334602F0E4FCD4E9022334
:1023400002F0D8FA2A46334602F0DCFCD4E9002336
:10235000BDE8F04102F0CEBA012203F0DEBA02F08D
:10236000C9BA002213461046114602F073BB0000A2
:10237000024A0020110703F0D0BA000001FDFFFF60
:1023800030380A2801D2012070470020704770477A
:102390002DE9FE4F80460F460025684600F0F2FF0B
:1023A00000246FF00F0AE946012658F8240057F878
:1023B0002410401A00D5404203F010F9514603F0B2
:1023C000DAFA59F8241011F0FF4F0BD003F008F897
:1023D0004FF07E5103F0FAF9094920F0004088429D
:1023E00005DC07E0074908440749884202D306FA9A
:1023F00004F00543641C032CD7DB2846BDE8FE8FA0
:10240000295C0F3E666666C19A99D9002DE9F04DA8
:102410008D4F21F0004A86B005460C46BA452ADBAE
:10242000AAEB070028430AD08848824501DC1AD16C
:10243000CDB106B02846BDE8F04DFFF78DBF844A08
:10244000844B284602F05EFC07460E46824A834BC8
:102450002846214602F056FC06B03A463346BDE80F
:10246000F04D02F047BA0120FEF792F806B0BDE841
:10247000F04DFFF776BF7A48824542DABAF1795FCC
:102480000BDA2846FFF7FFFE042808BFFFF770FFAE
:10249000284606B02146BDE8F08D2A460B46104678
:1024A00002F030FC834602466E480E460B4606217B
:1024B0007844FFF7FCFE5A46334602F023FC804680
:1024C00069488A465A46334604217844FFF7EFFEAE
:1024D0005A46334602F016FC00223B4602F00AFA46
:1024E00002460B464046514602F0B4FA2A462346BD
:1024F00002F008FC06B02A462346BDE8F04D02F083
:10250000F9B9284624F0004100223D463B4602F03E
:10251000F7FC4FF0FF3203F000FA0646024653483C
:102520000F460B4606217844FFF7C1FE32463B4674
:1025300002F0E8FBCDE900014D4832463B4604215C
:102540007844FFF7B4FE32463B4602F0DBFB002244
:102550002B4602F0CFF9834602913046394602F00D
:1025600071F9804643480D46504517DCDDE900010E
:102570005A46029B02F06EFA42462B4602F0C2FB1C
:1025800042462B4602F0B6F9012203F0C6F9304A62
:10259000304B02F0A7FD304A304B4CE04FF0000AC0
:1025A00052460B46404602F0A5F9CDE903105246CB
:1025B0002B461046194602F0A5FB32463B4602F078
:1025C0009FFCDDE9033202F045FA06460F46DDE9DD
:1025D00000015A46029B02F03DFA83460091012217
:1025E0003046394603F099F9194A1A4B02F088FC33
:1025F00006460F4601224046294603F08EF95A4608
:10260000009B02F07FFB32463B4602F06BFD064624
:102610000F4601225046294603F07FF90E4DDFF8A0
:1026200058802A46434602F06BFC32463B4602F095
:1026300067FC2A46434602F063FC002CD8BF81F0B9
:10264000004106B0BDE8F08D0000F03F0000F07FD3
:10265000075C143326A6913C182D4454FB21F93F06
:102660000000E03FB4410000CA4100003E410000CC
:10267000544100003333EF3FFB21E93F2DE9F84F90
:1026800004460D4621F0004000917349814211DC5F
:102690007249884201DC06D12CB120462946BDE8AA
:1026A000F84FFFF759BE6E48002DCCBF6D496E49FB
:1026B000BDE8F88F6D49814211DD6D498142D8BF77
:1026C0004FF0FF366DDD20462946FFF7DCFD04287C
:1026D00008BFFFF74DFE20462946BDE8F88F654943
:1026E000654F25F00045814233DD6449814219DDA3
:1026F000002632464FF080432046294602F0FAF881
:1027000080468A4601222046294603F006F9002227
:102710003B4602F0E7FC4246534602F09BF9044672
:102720000D463EE001260022BA463B462046294699
:1027300002F0E0F880460F46002253462046294624
:1027400002F0D0FC42463B4602F084F904460D46B6
:1027500027E04B4981421BDDDFF828A10226002239
:1027600053462046294602F0CDFA00223B4602F0AD
:10277000C1F880460F46002253462046294602F003
:10278000B1FC42463B4602F065F904460D4608E0BE
:10279000032622462B4600203B4902F05BF9044603
:1027A0000D4622462B461046194602F0ABFA8B46E0
:1027B000824602460B4602F0A5FA07460246334817
:1027C00088460B4606217844FFF771FD52465B466A
:1027D00002F098FA82462E488B463A464346052137
:1027E0007844FFF764FD3A46434602F08BFA02460E
:1027F0000B46002E504659460CDA02F07BF8224672
:102800002B4602F07FFA01B022462B46BDE8F04F7E
:1028100002F076BB02F06EF822462B4602F072FA06
:102820001C4A7A4402EBC603D3E9002302F05AFCA7
:1028300022462B4602F056FC174A7A4402EBC603A6
:10284000D3E9002302F05CFB009A002AB8BF81F0B4
:102850000041BDE8F88F0000000010440000F07F48
:10286000182D4454FB21F93FFB21F9BF0000DC3F48
:102870000000203E0000F33F0000F03F0000E63F74
:10288000008003400000F83F0000F0BF563F00000A
:10289000143F0000B23E00007A3E00002DE9F04DEA
:1028A0009446CCF1000423F000464CEA0404524F55
:1028B00046EAD4749A46884621F00042BC4206D8C3
:1028C000454240EA050442EAD474BC4204D9BDE85A
:1028D000F04D6246FFF743BDAAF14055A5F17F6573
:1028E00055EA0C040BD0022404EAAA74434DDFF825
:1028F00010E144EAD87452EA000B04D00CE0BDE8C1
:10290000F04DFFF7BBBE002C14BF012CBDE8F08DCD
:10291000022C30D0032C32D056EA0C0B0AD0BE4227
:1029200020D1BA4209D126F0804622F080423346B7
:10293000114617E000291ADB25E0DFF8C8B0FB4498
:10294000002C04BFDBE90001BDE8F08D012C02BFC3
:10295000DBE9000181F00041BDE8F08D022C0AD0D6
:10296000032C0CD0BA4212D1B8F1000F0BDA234875
:102970002549BDE8F08D28462449BDE8F08D28465C
:102980007146BDE8F08D1D482149BDE8F08D921BD0
:1029900012153C2AC4BF19481D490EDCBAF1000FBC
:1029A000BEBF12F13C0F0020014606DB624602F07A
:1029B00051F821F00041FFF761FE002C08BFBDE88F
:1029C000F08D012C04BF81F00041BDE8F08D114A6B
:1029D000114B022C07D002F085FB2A46BDE8F04DD2
:1029E0000A4B02F07FBB02F07DFB2A46BDE8F04DAA
:1029F000064B02F085BA00000000F07F182D445409
:102A0000FB2109C00E3E0000FB21F9BFFB2109405C
:102A1000FB21F93F075C143326A6A13C00224FF4AA
:102A2000C85304E00021491C9942FCD3521C824245
:102A3000F8D3704708B560B120208DF80000282039
:102A40008DF8010030208DF8020038208DF8030049
:102A500004E0A32204216846FDF712FD6A46042122
:102A600040F69E2001F05AFE01F01EFB08BD00005A
:102A70003EB5044602208DF80000CA208DF8010002
:102A8000E3208DF8020009208DF803006A46042136
:102A9000682001F043FEA3208DF80000610609D5EF
:102AA000C0218DF80110C8218DF80210C2218DF8C7
:102AB000031005E08DF801008DF802008DF8030089
:102AC00014F4C07F09D0C4218DF80410CC218DF8F6
:102AD0000510C6218DF8061005E08DF804008DF86C
:102AE00005008DF806008DF808008DF807008DF8B8
:102AF00009006A460A2140F6A72001F00FFEA00750
:102B00004FF0D80503D020208DF8000001E08DF8AB
:102B100000506A46012140F6B62001F0FFFDA006F4
:102B200001D5012000E0002000F090F814F4C07FEF
:102B30001ED0E0050AD5B2208DF800008B208DF85C
:102B40000100B6208DF802009B2009E0B0208DF82E
:102B5000000080208DF80100B4208DF80200902044
:102B60008DF803006A46042140F6A22001F0D6FD4C
:102B7000E0074FF40B6323D0F8208DF800006A467D
:102B80000121184601F0CAFDFA21072000F03AFBA6
:102B9000072000F005FB012000F022FB642000F07C
:102BA000C5FB4FF4FA7000F0D1FBC821254800F0B6
:102BB000BFFA282000F0D4FA0A2000F0E1FA06E07B
:102BC0008DF800506A460121184601F0A7FDA007C4
:102BD00003D5D9208DF8000001E08DF800506A4639
:102BE000012140F23D7001F099FD600701D50120FF
:102BF00000E0002000F046F8E00601D5012000E0EA
:102C00000020FFF717FF104D44F00800688101F025
:102C10004BFA0020A873600601D50620A87314F4AF
:102C2000C07F02D0A87B801DA87314F0140F02D0BF
:102C3000A87B1030A873A00702D0A87B001DA87342
:102C400000203EBD09E3CA02900000200EB54FF4FB
:102C5000976308B105A000E007A007C88DE807004A
:102C60006A460921184601F059FD0EBDB8AAB38D78
:102C7000B4980D355D000000B8AAAAAAB088C3C5F3
:102C8000C700000008B560B1C0208DF80000C22068
:102C90008DF80100C4208DF80200C6208DF80300D5
:102CA00004E08B2204216846FDF7EAFB6A46042112
:102CB00040F6982001F032FD01F0F6F908BD000061
:102CC000C8234FF48062024940F6F63001F0CCB8D8
:102CD0005C5A00082DE9FF4F89B01646DDE916520F
:102CE0000024DFF834810F4681462C80A24698F8F4
:102CF0000E00694601F066F94FF0FF3B18B15846E7
:102D00000DB0BDE8F08FB8F80A0010F0140F3CD0F9
:102D1000009909BA21F0FF0C9DF803104CEA010C50
:102D2000C6F800C0019909BA21F0FF039DF8071009
:102D30000B43736002999DF80B2009BA21F0FF0143
:102D40001143B160039A9DF80F4012BA22F0FF02BE
:102D50002243F2604FEA2C4609141B1412147643E6
:102D6000494303FB036302FB021119441024A1F140
:102D70007061B1F1007F04D901F096F9A5F800A0C7
:102D8000BDE7298841F48071298041066A460ED545
:102D90001119A41D0B885BBA3B804B885BBA7B8002
:102DA000898849BAB980298841F00801298010F43E
:102DB000C07F11D01119A41D0B885BBAA9F800308F
:102DC0004B885BBAA9F80230898849BAA9F804107F
:102DD000298841F070012980800718D01444E078D8
:102DE00000F0C00500F03F016078C00707D0C808B8
:102DF00001F00701D8F80020491C02B19047607823
:102E0000000704D5D8F8041009B1A80988470C9820
:102E100000F0A6FD002073E7900000202DE9FF419F
:102E2000044603A800F008FFBDF80C00420CC303E1
:102E30002F48018901F003004D0754F8200000D508
:102E40004042C1F3C1058E0654F8255000D56D42AD
:102E5000C1F38116C90554F8264000D56442A0FB91
:102E60000367C11701FB037100FB0210810041EAF7
:102E70009670A5FB0367E91701FB037105FB0211BF
:102E80008D0045EA9671A4FB0367E51705FB037304
:102E900004FB0232930043EA9672030E8DF8003071
:102EA000030C8DF80130030A8DF802308DF8030011
:102EB000080E8DF80400080C8DF80500080A8DF83E
:102EC0000600100E8DF80800100C8DF80900100A8D
:102ED0008DF80A008DF807108DF80B206A460C213A
:102EE0004FF4257001F01AFC04B0BDE8F081000039
:102EF0009000002030B5044613A185B007C98DE8C5
:102F000007004FF0FF35C82C16D8C820B0FBF4F1ED
:102F1000491E080A8DF80C008DF80D1003AA022135
:102F200040F2162001F0FAFB30B96A460C2140F657
:102F3000C12001F0F3FB10B1284605B030BD0548B3
:102F400084810020F9E70000FEF2ABC4AAF1DFDFC4
:102F5000BBAFDFDF90000020F8B53049098901F0F0
:102F6000030250F822404A0700D56442C1F3C1026F
:102F700050F822308A0600D55B42C1F3811250F826
:102F80002220C80500D55242254984FB0140850016
:102F900045EA947083FB014382FB0121950F45EACA
:102FA0008105010E8DF80010010C8DF80110010A49
:102FB0008DF80210A40F8DF8030044EA83046A46DA
:102FC00004214FF4747001F0A9FB4FF0FF3688B96B
:102FD000200E8DF80000200C8DF80100200A8DF8DD
:102FE00002008DF803406A4604214FF4757001F029
:102FF00095FB08B13046F8BD280E8DF80000280C6E
:103000008DF80100280A8DF802008DF803506A46F9
:1030100004214FF4767001F081FBF8BD9000002090
:1030200009E3CA022DE9FF4104463CA002AB006857
:1030300002903BA0006803903AA006683AA0056899
:1030400004F00300195C8DF80010C4F3C1015A5C50
:103050008DF80120C4F381129B5C8DF8023003AB24
:10306000185C8DF80400585C8DF80500985C8DF8AC
:1030700006006A46032140F2264001F04FFB4FF064
:10308000FF37E0BB01AA032140F22A4001F046FBD2
:10309000A8BBCDE9006560070BD59DF8000040F0A6
:1030A00001008DF800009DF8040040F001008DF84B
:1030B0000400A0060BD59DF8010040F001008DF83A
:1030C00001009DF8050040F001008DF80500E005C5
:1030D0000BD59DF8020040F001008DF802009DF82C
:1030E000060040F001008DF806006A4603214FF407
:1030F000886001F013FB10B901AA032100E004E08D
:1031000040F2314001F00AFB18B1384604B0BDE886
:10311000F081064804810020F8E700004CCD6C00E7
:103120000CC92C003656760026466600900000201A
:103130004FF47A7290FBF2F008B54843010E8DF817
:103140000010010C8DF80110010A8DF802108DF8A5
:1031500003006A4604214FF4AE7001F0DFFA08BDA7
:103160000521B0FBF1F008B5010A8DF800108DF8CB
:1031700001006A4602214FF4AD7001F0CFFA08BD9C
:103180000521B0FBF1F008B5010A8DF800108DF8AB
:1031900001006A4602214FF4AC7001F0BFFA08BD8D
:1031A00008B500218DF80010C10702D030218DF83C
:1031B0000010810705D59DF8001041F00C018DF835
:1031C0000010400705D59DF8000040F003008DF881
:1031D00000006A4601214FF4A47001F09FFA08BD77
:1031E00008B560B1042800D90420401E8DF8000005
:1031F0006A46012140F24F1001F090FA08BD01200B
:10320000F3E700002DE9FC41054640074FF0FF368B
:103210007CD0B1F5C86F79D8084602F0F7F93E497D
:1032200002F0DEF8074601A800F0E8FC9DF8040073
:10323000022806D004280DD008282ED0102865D1E9
:1032400034E00E21384602F096FB02F0A7F984B272
:10325000324907E00D21384602F08DFB02F09EF95D
:103260002F4984B2384602F0E5F902F097F9210AB5
:103270008DF8001080B28DF80140010A8DF802101F
:103280008DF80300E8076C4620D0224602214FF457
:10329000EA7001F043FAC8BB11E00C21384602F095
:1032A0006AFB02F07BF984B21E49DBE70B2138464A
:1032B00002F061FB02F072F984B21B49D2E7A21C52
:1032C00002214FF4927001F029FAF8B9A8070DD540
:1032D0006A4602214FF4EC7001F020FAB0B9A21C4A
:1032E00002214FF4947001F019FA78B9680710D5EB
:1032F0006A4602214FF4EE7001F010FA30B9A21CB8
:1033000002214FF4967001F009FA10B13046BDE881
:10331000FC810020FBE7000000004843000040461D
:103320000000C045000040450000C0440521B0FB3E
:10333000F1F008B5010A8DF800108DF801006A4619
:1033400002214FF4EF7001F0E9F908BD0521B0FB4F
:10335000F1F008B5010A8DF800108DF801006A46F9
:1033600002214FF4ED7001F0D9F908BD04490A6853
:103370005206FCD5024AC1B2121D1160704700000E
:10338000003801402DE9FC47054625486B460422DC
:1033900040680D210078FEF79BFC10B10720BDE8C6
:1033A000FC879DF800001C2101EAD0029DF8030073
:1033B000DFF87090C0F301131A438DF804209DF8D4
:1033C0000120C0F3810301EAD2021A438DF80520DF
:1033D0009DF8022000F0030001EAD201014300241D
:1033E000114F8DF80610A04601AE305D10B145F8C2
:1033F000249009E045F824800CE055F82400394673
:1034000002F018F945F82400305D401E10F0FF006E
:103410003055F2D1641CE4B2032CE6D30020BEE7A1
:10342000100000207B14AE3E1D5A843F2DE9FE4F54
:1034300005460120C14E8DF800004FF000088DF8C0
:10344000018030680C461746817C70686B4602220A
:103450000078FEF751FC4FF0FF3A00287AD1C820DF
:10346000FFF7DCFA8DF8008030686B460122C17BE3
:1034700070680078FEF740FC0028EFD130686B469A
:103480000122417970680078FEF736FC0028E5D10A
:1034900030686B460122817C70680078FEF72CFC56
:1034A0000028DBD130686B460122C17D706800784E
:1034B000FEF722FC0028D1D130686B460122017949
:1034C00070680078FEF718FC0028C7D14FF00C098F
:1034D0008DF8009030686B460122017970680078A1
:1034E000FEF70AFC002835D10F20FFF797FAB06AE3
:1034F0006B460122407A8DF8000030688178706850
:103500000078FEF7F9FB002824D1B06A6B4601224F
:10351000007A8DF800003068417870680078FEF716
:10352000EBFB002873D1B06A807A0FB140F0E00065
:103530008DF8000030686B46012281797068007850
:10354000FEF7DAFB002862D12FB1B06AC07A40F0F2
:10355000E00001E04AE018208DF8000030686B467A
:103560000122C17970680078FEF7C6FBF0BB17B185
:10357000C820FFF753FA40208DF8000030686B46F2
:103580000122017970680078FEF7B6FB70BB7820E5
:103590008DF8000030686B46012241797068007830
:1035A000FEF7AAFB10BB3220FFF738FA8DF8008037
:1035B000306847466B464179706801220078FEF713
:1035C0009BFB98B931687068B046897A00786B4681
:1035D0000222FEF77DFB48B9BDF80000AF6040BA9B
:1035E000B0FBF9F06F60C6B22F6000E00FE0A7609B
:1035F00067602760002739E0D8F80010D8F8040089
:103600006B46C97A00780C22FEF762FB10B1504677
:10361000BDE8FE8FBDF80000236840BA02B2BDF8D5
:1036200002001A4440BA01B2BDF804002260626888
:1036300040BA11446160A16800B20844A060BDF8BE
:1036400006002B6840BA02B2BDF808001A4440BA1E
:1036500001B2BDF80A002A606A6840BA1144696084
:10366000A96800B208447F1CFFB2A860B742C3D368
:1036700028688322C117090441EA1041000400238D
:10368000FCF7C9FD32460023FCF7C5FD28606868D9
:103690008322C117090441EA104100040023FCF70A
:1036A000BAFD32460023FCF7B6FD6860A8688322A5
:1036B000C117090441EA104100040023FCF7ABFDE7
:1036C00032460023FCF7A7FDA86020684FF4006590
:1036D000C117090441EA104100042A460023FCF7FF
:1036E0009AFD32460023FCF796FD206060682A466A
:1036F000C117090441EA104100040023FCF78BFDC7
:1037000032460023FCF787FD6060A0682A46C11797
:10371000090441EA104100040023FCF77CFD324615
:103720000023FCF778FDA060002802DDA0F58030C2
:1037300001E000F58030A060002069E71000002063
:103740002DE9F84F82462F488946002540686B4690
:10375000032200780D21FEF7BBFA10B10720BDE867
:10376000F88F9DF80000002400F01F008DF8000085
:103770009DF801006F4600F01F008DF801009DF8D4
:1037800002004FF0010800F01F008DF802005AF807
:10379000241059F82400081A00D5404201F01EFFF9
:1037A0006FF00F0102F0E7F80646385DE0B1164A07
:1037B000DFF858B004E05946104601F03BFF0246DE
:1037C000385D401E10F0FF003855F4D111463046E8
:1037D00001F006FE4FF07E5101F0F8FF0C4920F099
:1037E0000040884205DC07E00A483044B0F1D97F48
:1037F00002D908FA04F00543641C032CC7DB2846F1
:10380000ADE70000100000200000C84154E3853FF0
:10381000295C0F3E0000E0BE00B5024600F00DF846
:103820000346D01C00F009F843EAC003901D00F0E5
:1038300004F843EA801080B200BD90F9001000291E
:1038400002DD4FF00000704702DA4FF004007047CD
:1038500090F90110002902DD4FF00100704702DAF3
:103860004FF00500704790F90200002802DD4FF08C
:103870000200704702DA4FF0060070474FF0070071
:10388000704700000EB5FDF79FFAFEF7F7FA4FF408
:10389000E130FEF769FB00F05FF928B14FF47A7070
:1038A000FFF7BCF800F058F902AA01A9684600F039
:1038B00085F80028F8D1009801F054FE0446012054
:1038C000FEF7D0FA21461AA0FCF7CAFC0220FFF747
:1038D000A5F80020FEF7C6FA0220FFF79FF801982E
:1038E00001F040FE04460120FEF7BCFA214614A078
:1038F000FCF7B6FC0220FFF791F80020FEF7B2FAC1
:103900000220FFF78BF8029801F02CFE04460120FC
:10391000FEF7A8FA21460EA0FCF7A2FC0220FFF752
:103920007DF80020FEF79EFA0220FFF777F8BBE74C
:103930007069742D3E6C636425640D0A00000000FC
:10394000726F6C2D3E6C636425640D0A00000000EC
:103950007961772D3E6C636425640D0A00000000D8
:10396000704700002DE9F041134D20F001040026BE
:1039700095F8240010B10020BDE8F081A87A4FF03E
:10398000FF3838B120402F7C2874A04200D0464632
:1039900024B901E04046EFE7287D40B1012000F066
:1039A00027FF3CB100F080FB20B12F74F2E700202C
:1039B00000F01EFF3046DFE7100000202DE9F74F32
:1039C0008EB00CA906A8CDE900010BAB02AA09A98B
:1039D00007A8FFF77FF918B1012011B0BDE8F08FFB
:1039E000BDF81800C0057DD5029801F0F7FD6FF015
:1039F0001D04214601F0BFFF8146039801F0EEFD52
:103A0000214601F0B8FF8046049801F0E7FD214609
:103A100001F0B1FF0646059801F0E0FD214601F0F6
:103A2000AAFF82460121484601F0A5FF074631461C
:103A300001F000FE04464FF04041404601F0FAFD1F
:103A40000546514601F0F6FD214601F061FC01F00A
:103A500033FCFEF7DBFC4FF0663B5A463D4B01F072
:103A600051F900F015FF0E9908600121304601F070
:103A700082FF3146009001F0DDFD044628464146B4
:103A800001F0D8FD214601F0A1FE4FF07E5101F07A
:103A90003FFC01F011FC04460D463846414601F05A
:103AA000C9FD07465146009801F0C4FD394601F0B2
:103AB0002FFC01F001FC22462B46FEF7EFFE5A4692
:103AC000244B01F01FF900F0E3FE0F990860514606
:103AD000084601F0AFFD07463146084601F0AAFD51
:103AE000054600E034E04146084601F0A3FD0446E7
:103AF0004946084601F09EFD214601F009FC294691
:103B000001F064FE394601F061FE01F0D5FB044688
:103B10000D465146484601F08DFD07463146404668
:103B200001F088FD394601F0F3FB012101F023FF8C
:103B300001F0C2FB22462B46FEF7B0FE5A46054B6B
:103B400001F0E0F800F0A4FE10990860002044E7BE
:103B5000022042E766A64C4010B5FEF791F800F04F
:103B6000F1F888BB782000F07DFD10F0FF0F01D048
:103B7000012010BD7820FFF7F5FE10F0FF0F01D0F7
:103B8000022010BD642000F031FD10F0FF0F01D0C5
:103B9000032010BDFFF794F810F0FF0F01D00420B0
:103BA00010BD1548FFF738FEFFF73CFA10F0FF0F85
:103BB00001D0052010BD40F27310FEF759FF10F040
:103BC000FF0F02D0062010BD14E06420FFF792F929
:103BD00010F0FF0F01D00720F5E700F0C9FD08B194
:103BE0000820F0E7012000F027FC10F0FF0F01D0C3
:103BF0000920E8E70020E6E73C0000200D4A517A62
:103C000041B1012908D002290FD003290FD04FF06C
:103C1000FF307047022100E004210170D17C11B116
:103C2000017849000170002070470821F5E7102154
:103C3000F3E70000100000200F4A517A41B101293A
:103C400009D0022911D0032912D04FF0FF3070475C
:103C50004FF4804101E041F69C710180D17C11B1AB
:103C6000018849080180002070474FF48051F4E733
:103C70004FF40061F1E70000100000200B49097AC1
:103C800039B1012907D002290AD003290BD000211C
:103C900003E0FA2101E04FF4FA710180002070473F
:103CA0004FF47A71F9E74FF4FA61F6E7100000205B
:103CB0000A49097A41B1012908D002290AD0032909
:103CC0000AD04FF0FF307047054900E00549016018
:103CD000002070470449FAE70449F8E71000002083
:103CE00000000343000083423333034233338341F4
:103CF0000C49C97A072913D2DFE801F01204060A39
:103D00000C0E1000BC2100E06221018000207047F1
:103D10002A21FAE71421F8E70A21F6E70521F4E75A
:103D20000021F2E710000020054991F8242012B18B
:103D30004FF0FF307047C9890180002070470000B4
:103D4000100000202DE9FC41464C80208DF8000039
:103D500020686B460122817C60680078FDF7CCFF0B
:103D60004FF0FF36002875D16420FEF757FE00257E
:103D70008DF8005020686B460122817C60680078D5
:103D8000FDF7BAFF002865D120686B460622817DC9
:103D900060680078FDF79CFF00285BD19DF8050066
:103DA0009DF80310C007400F01F0010140EA4100F7
:103DB0009DF801104FF0010701F00101084304D004
:103DC000012831D0022810D044E020686B4601223F
:103DD000C17860680078FDF77BFFD8BB9DF80000D4
:103DE00010F00F0036D004281ED0E574FF2004F830
:103DF0000A0F4FF6FF7104F8020C04F8010C607012
:103E0000A180A0712072A77027766576E572A572F1
:103E1000E56025616561A576E576A5834FF4FA60D6
:103E200000F046FBB0B901E0E774DFE7022000F0E4
:103E300061FA78B92A2000F0A3FB58B9322000F0CB
:103E4000D5FB38B90020FFF78DFD18B9002000F030
:103E500085FA10B13046BDE8FC81002000F002FC7C
:103E60000020F8E7100000202DE9FF4FDFF898A0B0
:103E7000054685B09AF82500914688464FF0FF3BED
:103E8000C0BBB8F1000F35D000241FE0281B10285C
:103E900000DD102086B208EB04073A463146204682
:103EA00000F03CFC30BB6A463146204600F0D2F8B8
:103EB00000BB384632466946FCF7B6FA20B16FF0CF
:103EC000010009B0BDE8F08FA01984B2AC42DDD387
:103ED0004FEA19208DF810008DF81190DAF80000E3
:103EE000544604AB817EDAF8040002220078FDF724
:103EF00003FF08B15846E4E7012084F8250008983C
:103F0000E0840020DDE70000100000202DE9F843E8
:103F100004464FF0FF39282844D80727284D0026AB
:103F20007CB1012000F0FAFA20208DF800004FF05B
:103F30000108012C17D0052C18D88DF80180052018
:103F40001FE0002000F0EAFA8DF800608DF80170A3
:103F500028686B460222817C68680078FDF7CCFEF9
:103F600000BB2E7529E08DF80160E8E7142C04D819
:103F700002208DF801000A2003E003208DF80100E3
:103F8000142000F0FDFA9DF801006B4607EB80104D
:103F90008DF8010028680222817C68680078FDF7AE
:103FA000ABFE10B14846BDE8F8830820A8722E7316
:103FB00085F814800020FFF7D5FC0020F3E700000F
:103FC000100000202DE9F843214E0546174696F8CB
:103FD000240089464FF0FF3890B3B07A80B3306840
:103FE0006B460222817A70680078FDF771FE38BB5B
:103FF000BDF8000044BAAC4202D2002038701FE085
:1040000070684188B4EB510F11D9316800786B4664
:10401000497C0122FDF75CFE90B99DF80000C006C6
:1040200005D500F041F86FF00100BDE8F883306875
:10403000EAB24B46C17A70680078FDF749FE08B1D4
:104040004046F2E7B4FBF5F0401E38700020ECE784
:1040500010000020F8B517000D464FF0FF341FD0B8
:10406000104EB17AE1B1010A8DF80010C0B28DF89E
:104070000100411970684289914211D83168007875
:104080006B46097E0222FDF737FE48B93068EAB276
:104090003B46417D70680078FDF71AFE002800D08D
:1040A0002046F8BD10000020F8B5554D4FF0FF3602
:1040B000A87A00287ED000248DF8004028686B463E
:1040C0000122C17B68680078FDF716FE002871D1D7
:1040D00028686B460122417968680078FDF70CFE7C
:1040E000002867D128686B4601220179686800784A
:1040F000FDF702FE00285DD195F82400E0B30C2006
:104100008DF8000028686B46012201796868007804
:10411000FDF7F2FD002871D13220FEF77FFCC020B0
:104120008DF80000A87AC00702D0E0208DF80000CA
:1041300028686B460122017968680078FDF7DCFD8C
:1041400000285BD1687C18B102208DF8000001E0E6
:104150008DF8004028686B460122C17B68680078B2
:10416000FDF7CAFD30BB8DF8004028686B46012280
:104170004179686800783DE0FFE704208DF8000091
:1041800028686B460122017968680078FDF7B4FD64
:1041900080B9A87C88B9A87AC0070ED060208DF8B5
:1041A000000028686B460122017968680078FDF7F5
:1041B000A3FD00E022E008BB01E04020EFE7322051
:1041C000FEF72CFC687C18B101208DF8000001E09E
:1041D0008DF8004028686B460122C17B6868007832
:1041E000FDF78AFD50B92868054B012241796868BE
:1041F00010330078FDF780FD002800D03046F8BD70
:10420000100000202DE9F047394E82468AB096F81A
:1042100024000F4620B1002000F00EF9012500E037
:10422000002507A8FFF72AFD06A8FFF7E7FC09A865
:10423000FFF75EFD08A8FFF777FD96F80A9096F85D
:1042400010800024002239465046FFF7EFF810B1E5
:10425000641C022CF6DB022C1AD00024012203A9D4
:104260006846FFF7E3F810B1641C022CF6DB022C61
:104270000ED003A93846FEF78BF8C7B26946504600
:10428000FFF75EFA10F0FF0F4FF0000402D002E0DB
:10429000002403E001240FB944F00204FF2030722F
:1042A0007072F0724FF6FF71F181B07230740120BC
:1042B0003073BDF81C0000F0FBF89DF8180000F00A
:1042C00019F8BDF8240000F05BF9BDF8200000F0FB
:1042D0008DF9484600F0C6F94046FFF743FB15B19B
:1042E000012000F0A9F80AB02046BDE8F0870000E0
:1042F0001000002038B5184C4FF0FF35A17A19B3E3
:10430000022806D0042806D008280ED010281BD179
:104310000DE0002000E008208DF80000607A9DF894
:104320000010B0EBD10F04D005E01020F4E7182006
:10433000F2E7002038BD20686B460122C179606831
:104340000078FDF7D9FC08B1284638BD9DF800007B
:10435000C0086072EDE7000010000020F8B5354D90
:104360000446A87CA04201D10020F8BD31484FF09E
:10437000FF366B46D0E900104FF001020979007852
:1043800034B3FDF7A5FC70BB9DF800006B4620F030
:1043900020008DF800002868012201796868007803
:1043A000FDF7AAFCF8B90320FEF738FB02208DF8D0
:1043B000000095F8220078B382202BE028686B4635
:1043C0000122017D68680078FDF796FC58B92EE05F
:1043D000FDF77EFC38B9A87AC0079DF8000003D02D
:1043E00040F0200002E00CE020F020008DF80000FA
:1043F00028686B460122017968680078FDF77CFC2B
:1044000008B13046F8BD0320FEF708FB95F82200FE
:1044100000B180208DF8000095F823000028CDD051
:104420009DF8000040F030008DF80000C6E7AC7445
:104430009AE700001000002038B51C4C94F82410B6
:1044400081421DD0002500B394F82500D0B1002092
:1044500000F0CEF90020FFF781FFE08C00F0C6F8F5
:104460008DF8005060686B46012200782321FDF72B
:1044700043FC012084F8240000F0BAF9FFF714FE91
:10448000002038BD4FF0FF3038BD002000F0B0F9FB
:10449000207C8DF8000060686B46012200782321A3
:1044A000FDF72AFC84F82450E8E700001000002003
:1044B00038B5194C4FF0FF35A17A31B3FA2809D03D
:1044C000B0F5FA7F08D0B0F57A7F0FD0B0F5FA6F6B
:1044D0001BD10DE0002000E008208DF80000207ABC
:1044E0009DF80010B0EBD10F04D005E01020F4E7E8
:1044F0001820F2E7002038BD20686B460122817940
:1045000060680078FDF7F8FB08B1284638BD9DF8D3
:104510000000C0082072EDE71000002038B5174DEC
:10452000044695F82300A04201D1002038BD0CB10B
:10453000302000E000208DF80000A87C28B19DF814
:10454000000040F002008DF8000095F8220028B12C
:104550009DF8000040F080008DF8000028686B4650
:104560000122017D68680078FDF7C6FB10B14FF0AD
:10457000FF3038BD85F82340D7E700001000002049
:1045800038B5194C4FF0FF35A17A31B3BC2801D3AF
:10459000012010E0622801D302200CE02A2801D378
:1045A000032008E0142801D3042004E00A2801D3E2
:1045B000052000E006208DF80000E07A9DF800104C
:1045C000884201D1002038BD20686B4601228178E5
:1045D00060680078FDF790FB08B1284638BD9DF86B
:1045E0000000E072EEE7000010000020F8B51C4D5E
:1045F00004464FF0FF37A87A28B395F8240010BB83
:10460000287D48B12CB1282C03D8E0B2FFF77EFCFE
:1046100024E00020FFF77AFC4FF47A76042C01D2D4
:10462000042402E0B44200D93446B6FBF4F0401E44
:104630008DF8000028686B46012241786868007890
:10464000FDF75AFB08B13846F8BD9DF80000401C44
:10465000B6FBF0F0E8814008FFF792FF0020F8BDBC
:1046600010000020F8B5044610F0700F4FF000065F
:1046700001D0012004E014B18DF8006002E0402078
:104680008DF80000244D6B4601222868817C686803
:104690000078FDF731FB4FF0FF3760BB9DF800005D
:1046A00020F0400028738DF80060600602D40420DA
:1046B0008DF80000A00605D49DF8000040F002002F
:1046C0008DF80000E00605D49DF8000040F00100E0
:1046D0008DF80000200705D49DF8000040F0380058
:1046E0008DF8000028686B460122C17C686800785C
:1046F000FDF702FB10B1AE723846F8BD24B1082CAC
:1047000002D00020FFF70AFFAC722E753220FEF7B0
:1047100085F90020F8BD000010000020F8B5170052
:104720000D464FF0FF341FD0104EB17AE1B1010AAF
:104730008DF80010C0B28DF80100411970684289EF
:10474000914211D8316800786B46097E0222FDF74C
:10475000D3FA48B93068EAB23B46417D70680078C8
:10476000FDF7CAFA002800D02046F8BD100000204E
:1047700010B588B002A905A8FFF744FD032802D0B0
:10478000012008B010BD6846FFF792FA059800F0C6
:1047900025FF00990C4600F04DFF00F0E3FE059068
:1047A000069800F01BFF214600F044FF00F0DAFEFF
:1047B0000690079800F012FF214600F03BFF00F042
:1047C000D1FE079005A8FEF7C7FB01A8FFF734FA52
:1047D000BDF80400029941430291039941430391BA
:1047E0000499414302A80491FEF718FB0020C8E792
:1047F000F8B5134C0023224694F82460D2E9001245
:104800005D1E56B190B102200DE01078C97B6B4659
:104810000122FDF771FA60B90DE0A67A4EB128B118
:10482000607C58B901208DF80000EEE78DF800306B
:10483000EBE72846F8BD9DF8000060740020F8BD45
:10484000100000202DE9F04106460F4600F064FB01
:10485000041E0D4618BF0120284320F00040C0F17F
:104860007F6000F1E040C00F0ED0301C18BF012067
:10487000384320F00040C0F17F6000F1E040C00FFD
:1048800004BF0120FBF784FE20462946BDE8F081E5
:1048900021F00042A2F16052B2F5801F01F0004306
:1048A00028BFD2F17F6C0BD95FEA001C43EAC20239
:1048B00042EB507018BF704728BF20F001007047CE
:1048C000B2F5801FBCBF184670474FEA410C1CF57B
:1048D000001F02D2084600F074BF70B500F0BCFAA9
:1048E00000000089FFF7F6BF4FF00040A0F5800000
:1048F0007047000010B591EA030F48BF83F00043F2
:1049000000F1F883841A71EB030C05D2121943EB02
:104910000C03001B61EB0C01DFF824E14FEA11549A
:10492000A4EB135C1EEA430F18BF9EEA445F73D0EA
:1049300023EA0E03DCF1200E21EA045143F4801334
:1049400032D322FA0CFE10EB0E0023FA0CFE41EBE0
:104950000E01CCF1200E03FA0EFE10EB0E0051F109
:104960000001B1F5801FCCF1200E32D201EB0451D1
:1049700012FA0EF2BDE8104058BF7047401C38BF15
:104980005FEA420218BF7047002814BF20F0010000
:1049900041F100014FEA410313F5001F38BF704792
:1049A000A1F1C04100F0A6BA012A43EB0302ACF129
:1049B000200CDCF11F0E32BF4FF0000E23FA0CF377
:1049C00010EB030041EB0451B4EB115FD0D0A1EB2D
:1049D000045101F5801149085FEA300001EB0451F0
:1049E0000ED350F1000038BF12FA0EFE08D1BDE818
:1049F0001040C9E7401C38BF5FEA4202CAD1C3E792
:104A0000BDE810404FEA410313F5001F38BF70475F
:104A1000A1F1C04100F06EBA9EEA445F08D011EAED
:104A20005E0FBDE8104004BF01F000410020704758
:104A3000BDE8104070B500F00FFA00BF64FBBE3E49
:104A40000000E0FF02494FF0000000F034BF00BF5B
:104A50000000F87F2DE9C04130B4DFF8A0C23CEA85
:104A6000111418BF3CEA131400F0EC8081EA03052E
:104A70001CEA111444EAD57418BF1CEA131500F09F
:104A8000C780A4EB05044FF0004545EAC12145EA83
:104A9000C32341EA505143EA525304F17F749942CF
:104AA00004F500344FEAC0204FEAC22208BF90420A
:104AB00000F09C804FEA13650FF24016765D4FEAD6
:104AC000134506FB05F7C7F1807706FB07F74FEAAA
:104AD000D737A7FB03687642C8F58038A7FB06CE18
:104AE00038BFA8F1010807FB08E64FF0000EA6FB4F
:104AF000028CE6FB03CEDCF1000CCEF1004E38BF99
:104B0000AEF1010EA6FB0C584FF000074FF0000568
:104B1000E6FB0E87A1FB08C6A0FB07CE16EB0E0630
:104B200045F10005E1FB076515F1E04E7EBFA4F5F8
:104B300080345FEA46066D4116F1800745F10005B5
:104B40004FEA17274FEA066647EA0567A6F1DE46F1
:104B5000B6F1805F4FEA15251FD9384624F0010CC5
:104B600005EBC471BCF1FE6F01EB0C1102D8F0BC77
:104B7000BDE8008124425CBF01F5801E9EEAC47F2F
:104B800002D4F0BCBDE80081244238D4F0BCA1F1CD
:104B9000C041BDE8004100F0ADB94FEAD22242EA7F
:104BA00043524FEAD323A7FB02864FEAD02040EAC4
:104BB000415007FB03661EEA0E0F4FEAD12105FBA9
:104BC000026658BFA6EB0056B6EB00564FEA520EEF
:104BD0004EEAC37E18EB0E0E56EB530EBDD518EB06
:104BE00002085E417F1C55F10005B6E74FF48015C1
:104BF0004FF000074FF000064FF00008ADE7F0BCA3
:104C00004FF0000001F1C04101F00041BDE800811A
:104C100011EA0C1F0CEA131500D00CE013EA0C1F6C
:104C200000F025804FF00000F0BC81EA030101F0A4
:104C30000041BDE80081F0BCBDE8004181EA03010C
:104C400000F058B9F0BCBDE8004170B500F004F9BF
:104C5000097EFC3E00F007B881EA03014FF0000036
:104C600001F00041704781EA030100F043B9F0BC54
:104C7000BDE800414FF0000021497047FFFDFBF9FE
:104C8000F7F5F4F2F0EEEDEBE9E8E6E4E3E1E0DE7F
:104C9000DDDBDAD8D7D5D4D3D1D0CFCDCCCBCAC8F1
:104CA000C7C6C5C4C2C1C0BFBEBDBCBBBAB9B8B718
:104CB000B6B5B4B3B2B1B0AFAEADACABAAA9A8A80B
:104CC000A7A6A5A4A3A3A2A1A09F9F9E9D9C9C9BD9
:104CD0009A99999897979695959493939291919084
:104CE0008F8F8E8E8D8C8C8B8B8A89898888878715
:104CF0008685858484838382828181800000FF078A
:104D00000000F87FDFF848C170B51CEA111E1EBF15
:104D10001CEA13159EEA0C0F95EA0C0F00F06F8049
:104D200081EA030423EA4C134EEAD47E21EA4C11B3
:104D300041F4801143F48013AE44A1FB024CA0FB6C
:104D40000365AEF17F7E361955EB0C05A1FB034CD4
:104D50004CF10003A0FB021C16EB0C06654153F15D
:104D60000003094218BF46F0010613F4007F0BD17F
:104D70004FEA03314FEA0530340341EA155140EA66
:104D800016506FF003020AE04FEAC3214FEAC52034
:104D9000F40241EA555140EA56506FF0020202EB2C
:104DA0002E4201EB025585EACE710AD05FEA440C2F
:104DB00018BF24F0004450F1000041F1000120EA46
:104DC000D47040F2FE7C624500D270BDA84214BF90
:104DD0004FF080444FF04044002E08BF0024BEF145
:104DE000806FA8BFA1F1C041BDE8704080F2828011
:104DF0004FF0000001F1C04101F0004170479EEA10
:104E00000C0F0CEA131518BF95EA0C0F06D04FF0E3
:104E1000000081EA030E0EF0004170BD00F01CF8A6
:104E20008900013E00F007B800F009B84FEA430CD2
:104E30005FEA5C5C08D081EA030100F05BB84FEAEE
:104E4000410C5FEA5C5CF6D14FF00000014970470D
:104E50000000FF070000F87F0EF1020E2EF0030E97
:104E60005EF8046B364205D4012A43EB030515F5C1
:104E7000001F12D8012841EB010C1CF5001F0CD8B3
:104E80000ED14FEAD17C15F5001F0CEB4C0C0CF148
:104E9000020C08BF4CEBD37C04E04FF0080C01E09F
:104EA0004FEAD37C0CEB4C0526FA05F606F0070614
:104EB000B6F1040C06D20EEB860CBDE870404CF047
:104EC000010C6047DFE80CF0090B02024FF00041D3
:104ED0004FF00000A1F5002170BD194610460128D1
:104EE00051EB010418BFD4F5001484BF002001F079
:104EF000004170BD0808A0F500114FEA310170476C
:104F000091EA030F10B581F000413FF5FBAC83F04F
:104F1000004300F0EFB800002DE9F04101F5801CDE
:104F2000BCF5001FC0F2C3804FEA115C21EA0C51AE
:104F30000CF1FD0C41F480115FEA5C0C0CF5C07CB7
:104F400001D3400049413DA4890241EA90518702C2
:104F50008E0E0A0CA45D04FB04F602FB06F6C6F1F5
:104F60004046A4FB0662F60D46EA422606FB06F41E
:104F7000A4FB01235242C3F1404338BF5B1EA6FB92
:104F800002420024E6FB0324D20B42EA4446A6FB7D
:104F90000623A1FB02E2A3FB07E4A4184FF00002E2
:104FA00052F10002E3FB01426442C2F1404E38BFBD
:104FB000AEF1010EA6FB04234FF00002E6FB0E3219
:104FC000A2FB03464FF00004B61954F10004E2FBC3
:104FD0000264A1FB06E6A4FB07E816EB08064FF007
:104FE000000858F10008E4FB01687642C8F1405817
:104FF00038BFA8F10108A2FB06E4A3FB08E52D19C0
:105000004FF0000454F10004E2FB0854A1FB05E654
:10501000A7FB04E818EB06084FF0000656F100065F
:10502000E1FB048618F1200556F10006A809A8F155
:105030001B08B10908F03F08B8F10A0F40EA866082
:105040001CD901EB0C51BDE8F08100BFFCF5EEE886
:10505000E2DDD8D3CFCBC7C3C0BDB9B6B4B1AEAC17
:10506000A9A7A5A3A19F9D9B9A9896959392908F8F
:105070008D8C8B898887868584838281A0FB0068DC
:1050800000FB01F208EB4208B8EB872807D534187B
:1050900058EB0104D5D5401C51F10001D1E7341A79
:1050A00078EB0104CDD4401E71F10001C9E75FEA3D
:1050B0004C0C5FEA9C5C0DD105D34FF0000001F071
:1050C0000041BDE8F081BDE8F04170B5FFF7C4FED6
:1050D0006DDBFFBEBDE8F0414FF0000000497047B6
:1050E0000000F87F10B591EA030F48BF83F000433A
:1050F0003FF508AC841A71EB030C07D212198CF03F
:10510000004C43EB0C03001B61EB0C01DFF8A4E146
:105110004FEA1154A4EB135C1EEA430F18BF9EEA3A
:10512000445F00F0B08023EA6E03524221EA04514A
:10513000C3EB6E0338BF5B1EDCF1200E25D322FAD1
:105140000CFE10EB0E0043FA0CFE41EB0E01CCF10D
:10515000200E03FA0EFE10EB0E0051F10001CCF10F
:10516000200E29D412FA0EF201EB0451BDE81040D2
:1051700058BF7047401C1CBFB2F1004F7047002859
:105180000CBF491C20F00100704712EB020E43EBEC
:10519000030218BF4FF0010E4EEA4202ACF1200CA0
:1051A000DCF11E0E54D943FA0CFE10EB0E0051F147
:1051B000FF31CCF11E0ED5D50EF1010E12FA0EFE06
:1051C000404141EB010101EB445C5FEA5C5C10D9BA
:1051D00010EBDE7001EB045138BFBEF1004FBDE8AB
:1051E000104018BF704700280CBF491C20F0010078
:1051F000704730D24FEAD42C11F5001124F400642A
:105200001BD0B1FA81F20B3AA41AA41ED2F12003EA
:10521000914030FA03F31943904001EBCC71002C1C
:1052200001EB0451BDE81040A8BF704701F1C04137
:105230004FF0000001F000417047B0FA80F310FA1F
:1052400003F100D110BDE41A173C4805C90AE4E790
:1052500001EB045110BD491001EB0451BDE81040B1
:105260004FEA300002E04FF0000170474A0008BFEB
:105270000042F8D0B2F5001F28BF704701F000418E
:105280004FF0000070479EEA445F07D011EA5E0FBE
:10529000BDE8104004BF002100207047BDE8104069
:1052A00070B5FFF7D9FD00BF40DFF63E83F0004147
:1052B000104670470000E0FF43004FEAD30C4FEA6E
:1052C0003C0C43401FBF40070CF1605113F0FE4FF0
:1052D00070471CF0006F03D100200CF000417047B4
:1052E0000CF0004343EA507010B540EACC0000F0E7
:1052F00022FA00BF000000924FEA0001FFF7FABD5A
:105300004FF000414FF00000A1F500217047000070
:1053100090EA010F48BF81F0004100F15E82421A1D
:105320003CBF801A89184FEAD0524FF07F4C1CEADC
:10533000410FA2EBD15318BF9CEA026F00F03B80F3
:105340004FF0004C4CEA00204CEA012121FA03FC0A
:1053500010EB0C0C1ED202F1FF325FEA1C2040EB76
:10536000C25038BF70471CF07F0F4FEA400C18BF87
:10537000BCF17F4F38BF7047C3F12003994008BF8D
:1053800020F00100BCF17F4F38BF7047A0F1C04052
:1053900000F017BA4FEA3C00000A40EBC25028BFA9
:1053A0001CF0FF0F4FEA400CE6D018BFBCF17F4F56
:1053B00038BF7047EAE79CEA026F05D010EA5C0F3D
:1053C00008BF00F00040704710B500F0B4F900BF0E
:1053D00064FBBE3E014800F06EBA00BF0000C07F13
:1053E0004FF47F0C1CEAD0121EBF1CEAD11392EAC4
:1053F0000C0F93EA0C0F00F0858090EA010F48BF74
:1054000042F4807240F4000C41F400002CF07F4123
:1054100020F07F4000B58142A2EB03020FF2081C8E
:10542000ACEB504EC0F100009EF800E04FEA4E0E8B
:1054300000FB0EFC38BF49004FEA2C1C02F5FA02B3
:105440000CFB0EF34FEACE1E4FEA112C4FEAC1219E
:105450000EEB635E42EB22420EFB0CFC4FEA1C5348
:1054600000FB03114FEA112C4FEA01310EFB0CFC3B
:105470004FEADC4C00FB0C11C14228BF09184CEB71
:1054800003335DF804EB10EB410143EBC250B2F57E
:105490007C0F38BF704729D512F0F00F1CBF00F108
:1054A000C04000F000407047008182838485868779
:1054B00088898B8C8D8E8F919293959697999A9CD3
:1054C0009D9FA0A2A3A5A7A8AAACAEB0B2B3B5B742
:1054D000B9BCBEC0C2C5C7C9CCCED1D4D7D9DCDF18
:1054E000E2E6E9ECF0F3F7FAFE0000004FEA400CC8
:1054F0000CF1807CBCF17E4F28BF7047B0F1C040FA
:1055000000F05FB990EA010F0CEAD11348BF42F4F2
:105510008072624538BF634507D213F47F0F16D0FF
:1055200080EA010000F00040704710B500F003F978
:10553000097EFC3E00F005B880EA010000F0004062
:10554000704780EA010000F0004000F03AB912F420
:105550007F0F04BF0248704780EA010000F031B9B4
:105560000000C07F41000B0ED3F19E0208D950F419
:1055700000034FEA032323FA02F048BF404270477A
:1055800010B500F0D8F800BF499224800020704781
:105590006FF0004282EA200070470000C10DD1F197
:1055A0009E0206DB4FEA002343F0004323FA02F099
:1055B0007047004207D54FEA4001B1F1FE4F02D2D9
:1055C0004FF00000704710B500F0B5F84992248004
:1055D000002070476FEA20007047000010F0004183
:1055E00048BF4042B0FA80F310FA03F2C3F19D03C2
:1055F0000BD051EAC35101EB1220530638BF70475C
:1056000000F1010008BF20F001007047B0FA80F3FC
:1056100010FA03F2C3F19D030AD0D90501EB122061
:10562000530638BF704700F1010008BF20F00100A9
:10563000704700004FF47F0C1CEAD0121EBF1CEA1A
:10564000D11392EA0C0F93EA0C0F00F0478090EA16
:10565000010F48BF42F480724FF0004C4CEA00202A
:105660004CEA012102EB0302A0FB0113A2F50002A8
:10567000002918BF43F001035B0028BF4FEA330342
:1056800042EB22425FEA132C4CEBC2502EBFBCEB24
:10569000436FB2F57C0F70474FEA036CBCF1004FCB
:1056A00008BF20F00100B2F57C0F38BF70470BD562
:1056B00082F0FF0212F5803FC8BF704700F1C04082
:1056C000D8BF00F00040704700F5000C5FEA4C0CBA
:1056D00048BF7047B0F1C04000F073B890EA010FC6
:1056E0000CEAD11348BF42F48072624538BF63456B
:1056F00004D280EA010000F00040704710B500F0CD
:105700001AF800BF8900013E00F007B800F009B8A0
:105710005FEA410C5FEA1C6C08D080EA010000F0EF
:1057200050B85FEA400C5FEA1C6CF6D14FF00040C5
:10573000A0F5800070470EF1020E2EF0030E5EF809
:10574000044B244204D44FEA4102B2F17F4F11D8F6
:105750004FEA4003B3F17F4F0CD80ED14FEAD07C13
:10576000B2F17F4F0CEB4C0C0CF1020C08BF4CEB70
:10577000D17C04E04FF0080C01E04FEAD17C0CEB47
:105780004C0324FA03F404F00704B4F1040C06D229
:105790000EEB840CBDE810404CF0010C6047DFE8D4
:1057A0000CF0070802024FF00040A0F5800010BD89
:1057B0000846420018BFD2F1807288BF00F0004056
:1057C00010BDFF2141EAD050C005704790EA010F9B
:1057D00048BF81F000413FF5A2AD421A04D882F0E3
:1057E0000042A0EB020011444FEAD0524FF07F4C30
:1057F0001CEA410FA2EBD15318BF9CEA026F4AD0BA
:105800004FF0004C4CEA00204CEA012121FA03FC45
:10581000B0EB0C0C0FD412F0FE0F36D05FEA4C0048
:105820001DD5001240EBC25038BF70471CF03F0F2F
:1058300018BF70470BE0A2F101025FEA1C2040EBA9
:10584000C25038BF70471CF07F0F18BF7047C3F1BC
:105850002003994014BF401E20F0010070478008CB
:105860004FEA122308BF7047B0FA80FCA2EB0C028B
:10587000CCF1280C60FA0CF093EA122F04BF00EB75
:10588000C25070474FEAC3707047130A5FEADC10DA
:1058900008BF7047F6E79CEA026F04D010EA5C0F7D
:1058A00008BF0020704710B5FFF745FF40DFF63E08
:1058B00081F0004070470CF00F03092B08BF08204F
:1058C00000F07F800A2B0BD0082B18BF704708BF51
:1058D0001CF0400F0AD04FF000004FF0000170475D
:1058E0001CF0400F18BF4FF0004070471CF0100F25
:1058F00008D020F0704300F07F4242EAD3014FEA23
:105900004370704700F0604021F07F4242EA00029D
:1059100001F07F4040EA727070474FF0FF0C4CF48A
:10592000E06C1CEA11531CBF9CEA030C9445C2BFF7
:10593000DA4201EB02517047002B0DD0BCF1000F91
:105940000FD0002A01F00041A4BF41F0E04141F036
:105950007F614FF00000704701F000414FF0000000
:10596000704750EA01334FF09B0C18BF4CF0806C2D
:105970007FF468A870474FF0FF0212EAD0521CBFB4
:1059800092F0FF038B42C2BFD14200EBC15070477F
:10599000002A0AD0002B0BD0002900F00040A4BF41
:1059A00040F0FE4040F40000704700F000407047B7
:1059B00043024FF00B0C18BF4CF0806C7FF40AAD23
:1059C00070471CF4801F11D01CF4E02F03D06FEA45
:1059D000CC31490070474FF04050EFF3008222F085
:1059E000704242EA000282F3008870474FF00000E4
:1059F00070470000000000000000010203040607D9
:105A00000809000000000102030475191A0C6A233A
:105A10001B1C1F207274433B4138393A6B6C376F43
:105A200006246D6E70006800000476005401F7FDD6
:105A300000010000830000000008000000010018C1
:105A400032000500000020410000D242295C0F3ED8
:105A50009A99993E3333733F295C0F3E00007000E2
:105A60000000002400000002000300000065005454
:105A7000FFEF0000FA80000B12820001030C30C31C
:105A80000E8C8CE914D5400213710F8E3883F88385
:105A90003000F883258EF8833000F883FFFFFFFF86
:105AA0000FFEA9D6240004001A8279A10000003C50
:105AB000FFFF00000010000038836FA2003E03309B
:105AC0004000000002CAE3093E8000002000000000
:105AD000000000004000000060000000000C00001A
