:020000040800F2
:1000000068060020CD010008730D0008270D0008C8
:10001000710D00087F020008550E00080000000066
:10002000000000000000000000000000970D000824
:100030008102000800000000950D0008990D0008DD
:10004000E7010008E7010008E7010008E7010008F0
:10005000E7010008E7010008E7010008E7010008E0
:10006000E7010008E7010008E7010008E7010008D0
:10007000E7010008E7010008E7010008E7010008C0
:10008000E7010008E7010008E7010008E7010008B0
:10009000E7010008E7010008E7010008E7010008A0
:1000A000E7010008E7010008E7010008E701000890
:1000B000E7010008E7010008E7010008E701000880
:1000C000E7010008E7010008E7010008E701000870
:1000D000E7010008E7010008E7010008E701000860
:1000E000E7010008E7010008E7010008E701000850
:1000F000E7010008E7010008E7010008E701000840
:10010000E7010008E7010008E7010008E70100082F
:10011000E7010008E7010008E7010008E70100081F
:10012000E7010008E7010008E7010008E70100080F
:1001300000F002F800F03AF80AA090E8000C8244BF
:100140008344AAF10107DA4501D100F02FF8AFF29C
:10015000090EBAE80F0013F0010F18BFFB1A43F0A5
:1001600001031847B40D0000D40D0000103A24BF5D
:1001700078C878C1FAD8520724BF30C830C144BF0C
:1001800004680C607047000000230024002500264E
:10019000103A28BF78C1FBD8520728BF30C148BFEA
:1001A0000B6070471FB51FBD10B510BD00F031F8D2
:1001B0001146FFF7F7FF00F05BFE00F04FF803B4C5
:1001C000FFF7F2FF03BC00F053F800000948804736
:1001D00009480047FEE7FEE7FEE7FEE7FEE7FEE729
:1001E000FEE7FEE7FEE7FEE704480549054A064B41
:1001F00070470000050E000831010008680000206B
:1002000068060020680200206802002070477047DE
:100210007047754600F028F8AE460500694653461B
:1002200020F00700854618B020B5FFF7DDFFBDE8D8
:1002300020404FF000064FF000074FF000084FF04D
:10024000000B21F00701AC46ACE8C009ACE8C009DE
:10025000ACE8C009ACE8C0098D4670470446AFF36E
:1002600000802046FFF7ABFF0048704708000020E1
:1002700001491820ABBEFEE7260002007047FEE7EA
:10028000704731B500F004F9044600F001F9009917
:10029000001B8842F9D338BD2DE9F84FDFF8BC9137
:1002A000002309F1040A0AF1040B1C464FF00F0861
:1002B0000BF1040E01270A68A7403A40BA4272D1F6
:1002C000DFF89CC14D68A5EB0C0665452BD00DDC15
:1002D000032D34D005DC35B3012D19D0022D2FD1DB
:1002E0001BE0112D16D0122D2AD119E0B6F5881F6A
:1002F00019D006DCB6F5803F15D0B6F5801F1FD1AA
:1003000011E0B6F5001F0ED0B6F5041F18D10AE0B3
:10031000CB6815E0CB681B1D12E0CB6808330FE0FB
:10032000CB680C330CE08B682BB1012B4FF008032A
:1003300003D0476104E0042302E0076100E00023EA
:10034000FF2A01D8064601E000F104064FEA8405C1
:1003500001D9A5F12005376808FA05FC27EA0C0742
:1003600003FA05F547EA050737604D68ED006ED5DD
:100370003C4DAE6946F00106AE61AD6924F003065E
:1003800005F001050095384D7719BE68A5072D0FBA
:1003900008FA05FC26EA0C06DFF8D0C0604503D158
:1003A0004FF0000C25E052E0DFF8C4C0604502D1F8
:1003B0004FF0010C1DE0DFF8BCC0604502D14FF0EA
:1003C000020C16E0DFF8B0C0604502D14FF0030C1C
:1003D0000FE0DFF8A8C0604502D14FF0040C08E040
:1003E000DFF89CC0604502D14FF0050C01E04FF0F2
:1003F000060C0CFA05FC4CEA060CC7F808C04D6860
:10040000D9F80060ED034D4601D5164300E0964350
:100410002E604D68DAF80060AD03554601D51643ED
:1004200000E096432E604D68DBF80060ED025D460B
:1004300001D5164300E096432E604D68DEF800605B
:10044000AD02754601D5164300E096432E60641C4C
:10045000102CFFF42FAFBDE8F88F0000000401401E
:10046000000011100010024000000140000801408F
:10047000000C014000100140001401400018014030
:10048000001C01400AB1016170470904FBE700004C
:10049000014800687047000004000020024801681D
:1004A000491C01607047000004000020074810B597
:1004B000016841F010010160032000F03BF80F20BB
:1004C00000F006F800F015F8002010BD00200240F2
:1004D00010B5044600F000F94FF47A71B0FBF1F06A
:1004E00000F00DFC00222146501E00F003F8002011
:1004F00010BD7047F0B40E4B1B68C3F30223C3F169
:100500000704042C00D904241D1D072D01D200234B
:1005100000E0DB1E012606FA04F56D1E0D409D402D
:100520009E40761E164045EA0601F0BC00F022BC53
:100530000CED00E0064A00F0070110684FF6FF03DB
:10054000184040EA0120034908431060704700004A
:100550000CED00E00000FA052DE9F047DFF86881B6
:1005600004460E46D8F8000000F00700B0420CD256
:10057000D8F8001021F007013143C8F80010D8F86E
:10058000000000F00700B04273D120784F4F800781
:1005900005D57868A16820F0F000084378602078DD
:1005A000C00755D06068012201280CD0022828D04D
:1005B000022393FAA3F1B1FA81F141F02001490934
:1005C00004D0396803E04FF40033F2E7796A93FA14
:1005D000A3F3B3FA83F303F01F039A40114248D008
:1005E000796821F0030101437960FFF751FF054667
:1005F000606841F2883101280CD00228894615D064
:1006000022E04FF00073D4E7FFF742FF411B49455A
:1006100001D916E089467868C0F381000128F3D13A
:1006200016E0FFF735FF411B49450AD87868C0F34B
:1006300081000228F5D10BE0FFF72AFF411B494555
:1006400002D90320BDE8F087786810F00C0FF3D1D1
:10065000D8F80010404601F00701B1420BD90168FB
:1006600021F0070131430160006800F00700B0424B
:1006700001D00120E6E72078400705D57868E168D9
:1006800020F4E060084378602078000706D5786899
:10069000216920F4605040EAC100786000F022F83F
:1006A0007968F02292FAA2F201F0F001B2FA82F235
:1006B000D140074A515CC840064908600F20FFF747
:1006C00007FF0020BEE700000020024000100240AB
:1006D000080F000800000020014800687047000073
:1006E0000000002010B519A085B00FC88DE80F00DC
:1006F0001AA01B4B0068049059681A4801F00C02BC
:10070000042A1DD0082A1BD14FF4701494FAA4F4C3
:1007100001F47012B4FA84F4E240C9031DF8022017
:1007200010D559684FF4003393FAA3F301F4003164
:10073000B3FA83F3D94004AB595CB0FBF1F05043FA
:1007400005B010BD08485043FAE700000203040555
:10075000060708090A0B0C0D0E0F1010010200000D
:100760000010024000127A0000093D002DE9F84F08
:1007700004460078FE4EC0074FF001057FD0706838
:100780004FF40038C0F38100012807D07068C0F32F
:10079000810002281BD17068C00318D598FAA8F010
:1007A000B0FA80F040F02000400901D0306800E04D
:1007B000706A98FAA8F1B1FA81F101F01F0105FA07
:1007C00001F108425BD06068002879D057E060688A
:1007D000B0F5803F0BD010B1B0F5A02F11D030682C
:1007E00020F480303060306820F4802002E03068EF
:1007F00040F480303060606818B3FFF749FE074668
:1008000009E0306840F480203060F0E7FFF740FEF8
:10081000C01B642870D898FAA8F0B0FA80F040F0B5
:100820002000400901D0306800E0706A98FAA8F111
:10083000B1FA81F101F01F0105FA01F10842E5D09A
:100840001DE0FFF725FE074604E0FFF721FEC01B71
:100850006428DFD898FAA8F0B0FA80F040F02000C1
:10086000400901D0306800E0706A98FAA8F1B1FA46
:1008700081F101F01F0105FA01F10842E5D120786C
:10088000DFF8F08280074FF0000A4FF002075AD5D8
:1008900070684FF0F80B10F00C0F07D07068C0F3C1
:1008A000810002281CD17068C00319D497FAA7F000
:1008B000B0FA80F040F02000400902D0306801E03A
:1008C0008AE0706A97FAA7F1B1FA81F101F01F018D
:1008D00005FA01F108422BD0206901287CD127E0DC
:1008E000206988B395FAA5F0B0FA80F048F8205056
:1008F000FFF7CEFD814606E04DE1FFF7C9FDA0EB15
:100900000900022886D897FAA7F0B0FA80F040F0E4
:100910002000400901D0306800E0706A97FAA7F122
:10092000B1FA81F101F01F0105FA01F10842E4D0AA
:1009300030689BFAABF220F0F8016069B2FA82F2FB
:1009400090400143316025E0FFE795FAA5F1B1FA47
:1009500081F148F821A0FFF79BFD814605E0FFF7F4
:1009600097FDA0EB09000228CCD897FAA7F0B0FABF
:1009700080F040F02000400901D0306800E0706A4B
:1009800097FAA7F1B1FA81F101F01F0105FA01F11F
:100990000842E4D1207800076DD5A069B8B395FA74
:1009A000A5F0B0FA80F008EB8000C0F88054FFF7A3
:1009B0006FFD814605E0FFF76BFDA0EB0900022803
:1009C000A0D897FAA7F0B0FA80F040F06000B5EB3D
:1009D000501F02D130680CE063E197FAA7F0B0FA3B
:1009E00080F040F06000B7EB501F01D1306A00E0AA
:1009F000706A97FAA7F1B1FA81F101F01F0105FAC7
:100A000001F21042D7D00120FFF73BFC33E0FFE7B3
:100A100095FAA5F1B1FA81F108EB8101C1F880A442
:100A2000FFF736FD814605E0FFF732FDA0EB090038
:100A3000022899D897FAA7F0B0FA80F040F0600049
:100A4000B5EB501F01D130680BE097FAA7F0B0FA70
:100A500080F040F06000B7EB501F01D1306A00E039
:100A6000706A97FAA7F1B1FA81F101F01F0105FA56
:100A700001F21042D8D12078400763D5F06940F0E8
:100A80008050F061F069DFF8F0B000F08050009025
:100A9000DBF8001041F48071CBF80010FFF7F8FC90
:100AA000814605E0FFF7F4FCA0EB0900642872D84A
:100AB000DBF80000C005F5D5E06801280AD008B1D0
:100AC000052813D0306A20F001003062306A20F02F
:100AD000040002E0306A40F001003062E06841F258
:100AE000883B80B3FFF7D4FC81460AE0306A40F0CF
:100AF00004003062EEE7FFF7CBFCA0EB090159459B
:100B000049D897FAA7F0B0FA80F040F04000B5EB72
:100B1000501F01D130680BE097FAA7F0B0FA80F0CF
:100B200040F04000B7EB501F01D1306A00E0706A1E
:100B300097FAA7F1B1FA81F101F01F0205FA02F16B
:100B40000842D8D033E0FFE7FFF7A2FC814605E07A
:100B5000FFF79EFCA0EB090159451CD897FAA7F0B6
:100B6000B0FA80F040F04000B5EB501F08D105E02E
:100B700000100240000042420070004030680CE06B
:100B800097FAA7F0B0FA80F040F04000B7EB501FA2
:100B900002D1306A01E08AE0706A97FAA7F1B1FAEF
:100BA00081F101F01F0205FA02F10842D0D1E0699B
:100BB00098B37168C1F38101022972D002284FF005
:100BC00080714FF0007B50460AD091FAA1F1B1FA42
:100BD00081F148F82100FFF75BFC04465F4669E0BD
:100BE0008A4691FAA1F1B1FA81F1C14648F8210093
:100BF000FFF74EFCA84607465D4604E0FFF748FCB9
:100C0000C01B022853D895FAA5F0B0FA80F040F046
:100C10002000400902D0306801E060E0706A95FA77
:100C2000A5F1B1FA81F101F01F0208FA02F10842C0
:100C3000E4D1206AB0F5803F05D17068A16820F446
:100C4000003008437060D4E908010843716821F45A
:100C50007411084370609AFAAAF0B0FA80F047461F
:100C600049F82080FFF714FC044604E0FFF710FC6D
:100C7000001B02281BD895FAA5F0B0FA80F040F0CE
:100C80002000400901D0306800E0706A95FAA5F1B3
:100C9000B1FA81F101F01F0107FA01F10842E5D034
:100CA0001DE01EE0FFF7F4FB001B022802D9032021
:100CB000BDE8F88F97FAA7F0B0FA80F040F0200076
:100CC000400901D0306800E0706A97FAA7F1B1FAE4
:100CD00081F101F01F0105FA01F10842E2D1002083
:100CE000E6E70120E4E74FF0E0210428086903D09B
:100CF00020F004000861704740F00400FAE710B5E6
:100D0000401EB0F1807F01D3012010BD4FF0E024E0
:100D100060610F21601700F02DF80020A06107200E
:100D20002061002010BDFEE730B50F4885B0816915
:100D300041F008018161806946F2030400F0080077
:100D400004900120CDE9004002900320074D03905C
:100D500069462846FFF7A0FA012221462846FFF7F8
:100D600091FB05B030BD000000100240000C0140B6
:100D7000FEE770470907090E002806DA00F00F00A9
:100D800000F1E02080F8141D704700F1E02080F8A9
:100D90000014704770477047FFF780BB30B58FB0C5
:100DA00002240120049000941020059000254FF4A7
:100DB0006010CDE9085007946846FFF7D7FC00B1F2
:100DC000FEE70AA90F2081E831004FF48060CDE9E9
:100DD0000D0502210AA8FFF7BFFB00B1FEE7FFF7F0
:100DE0007BFC4FF47A71B0FBF1F0FFF788FF042031
:100DF000FFF779FF00221146501EFFF77BFB0FB073
:100E000030BD00000F4810B5016841F001010160DC
:100E100041680D4A1140416001680C4A114001606F
:100E2000016821F480210160416821F4FE014160E4
:100E30004FF41F018160FFF7B1FF05494FF00060DB
:100E4000086010BD001002400000FFF8FFFFF6FE32
:100E500008ED00E0FEE700224FF4C85304E0002153
:100E6000491C9942FCD3521C8242F8D370470000BF
:100E7000FFF71CFBFFF758FF224C4FF47A756614FE
:100E80007700002201212046FFF7FCFA2846FFF7F1
:100E9000E2FF002202212046FFF7F4FA2846FFF77E
:100EA000DAFF002231462046FFF7ECFA2846FFF72A
:100EB000D2FF002239462046FFF7E4FA2846FFF722
:100EC000CAFF012211462046FFF7DCFA2846FFF749
:100ED000C2FF012202212046FFF7D4FA2846FFF77D
:100EE000BAFF012231462046FFF7CCFA2846FFF729
:100EF000B2FF012239462046FFF7C4FA2846FFF721
:100F0000AAFFBEE7000C0140000000000000000046
:100F10000102030406070809380F0008000000203A
:100F2000080000006C010008400F000808000020C5
:100F3000600600008801000800A24A0400000000CA
:0400000508000131BD
:00000001FF
