:020000040800F2
:1000000070060020CD0100086F0E0008E70D000803
:100010006D0E000887020008510F00080000000064
:10002000000000000000000000000000930E000827
:100030008902000800000000910E0008950E0008DB
:10004000E7010008E7010008E7010008E7010008F0
:10005000E7010008E7010008E7010008E7010008E0
:10006000E7010008E7010008E7010008E7010008D0
:10007000E7010008E7010008E7010008E7010008C0
:10008000E7010008E7010008E7010008E7010008B0
:10009000E7010008E7010008E70100088B020008FB
:1000A000E7010008E7010008E7010008E701000890
:1000B000E7010008E7010008E7010008E701000880
:1000C000E7010008E7010008E7010008E701000870
:1000D000E7010008E7010008E7010008E701000860
:1000E000E7010008E7010008E7010008E701000850
:1000F000E7010008E7010008E7010008E701000840
:10010000E7010008E7010008E7010008E70100082F
:10011000E7010008E7010008E7010008E70100081F
:10012000E7010008E7010008E7010008E70100080F
:1001300000F002F800F03AF80AA090E8000C8244BF
:100140008344AAF10107DA4501D100F02FF8AFF29C
:10015000090EBAE80F0013F0010F18BFFB1A43F0A5
:1001600001031847580E0000780E0000103A24BF13
:1001700078C878C1FAD8520724BF30C830C144BF0C
:1001800004680C607047000000230024002500264E
:10019000103A28BF78C1FBD8520728BF30C148BFEA
:1001A0000B6070471FB51FBD10B510BD00F031F8D2
:1001B0001146FFF7F7FF00F0D9FE00F04FF803B447
:1001C000FFF7F2FF03BC00F057F800000948804732
:1001D00009480047FEE7FEE7FEE7FEE7FEE7FEE729
:1001E000FEE7FEE7FEE7FEE704480549054A064B41
:1001F00070470000010F0008310100087000002066
:1002000070060020700200207002002070477047C6
:100210007047754600F02CF8AE4605006946534617
:1002200020F00700854618B020B5FFF7DDFFBDE8D8
:1002300020404FF000064FF000074FF000084FF04D
:10024000000B21F00701AC46ACE8C009ACE8C009DE
:10025000ACE8C009ACE8C0098D46704710B504464B
:10026000AFF300802046BDE81040FFF7A8BF0000B4
:10027000004870470C00002001491820ABBEFEE783
:10028000260002007047FEE77047802000F04CB85F
:100290000F4800B5816985B041F004018161806932
:1002A000694600F004000490802000900948019005
:1002B00001200290084800F043F80222114617205E
:1002C00000F078F9172000F069F905B000BD0000D2
:1002D00000100240000021100008014031B500F07C
:1002E0002BF9044600F028F90099001B8842F9D345
:1002F00038BD000010B5642000F02BFE08480178DE
:1003000029B100210170074819B1002202E0012142
:10031000F8E70122BDE81040012100F007B9000014
:1003200008000020000C0140044910B50A68024290
:1003300002D00860FFF7DEFF10BD0000140401408A
:100340002DE9F84FDFF8BC91002309F1040A0AF106
:10035000040B1C464FF00F080BF1040E01270A682E
:10036000A7403A40BA4272D1DFF89CC14D68A5EB74
:100370000C0665452BD00DDC032D34D005DC35B3E0
:10038000012D19D0022D2FD11BE0112D16D0122DC9
:100390002AD119E0B6F5881F19D006DCB6F5803FE2
:1003A00015D0B6F5801F1FD111E0B6F5001F0ED095
:1003B000B6F5041F18D10AE0CB6815E0CB681B1D09
:1003C00012E0CB6808330FE0CB680C330CE08B688D
:1003D0002BB1012B4FF0080303D0476104E0042345
:1003E00002E0076100E00023FF2A01D8064601E091
:1003F00000F104064FEA840501D9A5F1200537680C
:1004000008FA05FC27EA0C0703FA05F547EA050791
:1004100037604D68ED006ED53C4DAE6946F0010683
:10042000AE61AD6924F0030605F001050095384D75
:100430007719BE68A5072D0F08FA05FC26EA0C06F9
:10044000DFF8D0C0604503D14FF0000C25E052E04A
:10045000DFF8C4C0604502D14FF0010C1DE0DFF8A9
:10046000BCC0604502D14FF0020C16E0DFF8B0C00E
:10047000604502D14FF0030C0FE0DFF8A8C06045E3
:1004800002D14FF0040C08E0DFF89CC0604502D1B7
:100490004FF0050C01E04FF0060C0CFA05FC4CEA9D
:1004A000060CC7F808C04D68D9F80060ED034D464A
:1004B00001D5164300E096432E604D68DAF80060DF
:1004C000AD03554601D5164300E096432E604D68B6
:1004D000DBF80060ED025D4601D5164300E096436F
:1004E0002E604D68DEF80060AD02754601D51643FA
:1004F00000E096432E60641C102CFFF42FAFBDE883
:10050000F88F0000000401400000111000100240AC
:100510000000014000080140000C014000100140B3
:100520000014014000180140001C01400AB10161A3
:1005300070470904FBE700000148006870470000AD
:100540000400002002480168491C01607047000057
:1005500004000020074810B5016841F01001016057
:10056000032000F047F80F2000F006F800F015F81F
:10057000002010BD0020024010B5044600F00CF928
:100580004FF47A71B0FBF1F000F019FC0022214623
:10059000501E00F00FF8002010BD704700F01F0241
:1005A000012191404009800000F1E020C0F80011D5
:1005B00070470000F0B40E4B1B68C3F30223C3F175
:1005C0000704042C00D904241D1D072D01D200238B
:1005D00000E0DB1E012606FA04F56D1E0D409D406D
:1005E0009E40761E164045EA0601F0BC00F040BC75
:1005F0000CED00E0064A00F0070110684FF6FF031B
:10060000184040EA01200349084310607047000089
:100610000CED00E00000FA052DE9F047DFF86881F5
:1006200004460E46D8F8000000F00700B0420CD295
:10063000D8F8001021F007013143C8F80010D8F8AD
:10064000000000F00700B04273D120784F4F8007C0
:1006500005D57868A16820F0F0000843786020781C
:10066000C00755D06068012201280CD0022828D08C
:10067000022393FAA3F1B1FA81F141F02001490973
:1006800004D0396803E04FF40033F2E7796A93FA53
:10069000A3F3B3FA83F303F01F039A40114248D047
:1006A000796821F0030101437960FFF745FF0546B2
:1006B000606841F2883101280CD00228894615D0A3
:1006C00022E04FF00073D4E7FFF736FF411B4945A6
:1006D00001D916E089467868C0F381000128F3D17A
:1006E00016E0FFF729FF411B49450AD87868C0F397
:1006F00081000228F5D10BE0FFF71EFF411B4945A1
:1007000002D90320BDE8F087786810F00C0FF3D110
:10071000D8F80010404601F00701B1420BD901683A
:1007200021F0070131430160006800F00700B0428A
:1007300001D00120E6E72078400705D57868E16818
:1007400020F4E060084378602078000706D57868D8
:10075000216920F4605040EAC100786000F022F87E
:100760007968F02292FAA2F201F0F001B2FA82F274
:10077000D140074A515CC840064908600F20FFF786
:10078000FBFE0020BEE700000020024000100240F7
:10079000AC0F00080000002001480068704700000E
:1007A0000000002010B519A085B00FC88DE80F001B
:1007B0001AA01B4B0068049059681A4801F00C02FB
:1007C000042A1DD0082A1BD14FF4701494FAA4F403
:1007D00001F47012B4FA84F4E240C9031DF8022057
:1007E00010D559684FF4003393FAA3F301F40031A4
:1007F000B3FA83F3D94004AB595CB0FBF1F050433A
:1008000005B010BD08485043FAE700000203040594
:10081000060708090A0B0C0D0E0F1010010200004C
:100820000010024000127A0000093D002DE9F84F47
:1008300004460078FE4EC0074FF001057FD0706877
:100840004FF40038C0F38100012807D07068C0F36E
:10085000810002281BD17068C00318D598FAA8F04F
:10086000B0FA80F040F02000400901D0306800E08C
:10087000706A98FAA8F1B1FA81F101F01F0105FA46
:1008800001F108425BD06068002879D057E06068C9
:10089000B0F5803F0BD010B1B0F5A02F11D030686B
:1008A00020F480303060306820F4802002E030682E
:1008B00040F480303060606818B3FFF73DFE0746B3
:1008C00009E0306840F480203060F0E7FFF734FE44
:1008D000C01B642870D898FAA8F0B0FA80F040F0F5
:1008E0002000400901D0306800E0706A98FAA8F151
:1008F000B1FA81F101F01F0105FA01F10842E5D0DA
:100900001DE0FFF719FE074604E0FFF715FEC01BC8
:100910006428DFD898FAA8F0B0FA80F040F0200000
:10092000400901D0306800E0706A98FAA8F1B1FA85
:1009300081F101F01F0105FA01F10842E5D12078AB
:10094000DFF8F08280074FF0000A4FF002075AD517
:1009500070684FF0F80B10F00C0F07D07068C0F300
:10096000810002281CD17068C00319D497FAA7F03F
:10097000B0FA80F040F02000400902D0306801E079
:100980008AE0706A97FAA7F1B1FA81F101F01F01CC
:1009900005FA01F108422BD0206901287CD127E01B
:1009A000206988B395FAA5F0B0FA80F048F8205095
:1009B000FFF7C2FD814606E04DE1FFF7BDFDA0EB6C
:1009C0000900022886D897FAA7F0B0FA80F040F024
:1009D0002000400901D0306800E0706A97FAA7F162
:1009E000B1FA81F101F01F0105FA01F10842E4D0EA
:1009F00030689BFAABF220F0F8016069B2FA82F23B
:100A000090400143316025E0FFE795FAA5F1B1FA86
:100A100081F148F821A0FFF78FFD814605E0FFF73F
:100A20008BFDA0EB09000228CCD897FAA7F0B0FA0A
:100A300080F040F02000400901D0306800E0706A8A
:100A400097FAA7F1B1FA81F101F01F0105FA01F15E
:100A50000842E4D1207800076DD5A069B8B395FAB3
:100A6000A5F0B0FA80F008EB8000C0F88054FFF7E2
:100A700063FD814605E0FFF75FFDA0EB090002285A
:100A8000A0D897FAA7F0B0FA80F040F06000B5EB7C
:100A9000501F02D130680CE063E197FAA7F0B0FA7A
:100AA00080F040F06000B7EB501F01D1306A00E0E9
:100AB000706A97FAA7F1B1FA81F101F01F0105FA06
:100AC00001F21042D7D00120FFF708FC33E0FFE726
:100AD00095FAA5F1B1FA81F108EB8101C1F880A482
:100AE000FFF72AFD814605E0FFF726FDA0EB090090
:100AF000022899D897FAA7F0B0FA80F040F0600089
:100B0000B5EB501F01D130680BE097FAA7F0B0FAAF
:100B100080F040F06000B7EB501F01D1306A00E078
:100B2000706A97FAA7F1B1FA81F101F01F0105FA95
:100B300001F21042D8D12078400763D5F06940F027
:100B40008050F061F069DFF8F0B000F08050009064
:100B5000DBF8001041F48071CBF80010FFF7ECFCDB
:100B6000814605E0FFF7E8FCA0EB0900642872D895
:100B7000DBF80000C005F5D5E06801280AD008B10F
:100B8000052813D0306A20F001003062306A20F06E
:100B9000040002E0306A40F001003062E06841F297
:100BA000883B80B3FFF7C8FC81460AE0306A40F01A
:100BB00004003062EEE7FFF7BFFCA0EB09015945E6
:100BC00049D897FAA7F0B0FA80F040F04000B5EBB2
:100BD000501F01D130680BE097FAA7F0B0FA80F00F
:100BE00040F04000B7EB501F01D1306A00E0706A5E
:100BF00097FAA7F1B1FA81F101F01F0205FA02F1AB
:100C00000842D8D033E0FFE7FFF796FC814605E0C5
:100C1000FFF792FCA0EB090159451CD897FAA7F001
:100C2000B0FA80F040F04000B5EB501F08D105E06D
:100C300000100240000042420070004030680CE0AA
:100C400097FAA7F0B0FA80F040F04000B7EB501FE1
:100C500002D1306A01E08AE0706A97FAA7F1B1FA2E
:100C600081F101F01F0205FA02F10842D0D1E069DA
:100C700098B37168C1F38101022972D002284FF044
:100C800080714FF0007B50460AD091FAA1F1B1FA81
:100C900081F148F82100FFF74FFC04465F4669E008
:100CA0008A4691FAA1F1B1FA81F1C14648F82100D2
:100CB000FFF742FCA84607465D4604E0FFF73CFC10
:100CC000C01B022853D895FAA5F0B0FA80F040F086
:100CD0002000400902D0306801E060E0706A95FAB7
:100CE000A5F1B1FA81F101F01F0208FA02F1084200
:100CF000E4D1206AB0F5803F05D17068A16820F486
:100D0000003008437060D4E908010843716821F499
:100D10007411084370609AFAAAF0B0FA80F047465E
:100D200049F82080FFF708FC044604E0FFF704FCC4
:100D3000001B02281BD895FAA5F0B0FA80F040F00D
:100D40002000400901D0306800E0706A95FAA5F1F2
:100D5000B1FA81F101F01F0107FA01F10842E5D073
:100D60001DE01EE0FFF7E8FB001B022802D903206C
:100D7000BDE8F88F97FAA7F0B0FA80F040F02000B5
:100D8000400901D0306800E0706A97FAA7F1B1FA23
:100D900081F101F01F0105FA01F10842E2D10020C2
:100DA000E6E70120E4E74FF0E0210428086903D0DA
:100DB00020F004000861704740F00400FAE710B525
:100DC000401EB0F1807F01D3012010BD4FF0E02420
:100DD00060610F21601700F04BF80020A061072030
:100DE0002061002010BDFEE70C4800B5816985B088
:100DF00041F0040181618069694600F004000490BB
:100E00008020009000200190012002900320039098
:100E10000348FFF795FA05B000BD0000001002403E
:100E20000008014030B50F4885B0816941F00801E4
:100E30008161806946F2030400F0080004900120FB
:100E4000CDE9004002900320074D039069462846F3
:100E5000FFF776FA012221462846FFF767FB05B027
:100E600030BD000000100240000C0140FEE770475A
:100E70000907090E002806DA00F00F0000F1E02053
:100E800080F8141D704700F1E02080F800147047CE
:100E900070477047FFF756BB30B58FB00224012072
:100EA000049000941020059000254FF46010CDE9C7
:100EB000085007946846FFF7B9FC00B1FEE70AA99D
:100EC0000F2081E831004FF48060CDE90D0502214B
:100ED0000AA8FFF7A1FB00B1FEE7FFF75DFC4FF4A6
:100EE0007A71B0FBF1F0FFF76AFF0420FFF75BFFB8
:100EF00000221146501EFFF75DFB0FB030BD000011
:100F00000F4810B5016841F00101016041680D4AC8
:100F10001140416001680C4A11400160016821F4F0
:100F200080210160416821F4FE0141604FF41F01FE
:100F30008160FFF7B1FF05494FF00060086010BD08
:100F4000001002400000FFF8FFFFF6FE08ED00E091
:100F5000FEE700224FF4C85304E00021491C9942E7
:100F6000FCD3521C8242F8D370470000FFF7F2FA1C
:100F7000FFF758FFFFF738FFFFF78AF90A4C4FF4E5
:100F800080464FF4FA75002231462046FFF7CEFA2C
:100F90002846FFF7DEFF012231462046FFF7C6FA5A
:100FA0002846FFF7D6FFEEE7000C014000000000E6
:100FB000000000000102030406070809DC0F000816
:100FC000000000200C0000006C010008E80F000881
:100FD0000C000020640600008801000800A24A04FA
:080FE000000000000000000009
:0400000508000131BD
:00000001FF
