:020000040800F2
:10000000680A0020DD01000809160008051600082E
:100010000716000839050008F91E00080000000056
:10002000000000000000000000000000A51700080C
:100030003B050008000000002B160008A717000869
:10004000F7010008F7010008F7010008F7010008B0
:10005000F7010008F7010008F7010008F7010008A0
:10006000F7010008F7010008F7010008F701000890
:10007000F7010008F7010008F7010008F701000880
:10008000F7010008F7010008F7010008F701000870
:10009000F7010008F7010008F7010008F701000860
:1000A000F7010008F7010008F7010008F701000850
:1000B000F70100086D180008F7010008F7010008B3
:1000C000F7010008F7010008F7010008F701000830
:1000D000F7010008151D0008791E0008F701000847
:1000E000F7010008F7010008F7010008F701000810
:1000F000F7010008F7010008F7010008F701000800
:10010000F7010008F7010008F7010008F7010008EF
:10011000F7010008F7010008F7010008F7010008DF
:10012000F7010008F7010008F7010008F7010008CF
:1001300000F002F800F042F80AA090E8000C8244B7
:100140008344AAF10107DA4501D100F037F8AFF294
:10015000090EBAE80F0013F0010F18BFFB1A43F0A5
:1001600001031847BC1E0000DC1E0000103A24BF2B
:1001700078C878C1FAD8520724BF30C830C144BF0C
:1001800004680C607047000000230024002500264E
:10019000103A28BF78C1FBD8520728BF30C148BFEA
:1001A0000B607047642900F0A580732900F05F811F
:1001B000002070471FB51FBD10B510BD00F08AF9B3
:1001C0001146FFF7F7FF01F007FF00F0A8F903B4AD
:1001D000FFF7F2FF03BC01F090FE000009488047E2
:1001E00009480047FEE7FEE7FEE7FEE7FEE7FEE719
:1001F000FEE7FEE7FEE7FEE704480549054A064B31
:10020000704700001D180008310100086804002034
:10021000680A002068060020680600207047000079
:100220000FB4044910B503AA029800F025F910BCD8
:100230005DF814FB1C0000202DE9F0410E46044639
:10024000002020622046E168884730B3252805D089
:10025000D4E901219047206A401CF2E7E16820467A
:1002600000278847050018D0A5F14100192802D8B9
:1002700020354FF400673246294620462760FFF7B5
:1002800091FF40B1012804D0F61D26F0070608367C
:10029000D8E7361DD6E72846DAE7206ABDE8F081C0
:1002A00070B50C460546012A05D02878800600D591
:1002B000EA69002302E0012305E05B1C934202D2BD
:1002C000E05C0028F9D1A869E618C01AA861286A7C
:1002D000184428622846AFF3008004E0D5E90121E4
:1002E00014F8010B9047B442F8D32846AFF30080CE
:1002F00070BD00002DE9F041064600241068752904
:10030000314616A510D0AFF30080002802DA404233
:1003100013A507E031688A0701D512A502E0490755
:1003200004D511A5012401E0AFF3008000210A22C9
:1003300006F1240709E0B0FBF2FCB0FBF2F302FB8C
:100340001C00303078541846491C0028F3D123464D
:100350002A463046BDE8F04100F01EB8000000001B
:100360002D0000002B0000002000000030B50546E5
:100370000B462A4613F8014B12F8010B08B1A042B4
:10038000F8D01CB1002802D06D1CF1E7284630BD22
:1003900070477047704770472DE9F0470D46994602
:1003A0009246044600F124080168880604D5E069F5
:1003B00021F01001216000E00120A84201DD471B6F
:1003C00000E00027A1697A1902EB0900081AA06170
:1003D0002078C00602D42046AFF30080002608E053
:1003E000D4E901211AF806009047206A401C761CC7
:1003F00020624E45F4DB2078C0060AD52046AFF3D4
:10040000008006E0D4E9012130209047206A401C9A
:100410002062381EA7F10107F4DC07E0D4E90121CE
:1004200018F805009047206A401C2062281EA5F19C
:100430000105F3DC2046AFF300802078000602D5EA
:100440000220BDE8F0870120FBE710B5436913B136
:10045000AFF3008001E0FFF723FF012010BD127809
:1004600000F124010A7000224A700122EDE71168B0
:100470004FF0FF32E9E70000074B70B50D467B44B3
:1004800000F011F80446284600F020F810B14FF0B3
:10049000FF3070BD204670BD231B000001694A1C5F
:1004A00002610878704700B58FB0CDE901310021B5
:1004B000059105497944CDE9031011466846FFF7D7
:1004C000BBFE0FB000BD0000E5FFFFFF007B00F0AA
:1004D00080007047754600F02BF8AE46050069466F
:1004E000534620F00700854618B020B5FFF784FE7C
:1004F000BDE820404FF000064FF000074FF0000825
:100500004FF0000B21F00701AC46ACE8C009ACE8A5
:10051000C009ACE8C009ACE8C0098D46704710B509
:100520000446AFF300802046BDE81040FFF74FBE01
:100530000048704704040020FEE7704770B54FF490
:10054000FA64224617A118A001F0EEFC40F6B83577
:100550002A4614A116A001F0E7FC2A4618A119A00A
:1005600001F0E2FC2A460FA119A001F0DDFCAA006F
:100570000CA11AA001F0D8FC2A460AA11FA001F084
:10058000D3FC2A4607A127A001F0CEFC224605A1F4
:1005900028A001F0C9FC2BA0FFF742FE2B49012047
:1005A000087070BD4F4B000041540D0A0000000060
:1005B00041542B43574D4F44453D310D0A00000037
:1005C0003000000041542B5253540D0A000000002B
:1005D00041542B43494653520D0A000041542B43CA
:1005E000574A41503D2242424343222C223132336A
:1005F0003435363738220D0A0000000041542B43B1
:10060000495053544152543D22544350222C2231DC
:1006100039322E3136382E342E33222C38303830C1
:100620000D0A000041542B4349504D4F44453D3184
:100630000D0A000041542B43495053454E440D0AC6
:100640000000000032320D0A000000000D00002002
:1006500031B500F005F9044600F002F90099001BDD
:100660008842F9D338BD00002DE9F84FDFF8BC917E
:10067000002309F1040A0AF1040B1C464FF00F088D
:100680000BF1040E01270A68A7403A40BA4272D122
:10069000DFF89CC14D68A5EB0C0665452BD00DDC41
:1006A000032D34D005DC35B3012D19D0022D2FD107
:1006B0001BE0112D16D0122D2AD119E0B6F5881F96
:1006C00019D006DCB6F5803F15D0B6F5801F1FD1D6
:1006D00011E0B6F5001F0ED0B6F5041F18D10AE0E0
:1006E000CB6815E0CB681B1D12E0CB6808330FE028
:1006F000CB680C330CE08B682BB1012B4FF0080357
:1007000003D0476104E0042302E0076100E0002316
:10071000FF2A01D8064601E000F104064FEA8405ED
:1007200001D9A5F12005376808FA05FC27EA0C076E
:1007300003FA05F547EA050737604D68ED006ED509
:100740003C4DAE6946F00106AE61AD6924F003068A
:1007500005F001050095384D7719BE68A5072D0FE6
:1007600008FA05FC26EA0C06DFF8D0C0604503D184
:100770004FF0000C25E052E0DFF8C4C0604502D124
:100780004FF0010C1DE0DFF8BCC0604502D14FF016
:10079000020C16E0DFF8B0C0604502D14FF0030C48
:1007A0000FE0DFF8A8C0604502D14FF0040C08E06C
:1007B000DFF89CC0604502D14FF0050C01E04FF01E
:1007C000060C0CFA05FC4CEA060CC7F808C04D688C
:1007D000D9F80060ED034D4601D5164300E096437D
:1007E0002E604D68DAF80060AD03554601D516431A
:1007F00000E096432E604D68DBF80060ED025D4638
:1008000001D5164300E096432E604D68DEF8006087
:10081000AD02754601D5164300E096432E60641C78
:10082000102CFFF42FAFBDE8F88F0000000401404A
:1008300000001110001002400000014000080140BB
:10084000000C01400010014000140140001801405C
:10085000001C01400AB1016170470904FBE7000078
:100860000148006870470000080000200248016845
:10087000491C01607047000008000020074810B5BF
:10088000016841F010010160032000F047F80F20DB
:1008900000F006F800F015F8002010BD002002401E
:1008A00010B5044600F00CF94FF47A71B0FBF1F08A
:1008B00000F049FC00222146501E00F00FF80020F5
:1008C00010BD704700F01F020121914040098000D7
:1008D00000F1E020C0F8001170470000F0B40E4BAA
:1008E0001B68C3F30223C3F10704042C00D90424BA
:1008F0001D1D072D01D2002300E0DB1E012606FA94
:1009000004F56D1E0D409D409E40761E164045EA42
:100910000601F0BC00F079BE0CED00E0064A00F0E4
:10092000070110684FF6FF03184040EA0120034911
:1009300008431060704700000CED00E00000FA056D
:100940002DE9F047DFF8688104460E46D8F800002C
:1009500000F00700B0420CD2D8F8001021F00701D7
:100960003143C8F80010D8F8000000F00700B0428A
:1009700073D120784F4F800705D57868A16820F0A3
:10098000F000084378602078C00755D060680122E5
:1009900001280CD0022828D0022393FAA3F1B1FA3F
:1009A00081F141F02001490904D0396803E04FF496
:1009B0000033F2E7796A93FAA3F3B3FA83F303F00F
:1009C0001F039A40114248D0796821F00301014386
:1009D0007960FFF745FF0546606841F288310128DC
:1009E0000CD00228894615D022E04FF00073D4E7DE
:1009F000FFF736FF411B494501D916E08946786863
:100A0000C0F381000128F3D116E0FFF729FF411B55
:100A100049450AD87868C0F381000228F5D10BE077
:100A2000FFF71EFF411B494502D90320BDE8F087AF
:100A3000786810F00C0FF3D1D8F80010404601F0A0
:100A40000701B1420BD9016821F007013143016070
:100A5000006800F00700B04201D00120E6E72078EE
:100A6000400705D57868E16820F4E06008437860C5
:100A70002078000706D57868216920F4605040EAA4
:100A8000C100786000F052F87968F02292FAA2F280
:100A900001F0F001B2FA82F2D140074A515CC8403D
:100AA000064908600F20FFF7FBFE0020BEE70000AC
:100AB000002002400010024008200008040000202E
:100AC00001480068704700000400002008480949F8
:100AD000006849684FF4E06292FAA2F201F4E06122
:100AE000B2FA82F2D140044A515CC840704700001B
:100AF000040000200010024018200008084809499E
:100B0000006849684FF4605292FAA2F201F4605111
:100B1000B2FA82F2D140044A515CC84070470000EA
:100B200004000020001002401820000810B519A091
:100B300085B00FC88DE80F001AA01B4B0068049009
:100B400059681A4801F00C02042A1DD0082A1BD14A
:100B50004FF4701494FAA4F401F47012B4FA84F40B
:100B6000E240C9031DF8022010D559684FF4003344
:100B700093FAA3F301F40031B3FA83F3D94004AB41
:100B8000595CB0FBF1F0504305B010BD084850432C
:100B9000FAE7000002030405060708090A0B0C0D1A
:100BA0000E0F1010010200000010024000127A0027
:100BB00000093D002DE9F84F04460078FE4EC007BD
:100BC0004FF001057FD070684FF40038C0F381000A
:100BD000012807D07068C0F3810002281BD170681B
:100BE000C00318D598FAA8F0B0FA80F040F02000C1
:100BF000400901D0306800E0706A98FAA8F1B1FAB3
:100C000081F101F01F0105FA01F108425BD0606833
:100C1000002879D057E06068B0F5803F0BD010B164
:100C2000B0F5A02F11D0306820F4803030603068EB
:100C300020F4802002E0306840F48030306060684A
:100C400018B3FFF70DFE074609E0306840F4802036
:100C50003060F0E7FFF704FEC01B642870D898FAF4
:100C6000A8F0B0FA80F040F02000400901D03068D0
:100C700000E0706A98FAA8F1B1FA81F101F01F0161
:100C800005FA01F10842E5D01DE0FFF7E9FD07464E
:100C900004E0FFF7E5FDC01B6428DFD898FAA8F050
:100CA000B0FA80F040F02000400901D0306800E048
:100CB000706A98FAA8F1B1FA81F101F01F0105FA02
:100CC00001F10842E5D12078DFF8F08280074FF08B
:100CD000000A4FF002075AD570684FF0F80B10F079
:100CE0000C0F07D07068C0F3810002281CD1706817
:100CF000C00319D497FAA7F0B0FA80F040F02000B2
:100D0000400902D0306801E08AE0706A97FAA7F1E2
:100D1000B1FA81F101F01F0105FA01F108422BD06F
:100D2000206901287CD127E0206988B395FAA5F0D5
:100D3000B0FA80F048F82050FFF792FD814606E0B7
:100D40004DE1FFF78DFDA0EB0900022886D897FA48
:100D5000A7F0B0FA80F040F02000400901D03068E0
:100D600000E0706A97FAA7F1B1FA81F101F01F0172
:100D700005FA01F10842E4D030689BFAABF220F0AA
:100D8000F8016069B2FA82F290400143316025E0D7
:100D9000FFE795FAA5F1B1FA81F148F821A0FFF734
:100DA0005FFD814605E0FFF75BFDA0EB090002282F
:100DB000CCD897FAA7F0B0FA80F040F020004009B4
:100DC00001D0306800E0706A97FAA7F1B1FA81F1BA
:100DD00001F01F0105FA01F10842E4D12078000773
:100DE0006DD5A069B8B395FAA5F0B0FA80F008EB1C
:100DF0008000C0F88054FFF733FD814605E0FFF71F
:100E00002FFDA0EB09000228A0D897FAA7F0B0FAAE
:100E100080F040F06000B5EB501F02D130680CE06C
:100E200063E197FAA7F0B0FA80F040F06000B7EB0A
:100E3000501F01D1306A00E0706A97FAA7F1B1FA49
:100E400081F101F01F0105FA01F21042D7D0012013
:100E5000FFF7FEFB33E0FFE795FAA5F1B1FA81F168
:100E600008EB8101C1F880A4FFF7FAFC814605E098
:100E7000FFF7F6FCA0EB0900022899D897FAA7F033
:100E8000B0FA80F040F06000B5EB501F01D130683F
:100E90000BE097FAA7F0B0FA80F040F06000B7EBF3
:100EA000501F01D1306A00E0706A97FAA7F1B1FAD9
:100EB00081F101F01F0105FA01F21042D8D120782A
:100EC000400763D5F06940F08050F061F069DFF8C9
:100ED000F0B000F080500090DBF8001041F4807119
:100EE000CBF80010FFF7BCFC814605E0FFF7B8FC2B
:100EF000A0EB0900642872D8DBF80000C005F5D526
:100F0000E06801280AD008B1052813D0306A20F023
:100F100001003062306A20F0040002E0306A40F0E4
:100F200001003062E06841F2883B80B3FFF798FC33
:100F300081460AE0306A40F004003062EEE7FFF7D5
:100F40008FFCA0EB0901594549D897FAA7F0B0FAF0
:100F500080F040F04000B5EB501F01D130680BE04D
:100F600097FAA7F0B0FA80F040F04000B7EB501FBE
:100F700001D1306A00E0706A97FAA7F1B1FA81F105
:100F800001F01F0205FA02F10842D8D033E0FFE772
:100F9000FFF766FC814605E0FFF762FCA0EB090164
:100FA00059451CD897FAA7F0B0FA80F040F04000FD
:100FB000B5EB501F08D105E000100240000042428E
:100FC0000070004030680CE097FAA7F0B0FA80F0AB
:100FD00040F04000B7EB501F02D1306A01E08AE0D8
:100FE000706A97FAA7F1B1FA81F101F01F0205FAD0
:100FF00002F10842D0D1E06998B37168C1F3810170
:10100000022972D002284FF080714FF0007B5046C9
:101010000AD091FAA1F1B1FA81F148F82100FFF765
:101020001FFC04465F4669E08A4691FAA1F1B1FAD5
:1010300081F1C14648F82100FFF712FCA846074697
:101040005D4604E0FFF70CFCC01B022853D895FA5C
:10105000A5F0B0FA80F040F02000400902D03068DE
:1010600001E060E0706A95FAA5F1B1FA81F101F052
:101070001F0208FA02F10842E4D1206AB0F5803F6D
:1010800005D17068A16820F4003008437060D4E98D
:1010900008010843716821F47411084370609AFADA
:1010A000AAF0B0FA80F0474649F82080FFF7D8FB55
:1010B000044604E0FFF7D4FB001B02281BD895FA76
:1010C000A5F0B0FA80F040F02000400901D030686F
:1010D00000E0706A95FAA5F1B1FA81F101F01F0103
:1010E00007FA01F10842E5D01DE01EE0FFF7B8FB6A
:1010F000001B022802D90320BDE8F88F97FAA7F059
:10110000B0FA80F040F02000400901D0306800E0E3
:10111000706A97FAA7F1B1FA81F101F01F0105FA9F
:1011200001F10842E2D10020E6E70120E4E74FF0B8
:10113000E0210428086903D020F00400086170470A
:1011400040F00400FAE710B5401EB0F1807F01D3F3
:10115000012010BD4FF0E02460610F21601700F006
:1011600054FA0020A06107202061002010BD7047C4
:10117000704710B5040003D094F8390010B107E0AF
:10118000012010BD002084F83800204600F00CF843
:10119000022084F83900211D206800F083FB012023
:1011A00084F83900002010BD08B500680B4988425A
:1011B00012D10B48C16941F00201C161C06903222B
:1011C00000F00200009001211D20FFF787FBBDE821
:1011D00008401D20FFF776BB08BD0000000400405A
:1011E000001002400168CA6842F00102CA6000684B
:1011F000016841F00101016000207047704770B53F
:101200000446006801694FF00005C943890715D4F9
:10121000C168C943890711D4E91E01610120207604
:10122000206880698007204602D0FFF7E7FF04E0CE
:1012300000F098F8204600F096F8257620680169BD
:10124000C943490717D4C168C943490713D46FF08C
:1012500004010161022020762068806910F4407F3B
:10126000204602D0FFF7CAFF04E000F07BF82046DA
:1012700000F079F8257620680169C943090716D47A
:10128000C168C943090712D46FF008010161042045
:1012900020762068C0698007204602D0FFF7AEFFA5
:1012A00004E000F05FF8204600F05DF82576206845
:1012B0000169C943C90617D4C168C943C90613D413
:1012C0006FF010010161082020762068C06910F4D9
:1012D000407F204602D0FFF791FF04E000F042F883
:1012E000204600F040F8257620680169C943C90707
:1012F00008D1C168C943C90704D1891E01612046CC
:1013000000F032F820680169C943090609D4C168B0
:10131000C943090605D46FF0800101612046FFF73B
:1013200026FF20680169C943490609D4C168C94339
:10133000490605D46FF040010161204600F022F813
:1013400020680169C94389060BD4C168C94389066D
:1013500007D46FF0200101612046BDE87040FFF71F
:1013600007BF70BD704770470449884205D10448E3
:10137000017809B14168491C41607047C8030020E9
:10138000200000207047704738B5044600680168A7
:10139000C268C1F3000102F4807221B11AB1E16B9D
:1013A00041F00101E1630168C1F34002416901F0CC
:1013B000010122B119B1E26B42F00402E26302685A
:1013C000C2F3800222B119B1E26B42F00202E26381
:1013D0000268C2F3C00222B119B1E16B41F0080109
:1013E000E1630168C068C1F3401100F0200019B149
:1013F00010B1204600F0DAFA20680168C068C1F335
:10140000C01100F0800019B110B1204600F0DAFBE5
:1014100021680868CA68C0F3801002F04002012504
:1014200068B162B1CA68204622F04002CA6094F8EE
:101430003910322910D080F8395000F0E2F8E06B12
:10144000002808D0206801684068009084F839506E
:101450002046FFF798FF38BD222180F83910ECE7CD
:1014600070B5040004D094F83900002510B106E0EE
:10147000012070BD84F83850204600F021F8022089
:1014800084F839002068C16821F40051C160204609
:1014900000F0E0FA2068016921F4904101612068C0
:1014A000416921F02A0141612068C16841F400517D
:1014B000C160E563012084F83900002070BD0000A0
:1014C000F0B50068304F0025304902220123032681
:1014D0002F4C85B0B8422CD1886940F00400886157
:1014E000886900F004000490886940F480408861B5
:1014F000886900F480400490886940F001008861A8
:10150000886900F00100049048158DE84D00694697
:101510002046FFF7A9F82115CDE9001569462046B8
:10152000FFF7A2F82520FFF7CDF903221146252069
:1015300026E0184FB84225D1886940F00400886140
:10154000886900F004000490C86940F40030C86164
:10155000C869694600F40030049004208DE84D000D
:101560002046FFF781F80821CDE90015694620469D
:10157000FFF77AF82620FFF7A5F903221146262067
:10158000FFF7ACF905B0F0BD003801400010024093
:10159000000801400044004090F83930012B01D090
:1015A000122B2BD131B32AB390F83830012B25D030
:1015B000012380F8383081628285C2850021C163B1
:1015C00090F83920122A17D0222280F8392080F88A
:1015D00038100168CA6842F48072CA6001684A69BA
:1015E00042F001024A610068C16841F02001C16017
:1015F00000207047012070473222E6E70220704742
:1016000070477047FEE7FEE770470907090E00289C
:1016100006DA00F00F0000F1E02080F8141D70479A
:1016200000F1E02080F80014704770472DE9F04188
:10163000404C414DDFF80481207886B04FF40046DD
:10164000E0B16088401C80B26080B0F5FA7F12D3B0
:10165000002767806078E8B3012857D002280AD1B4
:10166000002231464046FFF7F5F8012218212846AE
:10167000FFF7F0F8677006B0BDE8F081304A01204E
:101680002070916941F001019161916901F00101BE
:1016900004912C494B6823F0E06343F000734B60E6
:1016A000916941F008019161916901F0080104918B
:1016B000916941F00401916191690190029048F2B1
:1016C000180401F0040103200094CDE903016946E8
:1016D000284600E012E0FEF7C7FF6946474640464D
:1016E0000096FEF7C1FF012221462846FFF7B2F817
:1016F000012231463846FFF7ADF8BCE70022102141
:101700002846FFF7A7F80122082107E00022082158
:101710002846FFF79FF8012248F210012846FFF7FC
:1017200099F8012231464046FFF794F86078401C52
:101730006070A0E700000020000C0140000801409C
:101740000010024000000140044B4FF4807108B1CA
:10175000012200E000221846FFF77CB80008014093
:1017600030B50E4885B0816941F00401816180691E
:101770004FF4807400F0040004900120CDE9004093
:101780000220074D039069462846FEF76DFF0022B0
:1017900021462846FFF75EF805B030BD0010024034
:1017A00000080140704710B5FFF740FFBDE810404A
:1017B000FFF75CB830B58FB002240120049000948C
:1017C0001020059000254FF46010CDE908500794D3
:1017D0006846FFF7EFF900B1FEE70AA90F2081E89C
:1017E00031004FF48060CDE90D0502210AA8FFF712
:1017F000A7F800B1FEE7FFF763F94FF47A71B0FB89
:10180000F1F0FFF7A0FC0420FFF791FC0022114645
:10181000501EFFF763F80FB030BD00000F4810B541
:10182000016841F00101016041680D4A11404160C9
:1018300001680C4A11400160016821F480210160B7
:10184000416821F4FE0141604FF41F018160FFF700
:10185000B1FF05494FF00060086010BD0010024064
:101860000000FFF8FFFFF6FE08ED00E00148FFF77B
:10187000C6BC0000C8030020094A10B5074BC2E9E6
:1018800000310021C2E9021010461161FFF771FC1E
:10189000BDE810400248FFF7A5BC0000000400406E
:1018A000C8030020F0B502681A4D1B4E1B4FDFF82D
:1018B00070C01C4B4FF0804EA84209D0984207D010
:1018C000704505D0B04203D0B84201D0604503D185
:1018D00022F070044A682243A84209D0984207D0F7
:1018E000704505D0B04203D0B84201D0604503D165
:1018F00022F44074CA68224302608A68C2620A689D
:101900008262A84201D0984201D109690163012194
:101910004161F0BD002C014000040040000800407F
:10192000000C004000340140024900B10120087061
:1019300070470000200000200B4910B5094AC1E99A
:10194000002000208860C860086188610C20486120
:101950000846FFF785FDBDE8104001220349024813
:10196000FFF71ABE00380140F00000200E000020F2
:101970000C4910B50A4AC1E9002000208860C860FF
:101980000C220861C1E90520C8610846FFF768FD1F
:10199000BDE81040012204490248FFF7FDBD0000E8
:1019A00000440040880300200F00002010B590F88C
:1019B0003910222903D0322901D0022010BD8168BC
:1019C000B1F5805F11D00169002901681FD0496815
:1019D00001F07F03816A4A1C82620B70C18D491E2F
:1019E0000904090CC18518D02FE00269816A002A18
:1019F0000268526805D0D2B20A80816A491C8162AD
:101A0000ECE7C2F308020A80816A891CF7E74A689A
:101A1000816A4B1C83620A70E0E70168CA6822F0A1
:101A20002002CA6090F83910322910D00168CA68C3
:101A300022F48072CA6001684A6922F001024A6198
:101A4000012180F83910FFF7DBFD002010BD1221C5
:101A5000F7E700002DE9F041044600680169E268FB
:101A600021F4405111430161A1682069014360697B
:101A700001432068C26841F20C639A430A43C26082
:101A800020684169A26921F44071114341614C49C8
:101A900020686426322788423CD1FFF72FF800EBFC
:101AA000C00101EB001061688900B0FBF1F5FFF7A0
:101AB00025F800EBC00101EB00106168B846890011
:101AC000B0FBF1F0B0FBF6F06FF01801484305EB06
:101AD000800107EB0110B0FBF6F000F0F005FFF716
:101AE0000DF800EBC00101EB001061688900B0FB4C
:101AF000F1F0B0FBF6F005EB0015FEF7FFFF00EB91
:101B0000C00101EB001061688900B0FBF1F7FEF73E
:101B1000F5FF3BE0FEF7DAFF00EBC00101EB001040
:101B200061688900B0FBF1F5FEF7D0FF00EBC00162
:101B300001EB00106168B8468900B0FBF1F0B0FB22
:101B4000F6F06FF01801484305EB800107EB011038
:101B5000B0FBF6F000F0F005FEF7B8FF00EBC001B7
:101B600001EB001061688900B0FBF1F0B0FBF6F00A
:101B700005EB0015FEF7AAFF00EBC00101EB00101A
:101B800061688900B0FBF1F7FEF7A0FF00EBC00130
:101B900001EB001061688900B0FBF1F0B0FBF6F0DA
:101BA0006FF01801484307EB800108EB0110B0FB10
:101BB000F6F0216800F00F0028448860BDE8F0814D
:101BC0000038014090F83910122903D0322901D091
:101BD000022070478168B1F5805F016A0BD04A1C12
:101BE0000262026809785160C18C491E0904090C1F
:101BF000C1840ED017E009880268C1F30801516062
:101C000001690029016A02D0491C0162ECE7891CC4
:101C1000FBE70168CA6822F08002CA600068C168F8
:101C200041F04001C1600020704700002DE9F04103
:101C300000263046FFF788FD2C4DA868010452D5D8
:101C4000C7B22BA12C48FEF791FB2B4CF0B3092F08
:101C500006D00A2F07D00B2F0DD00C2F2FD11AE052
:101C6000267A303E2BE0207A244A00EB8000617A0D
:101C700002EB40000DE0607AA17A00EB800001EBFE
:101C80004001207A00EBC00202EB00101C4A02EB7C
:101C900080000E1813E0A07AE17A00EB800001EBDF
:101CA0004002617A64204143207A00EB4003C3EB99
:101CB000C01001EBC0001618A6F55046503E4FF478
:101CC000967000F063F931460EA000E001E0FEF7E7
:101CD000A7FA0021A960A980A8882154401C80B2DD
:101CE000A880C828F8D3BDE8F08100000C000020CF
:101CF0002D3E77696600000028000020F0FDFFFF00
:101D000030EBFFFF7769662D3E7769662564626375
:101D100000000000154830B400680068C043800629
:101D20001BD413480068134AC1B29068030414D44A
:101D300044044FF0000304D50A290DD140F40040BB
:101D400011E00D290DD0094DC0F30D04C83D401C14
:101D500029559060C72800D9936030BC0348FFF72D
:101D600013BB40F480409060F7E70000F0000020D3
:101D7000043801400C0000202DE9F041344E0024CD
:101D8000F068010461D5C7B232A13448FEF7EEFA1B
:101D9000324D10B30C2F06D00D2F07D00E2F0DD0C3
:101DA0000F2F2FD11AE0EC7A303C2BE0E87A2C4A46
:101DB00000EB8000297B02EB40000DE0287B697B73
:101DC00000EB800001EB4001E87A00EBC00202EB7F
:101DD0000010244A02EB80000C1813E0687BA97BFA
:101DE00000EB800001EB4002297B64204143E87A4C
:101DF00000EB4003C3EBC01001EBC0001418A4F5C6
:101E00005044503C4FF4967000F0C0F800273770F3
:101E10000120FFF799FC214613A0FEF701FA0A20E2
:101E200000F0B4F80020FFF78FFC012000F0AEF8BE
:101E300001203070F760B7804FF41671B0882F54CE
:101E4000401C80B2B0808842F8D3BDE8F081000029
:101E50000C0000202D3E7769660000003001002054
:101E6000F0FDFFFF30EBFFFF7769662D3E6C656488
:101E700025640D0A000000002DE9F04119480068B2
:101E80000068C043800621D417480068174DC4B2CB
:101E9000E86801041AD46978154F4FF416780026C3
:101EA000C9B1410404D50A2C0FD140F4004003E02D
:101EB0000D2C03D140F48040E86007E0C0F30D0131
:101EC000401C7C54E860404500D3EE60BDE8F04122
:101ED0000448FFF759BA0120FFF726FD05480660C0
:101EE000E868EBE788030020044400400C00002071
:101EF0003001002024000020FEE7704710B5084A9A
:101F0000044600209189090408D5D060FFF70CFD34
:101F10002146BDE810400348FEF728BA10BD000076
:101F20000C000020300100202DE9F05F134FDFF896
:101F30005080144C91468A46834600264FF416750D
:101F4000A680A0883E54401C80B2A080A842F8D34E
:101F500059460DA0FEF764F9484600F017F8D8F886
:101F600000000A2803D3E06840F40040E0605046D7
:101F7000FFF7C4FF0028E3D0BDE8F09F3001002048
:101F8000240000200C0000202573000000224FF4E4
:101F9000C85304E00021491C9942FCD3521C8242E0
:101FA000F8D370470949C3B2097831B108490A68C2
:101FB0005206FCD50649091D05E006490A68520685
:101FC000FCD50449091D0B60704700000C0000207F
:101FD0000044004000380140FEF750FC4FF4E1346B
:101FE0002046FFF7A9FC2046FFF7C2FCFFF7B8FB2D
:101FF0003F2140F2E730FFF73FFCFEF79FFAFFF783
:1020000015FEFFF7B9FEFAE700000000000000002F
:10201000010203040607080900000000010203048E
:102020004020000800000020280000006C0100088B
:102030006820000828000020400A000088010008ED
:102040000000F4010090D003000000000100000037
:102050000000000000000000000000000000000080
:08206000000000000000000078
:0400000508000131BD
:00000001FF
