:020000040800F2
:10000000180A0020CD0100088F10000841100008D8
:100010008D10000899020008391600080000000041
:100020000000000000000000000000002D12000889
:100030009B02000800000000B11000082F12000809
:10004000E7010008E7010008E7010008E7010008F0
:10005000E7010008E7010008E7010008E7010008E0
:10006000E7010008E7010008E7010008E7010008D0
:10007000E7010008E7010008E7010008E7010008C0
:10008000E7010008E7010008E7010008E7010008B0
:10009000E7010008E7010008E7010008E7010008A0
:1000A000E7010008E7010008E7010008E701000890
:1000B000E7010008E7010008E7010008E701000880
:1000C000E7010008E7010008E7010008E701000870
:1000D000E7010008AD150008F5150008E701000864
:1000E000E7010008E7010008E7010008E701000850
:1000F000E7010008E7010008E7010008E701000840
:10010000E7010008E7010008E7010008E70100082F
:10011000E7010008E7010008E7010008E70100081F
:10012000E7010008E7010008E7010008E70100080F
:1001300000F002F800F03AF80AA090E8000C8244BF
:100140008344AAF10107DA4501D100F02FF8AFF29C
:10015000090EBAE80F0013F0010F18BFFB1A43F0A5
:1001600001031847A4150000C4150000103A24BF6D
:1001700078C878C1FAD8520724BF30C830C144BF0C
:1001800004680C607047000000230024002500264E
:10019000103A28BF78C1FBD8520728BF30C148BFEA
:1001A0000B6070471FB51FBD10B510BD00F045F8BE
:1001B0001146FFF7F7FF01F041FA00F063F803B4CE
:1001C000FFF7F2FF03BC01F038FA0000094880474E
:1001D00009480047FEE7FEE7FEE7FEE7FEE7FEE729
:1001E000FEE7FEE7FEE7FEE704480549054A064B41
:1001F00070470000A5120008310100081804002013
:10020000180A00201806002018060020704730B594
:1002100005460B462A4613F8014B12F8010B08B1AC
:10022000A042F8D01CB1002802D06D1CF1E728468E
:1002300030BD7047704770477047754600F028F82A
:10024000AE4605006946534620F00700854618B0C3
:1002500020B5FFF7C9FFBDE820404FF000064FF082
:1002600000074FF000084FF0000B21F00701AC46EB
:10027000ACE8C009ACE8C009ACE8C009ACE8C0090A
:100280008D4670470446AFF300802046FFF797FF86
:1002900000487047B8030020FEE7704731B500F012
:1002A00009F9044600F006F90099001B8842F9D3C9
:1002B00038BD00002DE9F84FDFF8BC91002309F1AB
:1002C000040A0AF1040B1C464FF00F080BF1040E50
:1002D00001270A68A7403A40BA4272D1DFF89CC1B0
:1002E0004D68A5EB0C0665452BD00DDC032D34D0F5
:1002F00005DC35B3012D19D0022D2FD11BE0112DB6
:1003000016D0122D2AD119E0B6F5881F19D006DCB7
:10031000B6F5803F15D0B6F5801F1FD111E0B6F5B8
:10032000001F0ED0B6F5041F18D10AE0CB6815E007
:10033000CB681B1D12E0CB6808330FE0CB680C3391
:100340000CE08B682BB1012B4FF0080303D0476101
:1003500004E0042302E0076100E00023FF2A01D843
:10036000064601E000F104064FEA840501D9A5F133
:100370002005376808FA05FC27EA0C0703FA05F59B
:1003800047EA050737604D68ED006ED53C4DAE6914
:1003900046F00106AE61AD6924F0030605F00105E3
:1003A0000095384D7719BE68A5072D0F08FA05FC92
:1003B00026EA0C06DFF8D0C0604503D14FF0000CF0
:1003C00025E052E0DFF8C4C0604502D14FF0010CD7
:1003D0001DE0DFF8BCC0604502D14FF0020C16E012
:1003E000DFF8B0C0604502D14FF0030C0FE0DFF83A
:1003F000A8C0604502D14FF0040C08E0DFF89CC0B3
:10040000604502D14FF0050C01E04FF0060C0CFAEC
:1004100005FC4CEA060CC7F808C04D68D9F8006026
:10042000ED034D4601D5164300E096432E604D681E
:10043000DAF80060AD03554601D5164300E0964357
:100440002E604D68DBF80060ED025D4601D5164375
:1004500000E096432E604D68DEF80060AD02754600
:1004600001D5164300E096432E60641C102CFFF467
:100470002FAFBDE8F88F000000040140000011100C
:10048000001002400000014000080140000C014043
:10049000001001400014014000180140001C014000
:1004A000C2684A40C26070470AB1016170470904DE
:1004B000FBE70000014800687047000008000020CA
:1004C00002480168491C01607047000008000020D4
:1004D000074810B5016841F010010160032000F0E9
:1004E00047F80F2000F006F800F015F8002010BDC6
:1004F0000020024010B5044600F00CF94FF47A7168
:10050000B0FBF1F000F049FC00222146501E00F043
:100510000FF8002010BD704700F01F02012191402C
:100520004009800000F1E020C0F800117047000091
:10053000F0B40E4B1B68C3F30223C3F10704042C71
:1005400000D904241D1D072D01D2002300E0DB1E6D
:10055000012606FA04F56D1E0D409D409E40761E54
:10056000164045EA0601F0BC00F092BD0CED00E03B
:10057000064A00F0070110684FF6FF03184040EAF2
:100580000120034908431060704700000CED00E0B3
:100590000000FA052DE9F047DFF8688104460E46B1
:1005A000D8F8000000F00700B0420CD2D8F80010D4
:1005B00021F007013143C8F80010D8F8000000F01E
:1005C0000700B04273D120784F4F800705D5786877
:1005D000A16820F0F000084378602078C00755D06B
:1005E0006068012201280CD0022828D0022393FA47
:1005F000A3F1B1FA81F141F02001490904D0396831
:1006000003E04FF40033F2E7796A93FAA3F3B3FA05
:1006100083F303F01F039A40114248D0796821F018
:10062000030101437960FFF745FF0546606841F229
:10063000883101280CD00228894615D022E04FF0DD
:100640000073D4E7FFF736FF411B494501D916E097
:1006500089467868C0F381000128F3D116E0FFF7DE
:1006600029FF411B49450AD87868C0F38100022858
:10067000F5D10BE0FFF71EFF411B494502D90320CE
:10068000BDE8F087786810F00C0FF3D1D8F80010AF
:10069000404601F00701B1420BD9016821F0070182
:1006A00031430160006800F00700B04201D0012032
:1006B000E6E72078400705D57868E16820F4E06037
:1006C000084378602078000706D57868216920F40F
:1006D000605040EAC100786000F052F87968F0227A
:1006E00092FAA2F201F0F001B2FA82F2D140074A86
:1006F000515CC840064908600F20FFF7FBFE002050
:10070000BEE700000020024000100240F016000882
:100710000000002001480068704700000000002031
:1007200008480949006849684FF4E06292FAA2F269
:1007300001F4E061B2FA82F2D140044A515CC8404F
:100740007047000000000020001002400017000861
:1007500008480949006849684FF4605292FAA2F2C9
:1007600001F46051B2FA82F2D140044A515CC840AF
:100770007047000000000020001002400017000831
:1007800010B519A085B00FC88DE80F001AA01B4B3B
:100790000068049059681A4801F00C02042A1DD020
:1007A000082A1BD14FF4701494FAA4F401F47012C7
:1007B000B4FA84F4E240C9031DF8022010D5596848
:1007C0004FF4003393FAA3F301F40031B3FA83F347
:1007D000D94004AB595CB0FBF1F0504305B010BDFB
:1007E00008485043FAE70000020304050607080919
:1007F0000A0B0C0D0E0F1010010200000010024039
:1008000000127A0000093D002DE9F84F04460078F7
:10081000FE4EC0074FF001057FD070684FF40038DE
:10082000C0F38100012807D07068C0F3810002285E
:100830001BD17068C00318D598FAA8F0B0FA80F000
:1008400040F02000400901D0306800E0706A98FA5A
:10085000A8F1B1FA81F101F01F0105FA01F1084296
:100860005BD06068002879D057E06068B0F5803FC1
:100870000BD010B1B0F5A02F11D0306820F480302B
:100880003060306820F4802002E0306840F480302E
:100890003060606818B3FFF70DFE074609E0306866
:1008A00040F480203060F0E7FFF704FEC01B6428AE
:1008B00070D898FAA8F0B0FA80F040F02000400913
:1008C00001D0306800E0706A98FAA8F1B1FA81F1BD
:1008D00001F01F0105FA01F10842E5D01DE0FFF724
:1008E000E9FD074604E0FFF7E5FDC01B6428DFD8FB
:1008F00098FAA8F0B0FA80F040F02000400901D04A
:10090000306800E0706A98FAA8F1B1FA81F101F05C
:100910001F0105FA01F10842E5D12078DFF8F082E5
:1009200080074FF0000A4FF002075AD570684FF069
:10093000F80B10F00C0F07D07068C0F3810002288C
:100940001CD17068C00319D497FAA7F0B0FA80F0F0
:1009500040F02000400902D0306801E08AE0706A6F
:1009600097FAA7F1B1FA81F101F01F0105FA01F13F
:1009700008422BD0206901287CD127E0206988B368
:1009800095FAA5F0B0FA80F048F82050FFF792FDF4
:10099000814606E04DE1FFF78DFDA0EB090002283E
:1009A00086D897FAA7F0B0FA80F040F0200040090E
:1009B00001D0306800E0706A97FAA7F1B1FA81F1CE
:1009C00001F01F0105FA01F10842E4D030689BFAFA
:1009D000ABF220F0F8016069B2FA82F29040014374
:1009E000316025E0FFE795FAA5F1B1FA81F148F809
:1009F00021A0FFF75FFD814605E0FFF75BFDA0EB5F
:100A000009000228CCD897FAA7F0B0FA80F040F09D
:100A10002000400901D0306800E0706A97FAA7F121
:100A2000B1FA81F101F01F0105FA01F10842E4D1A8
:100A3000207800076DD5A069B8B395FAA5F0B0FA93
:100A400080F008EB8000C0F88054FFF733FD81464A
:100A500005E0FFF72FFDA0EB09000228A0D897FAC8
:100A6000A7F0B0FA80F040F06000B5EB501F02D163
:100A700030680CE063E197FAA7F0B0FA80F040F03C
:100A80006000B7EB501F01D1306A00E0706A97FA3E
:100A9000A7F1B1FA81F101F01F0105FA01F210424C
:100AA000D7D00120FFF7FAFB33E0FFE795FAA5F175
:100AB000B1FA81F108EB8101C1F880A4FFF7FAFCDB
:100AC000814605E0FFF7F6FCA0EB0900022899D863
:100AD00097FAA7F0B0FA80F040F06000B5EB501F35
:100AE00001D130680BE097FAA7F0B0FA80F040F03F
:100AF0006000B7EB501F01D1306A00E0706A97FACE
:100B0000A7F1B1FA81F101F01F0105FA01F21042DB
:100B1000D8D12078400763D5F06940F08050F0616B
:100B2000F069DFF8F0B000F080500090DBF80010C2
:100B300041F48071CBF80010FFF7BCFC814605E062
:100B4000FFF7B8FCA0EB0900642872D8DBF80000BE
:100B5000C005F5D5E06801280AD008B1052813D0F2
:100B6000306A20F001003062306A20F0040002E0B8
:100B7000306A40F001003062E06841F2883B80B3A7
:100B8000FFF798FC81460AE0306A40F004003062CA
:100B9000EEE7FFF78FFCA0EB0901594549D897FA1A
:100BA000A7F0B0FA80F040F04000B5EB501F01D143
:100BB00030680BE097FAA7F0B0FA80F040F0400000
:100BC000B7EB501F01D1306A00E0706A97FAA7F1C5
:100BD000B1FA81F101F01F0205FA02F10842D8D002
:100BE00033E0FFE7FFF766FC814605E0FFF762FCB4
:100BF000A0EB090159451CD897FAA7F0B0FA80F08C
:100C000040F04000B5EB501F08D105E00010024055
:100C1000000042420070004030680CE097FAA7F0F4
:100C2000B0FA80F040F04000B7EB501F02D1306ABC
:100C300001E08AE0706A97FAA7F1B1FA81F101F058
:100C40001F0205FA02F10842D0D1E06998B3716839
:100C5000C1F38101022972D002284FF080714FF058
:100C6000007B50460AD091FAA1F1B1FA81F148F81F
:100C70002100FFF71FFC04465F4669E08A4691FAAF
:100C8000A1F1B1FA81F1C14648F82100FFF712FC49
:100C9000A84607465D4604E0FFF70CFCC01B02288F
:100CA00053D895FAA5F0B0FA80F040F02000400942
:100CB00002D0306801E060E0706A95FAA5F1B1FAFF
:100CC00081F101F01F0208FA02F10842E4D1206A22
:100CD000B0F5803F05D17068A16820F4003008436A
:100CE0007060D4E908010843716821F47411084365
:100CF00070609AFAAAF0B0FA80F0474649F820806E
:100D0000FFF7D8FB044604E0FFF7D4FB001B0228E2
:100D10001BD895FAA5F0B0FA80F040F02000400909
:100D200001D0306800E0706A95FAA5F1B1FA81F15E
:100D300001F01F0107FA01F10842E5D01DE01EE0B5
:100D4000FFF7B8FB001B022802D90320BDE8F88F8B
:100D500097FAA7F0B0FA80F040F02000400901D0E7
:100D6000306800E0706A97FAA7F1B1FA81F101F0FA
:100D70001F0105FA01F10842E2D10020E6E7012057
:100D8000E4E74FF0E0210428086903D020F00400D4
:100D90000861704740F00400FAE710B5401EB0F15A
:100DA000807F01D3012010BD4FF0E02460610F214E
:100DB000601700F06DF90020A0610720206100207D
:100DC00010BD704738B5044600680168C268C1F3B9
:100DD000000102F4807221B11AB1E16B41F001010E
:100DE000E1630168C1F34002416901F0010122B1F0
:100DF00019B1E26B42F00402E2630268C2F38002BE
:100E000022B119B1E26B42F00202E2630268C2F35E
:100E1000C00222B119B1E16B41F00801E163016840
:100E2000C068C1F3401100F0200019B110B1204694
:100E300000F07CFA20680168C068C1F3C01100F0BE
:100E4000800019B110B1204600F07CFB21680868D1
:100E5000CA68C0F3801002F04002012568B162B197
:100E6000CA68204622F04002CA6094F8391032293C
:100E700010D080F8395000F0E2F8E06B002808D07C
:100E8000206801684068009084F839502046FFF7D8
:100E900098FF38BD222180F83910ECE770B50400C6
:100EA00004D094F83900002510B106E0012070BD8F
:100EB00084F83850204600F021F8022084F83900E8
:100EC0002068C16821F40051C160204600F082FA18
:100ED0002068016921F4904101612068416921F095
:100EE0002A0141612068C16841F40051C160E56395
:100EF000012084F83900002070BD0000F0B50068C2
:100F0000304F002530490222012303262F4C85B0A3
:100F1000B8422CD1886940F004008861886900F0EB
:100F200004000490886940F480408861886900F476
:100F300080400490886940F001008861886900F071
:100F40000100049048158DE84D0069462046FFF7E2
:100F5000B1F92115CDE9001569462046FFF7AAF938
:100F60002520FFF7D9FA03221146252026E0184F45
:100F7000B84225D1886940F004008861886900F092
:100F800004000490C86940F40030C861C86969462B
:100F900000F40030049004208DE84D002046FFF757
:100FA00089F90821CDE9001569462046FFF782F945
:100FB0002620FFF7B1FA032211462620FFF7B8FAE0
:100FC00005B0F0BD003801400010024000080140AB
:100FD0000044004090F83930012B01D0122B2BD166
:100FE00031B32AB390F83830012B25D0012380F893
:100FF000383081628285C2850021C16390F8392032
:10100000122A17D0222280F8392080F8381001687F
:10101000CA6842F48072CA6001684A6942F00102FB
:101020004A610068C16841F02001C160002070473A
:10103000012070473222E6E7022070477047704770
:10104000FEE7000030B50F4885B0816941F0080126
:101050008161806946F2030400F0080004900120D9
:10106000CDE9004002900320074D039069462846D1
:10107000FFF720F9012221462846FFF715FA05B0AF
:1010800030BD000000100240000C0140FEE7704738
:101090000907090E002806DA00F00F0000F1E02031
:1010A00080F8141D704700F1E02080F800147047AC
:1010B000704700002DE9F041404C414DDFF80481BC
:1010C000207886B04FF40046E0B16088401C80B2C2
:1010D0006080B0F5FA7F12D3002767806078E8B3AC
:1010E000012857D002280AD1002231464046FFF796
:1010F000DBF9012218212846FFF7D6F9677006B000
:10110000BDE8F081304A01202070916941F0010171
:101110009161916901F0010104912C494B6823F020
:10112000E06343F000734B60916941F00801916105
:10113000916901F008010491916941F00401916104
:1011400091690190029048F2180401F00401032013
:101150000094CDE903016946284600E012E0FFF75C
:10116000A9F86946474640460096FFF7A3F80122D2
:1011700021462846FFF798F9012231463846FFF705
:1011800093F9BCE7002210212846FFF78DF90122D0
:10119000082107E0002208212846FFF785F90122EF
:1011A00048F210012846FFF77FF9012231464046F8
:1011B000FFF77AF96078401C6070A0E70400002017
:1011C000000C0140000801400010024000000140F6
:1011D000044B4FF4807108B1012200E00022184650
:1011E000FFF762B90008014030B50E4885B081694B
:1011F00041F00401816180694FF4807400F00400C3
:1012000004900120CDE900400220074D039069467B
:101210002846FFF74FF8002221462846FFF744F9F9
:1012200005B030BD0010024000080140704710B505
:10123000FFF740FFBDE81040FFF742B930B58FB06F
:1012400002240120049000941020059000254FF402
:101250006010CDE9085007946846FFF7D5FA00B151
:10126000FEE70AA90F2081E831004FF48060CDE944
:101270000D0502210AA8FFF78DF900B1FEE7FFF77F
:1012800049FA4FF47A71B0FBF1F0FFF786FD0420C4
:10129000FFF777FD00221146501EFFF749F90FB006
:1012A00030BD00000F4810B5016841F00101016038
:1012B00041680D4A1140416001680C4A11400160CB
:1012C000016821F480210160416821F4FE01416040
:1012D0004FF41F018160FFF7B1FF05494FF0006037
:1012E000086010BD001002400000FFF8FFFFF6FE8E
:1012F00008ED00E00B4910B5094AC1E900200020C3
:101300008860C860086188610C2048610846FFF762
:10131000C5FDBDE81040012203490248FFF75ABE4F
:1013200000380140E00000200D00002010B590F8CA
:101330003910222903D0322901D0022010BD816842
:10134000B1F5805F11D00169002901681FD049689B
:1013500001F07F03816A4A1C82620B70C18D491EB5
:101360000904090CC18518D02FE00269816A002A9E
:101370000268526805D0D2B20A80816A491C816233
:10138000ECE7C2F308020A80816A891CF7E74A6821
:10139000816A4B1C83620A70E0E70168CA6822F028
:1013A0002002CA6090F83910322910D00168CA684A
:1013B00022F48072CA6001684A6922F001024A611F
:1013C000012180F83910FFF739FE002010BD1221ED
:1013D000F7E700002DE9F041044600680169E26882
:1013E00021F4405111430161A16820690143606902
:1013F00001432068C26841F20C639A430A43C26009
:1014000020684169A26921F44071114341614C494E
:1014100020686426322788423CD1FFF799F900EB17
:10142000C00101EB001061688900B0FBF1F5FFF726
:101430008FF900EBC00101EB00106168B84689002C
:10144000B0FBF1F0B0FBF6F06FF01801484305EB8C
:10145000800107EB0110B0FBF6F000F0F005FFF79C
:1014600077F900EBC00101EB001061688900B0FB67
:10147000F1F0B0FBF6F005EB0015FFF769F900EBB2
:10148000C00101EB001061688900B0FBF1F7FFF7C4
:101490005FF93BE0FFF744F900EBC00101EB0010FE
:1014A00061688900B0FBF1F5FFF73AF900EBC00184
:1014B00001EB00106168B8468900B0FBF1F0B0FBA9
:1014C000F6F06FF01801484305EB800107EB0110BF
:1014D000B0FBF6F000F0F005FFF722F900EBC001D9
:1014E00001EB001061688900B0FBF1F0B0FBF6F091
:1014F00005EB0015FFF714F900EBC00101EB00103C
:1015000061688900B0FBF1F7FFF70AF900EBC00151
:1015100001EB001061688900B0FBF1F0B0FBF6F060
:101520006FF01801484307EB800108EB0110B0FB96
:10153000F6F0216800F00F0028448860BDE8F081D3
:101540000038014090F83910122903D0322901D017
:10155000022070478168B1F5805F016A0BD04A1C98
:101560000262026809785160C18C491E0904090CA5
:10157000C1840ED017E009880268C1F308015160E8
:1015800001690029016A02D0491C0162ECE7891C4B
:10159000FBE70168CA6822F08002CA600068C1687F
:1015A00041F04001C1600020704700000E48006813
:1015B0000068C043800615D40C4801680C4A0A4BE9
:1015C0005068C83B1954401C506002280AD918447E
:1015D00010F8021C0D2905D110F8010C0A2801D1C0
:1015E0000120107070470000E00000200438014026
:1015F0000C0000200C4800680068C043800610D42E
:101600000A4800680A4AC1B29068030409D4B0F5D8
:10161000167F03D2074B1954401C01E040F40040F0
:1016200090600148FFF7CEBB7803002004440040DF
:101630000C00002020010020FEE77047FEF748FF65
:10164000FFF700FD4FF4E130FFF754FEFFF7CCFD4C
:101650000020FFF7BDFDDFF85880164C164E4FF402
:1016600000574FF48049002520780128FCD113A1B0
:101670001548FEF7CCFD08B1012113E013A1124873
:10168000FEF7C5FD08B102210CE013A10E48FEF7DC
:10169000BEFD08B1394605E012A10B48FEF7B7FDC3
:1016A00018B149464046FEF7FBFE25703560DBE782
:1016B000000C01400C000020100000206C6564311B
:1016C0002C746F67676C6500180000206C656432CD
:1016D0002C746F67676C65006C6564332C746F677E
:1016E000676C65006C6564342C746F67676C6500AB
:1016F00000000000000000000102030406070809C2
:101700000000000001020304281700080000002068
:10171000180000006C0100084017000818000020A5
:10172000000A0000880100080090D0030000F401C6
:1017300000000000000000000000000000000000A9
:0400000508000131BD
:00000001FF
