:020000040800F2
:10000000D8070020CD010008CD110008C911000853
:10001000CB110008A1020008711A000800000000BE
:10002000000000000000000000000000791300083C
:10003000A302000800000000FD1100087B13000867
:10004000E7010008E7010008E7010008E7010008F0
:10005000E7010008E7010008E7010008E7010008E0
:10006000E7010008E7010008E7010008E7010008D0
:10007000E7010008E7010008E7010008E7010008C0
:10008000E7010008E7010008E7010008E7010008B0
:10009000E7010008E7010008E7010008E7010008A0
:1000A000E7010008E7010008E7010008E701000890
:1000B000E7010008E7010008E7010008E701000880
:1000C000E7010008E7010008E7010008E701000870
:1000D000E70100080D1A0008E7010008E701000821
:1000E000E7010008E7010008E7010008E701000850
:1000F000E7010008E7010008E7010008E701000840
:10010000E7010008E7010008E7010008E70100082F
:10011000E7010008E7010008E7010008E70100081F
:10012000E7010008E7010008E7010008E70100080F
:1001300000F002F800F03AF80AA090E8000C8244BF
:100140008344AAF10107DA4501D100F02FF8AFF29C
:10015000090EBAE80F0013F0010F18BFFB1A43F0A5
:10016000010318478C190000AC190000103A24BF95
:1001700078C878C1FAD8520724BF30C830C144BF0C
:1001800004680C607047000000230024002500264E
:10019000103A28BF78C1FBD8520728BF30C148BFEA
:1001A0000B6070471FB51FBD10B510BD00F045F8BE
:1001B0001146FFF7F7FF01F069FC00F063F803B4A4
:1001C000FFF7F2FF03BC01F054FC00000948804730
:1001D00009480047FEE7FEE7FEE7FEE7FEE7FEE729
:1001E000FEE7FEE7FEE7FEE704480549054A064B41
:1001F00070470000F113000831010008D801002009
:10020000D8070020D8030020D8030020704730B55D
:1002100005460B462A4613F8014B12F8010B08B1AC
:10022000A042F8D01CB1002802D06D1CF1E728468E
:1002300030BD7047704770477047754600F02CF826
:10024000AE4605006946534620F00700854618B0C3
:1002500020B5FFF7C9FFBDE820404FF000064FF082
:1002600000074FF000084FF0000B21F00701AC46EB
:10027000ACE8C009ACE8C009ACE8C009ACE8C0090A
:100280008D46704710B50446AFF300802046BDE8A8
:100290001040FFF794BF0000004870477401002031
:1002A000FEE7704731B500F005F9044600F002F9A9
:1002B0000099001B8842F9D338BD00002DE9F84FA2
:1002C000DFF8BC91002309F1040A0AF1040B1C4673
:1002D0004FF00F080BF1040E01270A68A7403A40BF
:1002E000BA4272D1DFF89CC14D68A5EB0C0665459A
:1002F0002BD00DDC032D34D005DC35B3012D19D006
:10030000022D2FD11BE0112D16D0122D2AD119E06C
:10031000B6F5881F19D006DCB6F5803F15D0B6F5C6
:10032000801F1FD111E0B6F5001F0ED0B6F5041FD7
:1003300018D10AE0CB6815E0CB681B1D12E0CB6832
:1003400008330FE0CB680C330CE08B682BB1012B2A
:100350004FF0080303D0476104E0042302E0076183
:1003600000E00023FF2A01D8064601E000F1040660
:100370004FEA840501D9A5F12005376808FA05FC84
:1003800027EA0C0703FA05F547EA050737604D68C9
:10039000ED006ED53C4DAE6946F00106AE61AD692B
:1003A00024F0030605F001050095384D7719BE6865
:1003B000A5072D0F08FA05FC26EA0C06DFF8D0C0C9
:1003C000604503D14FF0000C25E052E0DFF8C4C0D7
:1003D000604502D14FF0010C1DE0DFF8BCC0604564
:1003E00002D14FF0020C16E0DFF8B0C0604502D138
:1003F0004FF0030C0FE0DFF8A8C0604502D14FF0CA
:10040000040C08E0DFF89CC0604502D14FF0050CF9
:1004100001E04FF0060C0CFA05FC4CEA060CC7F89C
:1004200008C04D68D9F80060ED034D4601D516436C
:1004300000E096432E604D68DAF80060AD03554643
:1004400001D5164300E096432E604D68DBF800604E
:10045000ED025D4601D5164300E096432E604D68DF
:10046000DEF80060AD02754601D5164300E0964304
:100470002E60641C102CFFF42FAFBDE8F88F000035
:100480000004014000001110001002400000014073
:1004900000080140000C0140001001400014014020
:1004A00000180140001C01400AB1016170470904B5
:1004B000FBE70000014800687047000008000020CA
:1004C00002480168491C01607047000008000020D4
:1004D000074810B5016841F010010160032000F0E9
:1004E00047F80F2000F006F800F015F8002010BDC6
:1004F0000020024010B5044600F00CF94FF47A7168
:10050000B0FBF1F000F049FC00222146501E00F043
:100510000FF8002010BD704700F01F02012191402C
:100520004009800000F1E020C0F800117047000091
:10053000F0B40E4B1B68C3F30223C3F10704042C71
:1005400000D904241D1D072D01D2002300E0DB1E6D
:10055000012606FA04F56D1E0D409D409E40761E54
:10056000164045EA0601F0BC00F031BE0CED00E09B
:10057000064A00F0070110684FF6FF03184040EAF2
:100580000120034908431060704700000CED00E0B3
:100590000000FA052DE9F047DFF8688104460E46B1
:1005A000D8F8000000F00700B0420CD2D8F80010D4
:1005B00021F007013143C8F80010D8F8000000F01E
:1005C0000700B04273D120784F4F800705D5786877
:1005D000A16820F0F000084378602078C00755D06B
:1005E0006068012201280CD0022828D0022393FA47
:1005F000A3F1B1FA81F141F02001490904D0396831
:1006000003E04FF40033F2E7796A93FAA3F3B3FA05
:1006100083F303F01F039A40114248D0796821F018
:10062000030101437960FFF745FF0546606841F229
:10063000883101280CD00228894615D022E04FF0DD
:100640000073D4E7FFF736FF411B494501D916E097
:1006500089467868C0F381000128F3D116E0FFF7DE
:1006600029FF411B49450AD87868C0F38100022858
:10067000F5D10BE0FFF71EFF411B494502D90320CE
:10068000BDE8F087786810F00C0FF3D1D8F80010AF
:10069000404601F00701B1420BD9016821F0070182
:1006A00031430160006800F00700B04201D0012032
:1006B000E6E72078400705D57868E16820F4E06037
:1006C000084378602078000706D57868216920F40F
:1006D000605040EAC100786000F052F87968F0227A
:1006E00092FAA2F201F0F001B2FA82F2D140074A86
:1006F000515CC840064908600F20FFF7FBFE002050
:10070000BEE700000020024000100240D81A000896
:100710000400002001480068704700000400002029
:1007200008480949006849684FF4E06292FAA2F269
:1007300001F4E061B2FA82F2D140044A515CC8404F
:10074000704700000400002000100240E81A000872
:1007500008480949006849684FF4605292FAA2F2C9
:1007600001F46051B2FA82F2D140044A515CC840AF
:10077000704700000400002000100240E81A000842
:1007800010B519A085B00FC88DE80F001AA01B4B3B
:100790000068049059681A4801F00C02042A1DD020
:1007A000082A1BD14FF4701494FAA4F401F47012C7
:1007B000B4FA84F4E240C9031DF8022010D5596848
:1007C0004FF4003393FAA3F301F40031B3FA83F347
:1007D000D94004AB595CB0FBF1F0504305B010BDFB
:1007E00008485043FAE70000020304050607080919
:1007F0000A0B0C0D0E0F1010010200000010024039
:1008000000127A0000093D002DE9F84F04460078F7
:10081000FE4EC0074FF001057FD070684FF40038DE
:10082000C0F38100012807D07068C0F3810002285E
:100830001BD17068C00318D598FAA8F0B0FA80F000
:1008400040F02000400901D0306800E0706A98FA5A
:10085000A8F1B1FA81F101F01F0105FA01F1084296
:100860005BD06068002879D057E06068B0F5803FC1
:100870000BD010B1B0F5A02F11D0306820F480302B
:100880003060306820F4802002E0306840F480302E
:100890003060606818B3FFF70DFE074609E0306866
:1008A00040F480203060F0E7FFF704FEC01B6428AE
:1008B00070D898FAA8F0B0FA80F040F02000400913
:1008C00001D0306800E0706A98FAA8F1B1FA81F1BD
:1008D00001F01F0105FA01F10842E5D01DE0FFF724
:1008E000E9FD074604E0FFF7E5FDC01B6428DFD8FB
:1008F00098FAA8F0B0FA80F040F02000400901D04A
:10090000306800E0706A98FAA8F1B1FA81F101F05C
:100910001F0105FA01F10842E5D12078DFF8F082E5
:1009200080074FF0000A4FF002075AD570684FF069
:10093000F80B10F00C0F07D07068C0F3810002288C
:100940001CD17068C00319D497FAA7F0B0FA80F0F0
:1009500040F02000400902D0306801E08AE0706A6F
:1009600097FAA7F1B1FA81F101F01F0105FA01F13F
:1009700008422BD0206901287CD127E0206988B368
:1009800095FAA5F0B0FA80F048F82050FFF792FDF4
:10099000814606E04DE1FFF78DFDA0EB090002283E
:1009A00086D897FAA7F0B0FA80F040F0200040090E
:1009B00001D0306800E0706A97FAA7F1B1FA81F1CE
:1009C00001F01F0105FA01F10842E4D030689BFAFA
:1009D000ABF220F0F8016069B2FA82F29040014374
:1009E000316025E0FFE795FAA5F1B1FA81F148F809
:1009F00021A0FFF75FFD814605E0FFF75BFDA0EB5F
:100A000009000228CCD897FAA7F0B0FA80F040F09D
:100A10002000400901D0306800E0706A97FAA7F121
:100A2000B1FA81F101F01F0105FA01F10842E4D1A8
:100A3000207800076DD5A069B8B395FAA5F0B0FA93
:100A400080F008EB8000C0F88054FFF733FD81464A
:100A500005E0FFF72FFDA0EB09000228A0D897FAC8
:100A6000A7F0B0FA80F040F06000B5EB501F02D163
:100A700030680CE063E197FAA7F0B0FA80F040F03C
:100A80006000B7EB501F01D1306A00E0706A97FA3E
:100A9000A7F1B1FA81F101F01F0105FA01F210424C
:100AA000D7D00120FFF7FEFB33E0FFE795FAA5F171
:100AB000B1FA81F108EB8101C1F880A4FFF7FAFCDB
:100AC000814605E0FFF7F6FCA0EB0900022899D863
:100AD00097FAA7F0B0FA80F040F06000B5EB501F35
:100AE00001D130680BE097FAA7F0B0FA80F040F03F
:100AF0006000B7EB501F01D1306A00E0706A97FACE
:100B0000A7F1B1FA81F101F01F0105FA01F21042DB
:100B1000D8D12078400763D5F06940F08050F0616B
:100B2000F069DFF8F0B000F080500090DBF80010C2
:100B300041F48071CBF80010FFF7BCFC814605E062
:100B4000FFF7B8FCA0EB0900642872D8DBF80000BE
:100B5000C005F5D5E06801280AD008B1052813D0F2
:100B6000306A20F001003062306A20F0040002E0B8
:100B7000306A40F001003062E06841F2883B80B3A7
:100B8000FFF798FC81460AE0306A40F004003062CA
:100B9000EEE7FFF78FFCA0EB0901594549D897FA1A
:100BA000A7F0B0FA80F040F04000B5EB501F01D143
:100BB00030680BE097FAA7F0B0FA80F040F0400000
:100BC000B7EB501F01D1306A00E0706A97FAA7F1C5
:100BD000B1FA81F101F01F0205FA02F10842D8D002
:100BE00033E0FFE7FFF766FC814605E0FFF762FCB4
:100BF000A0EB090159451CD897FAA7F0B0FA80F08C
:100C000040F04000B5EB501F08D105E00010024055
:100C1000000042420070004030680CE097FAA7F0F4
:100C2000B0FA80F040F04000B7EB501F02D1306ABC
:100C300001E08AE0706A97FAA7F1B1FA81F101F058
:100C40001F0205FA02F10842D0D1E06998B3716839
:100C5000C1F38101022972D002284FF080714FF058
:100C6000007B50460AD091FAA1F1B1FA81F148F81F
:100C70002100FFF71FFC04465F4669E08A4691FAAF
:100C8000A1F1B1FA81F1C14648F82100FFF712FC49
:100C9000A84607465D4604E0FFF70CFCC01B02288F
:100CA00053D895FAA5F0B0FA80F040F02000400942
:100CB00002D0306801E060E0706A95FAA5F1B1FAFF
:100CC00081F101F01F0208FA02F10842E4D1206A22
:100CD000B0F5803F05D17068A16820F4003008436A
:100CE0007060D4E908010843716821F47411084365
:100CF00070609AFAAAF0B0FA80F0474649F820806E
:100D0000FFF7D8FB044604E0FFF7D4FB001B0228E2
:100D10001BD895FAA5F0B0FA80F040F02000400909
:100D200001D0306800E0706A95FAA5F1B1FA81F15E
:100D300001F01F0107FA01F10842E5D01DE01EE0B5
:100D4000FFF7B8FB001B022802D90320BDE8F88F8B
:100D500097FAA7F0B0FA80F040F02000400901D0E7
:100D6000306800E0706A97FAA7F1B1FA81F101F0FA
:100D70001F0105FA01F10842E2D10020E6E7012057
:100D8000E4E74FF0E0210428086903D020F00400D4
:100D90000861704740F00400FAE710B5401EB0F15A
:100DA000807F01D3012010BD4FF0E02460610F214E
:100DB000601700F00CFA0020A061072020610020DD
:100DC00010BD70B5044690F838000D4601280DD0CE
:100DD000012684F83860022084F8390042B1042AE0
:100DE00018D0082A2AD00C2A4DD139E0022070BD33
:100DF000206800F095FB2068816941F0080181615D
:100E00002068816921F004018161206881692A6973
:100E1000114311E0206800F0B3FB2068816941F4C0
:100E2000006181612068816921F4806181612068AD
:100E300081692A6941EA0221816124E0206800F089
:100E4000D5FB2068C16941F00801C1612068C16912
:100E500021F00401C1612068C1692A69114311E0D0
:100E6000206800F0F7FB2068C16941F40061C161AE
:100E70002068C16921F48061C1612068C1692A6963
:100E800041EA0221C16184F83960002084F8380009
:100E900070BD10B5040003D094F8390010B107E01C
:100EA000012010BD002084F83800204600F00CF826
:100EB000022084F83900211D206800F0E3FA0120A7
:100EC00084F83900002010BD00B50068114985B0D4
:100ED00088421CD11048C16941F00401C161C16957
:100EE00001F004010491816941F008018161806988
:100EF000694600F008000490402000900220019014
:100F000001200290032003900448FFF7D7F905B0B1
:100F100000BD00000008004000100240000C01402D
:100F200010B504460068012200F0EEFA0848216876
:100F3000814202D00748814203D1486C40F400400E
:100F400048642068016841F001010160002010BD83
:100F5000002C014000340140704738B50446006859
:100F60000168C268C1F3000102F4807221B11AB1B4
:100F7000E16B41F00101E1630168C1F340024169A5
:100F800001F0010122B119B1E26B42F00402E26307
:100F90000268C2F3800222B119B1E26B42F0020290
:100FA000E2630268C2F3C00222B119B1E16B41F001
:100FB0000801E1630168C068C1F3401100F020003E
:100FC00019B110B1204600F089FB20680168C068A3
:100FD000C1F3C01100F0800019B110B1204600F03B
:100FE00089FC21680868CA68C0F3801002F04002DA
:100FF000012568B162B1CA68204622F04002CA6089
:1010000094F83910322910D080F8395000F0DBF80C
:10101000E06B002808D0206801684068009084F8E0
:1010200039502046FFF798FF38BD222180F839104B
:10103000ECE770B5040004D094F83900002510B135
:1010400006E0012070BD84F83850204600F020F8FA
:10105000022084F839002068C16821F40051C16081
:10106000204600F08FFB2068016921F49041016166
:101070002068416921F02A0141612068C16841F47A
:101080000051C160E563012084F83900002070BD83
:10109000F0B500682D4F00252D49022201230326BB
:1010A0002C4C85B0B8422FD1886940F0040088618B
:1010B000886900F004000490886940F480408861E9
:1010C000886900F480400490886940F001008861DC
:1010D000886900F00100049048158DE84D006946CC
:1010E0002046FFF7EBF82115CDE9001569462046AB
:1010F000FFF7E4F82520FFF70FFA03221146252019
:10110000FFF716FA05B0F0BD134FB842FAD188695F
:1011100040F004008861886900F004000490C86908
:1011200040F40030C861C869694600F4003004909A
:1011300004208DE84D002046FFF7C0F80821CDE9D6
:10114000001569462046FFF7B9F8DBE70038014093
:1011500000100240000801400044004090F839307F
:10116000012B01D0122B2BD131B32AB390F8383098
:10117000012B25D0012380F8383081628285C28519
:101180000021C16390F83920122A17D0222280F85A
:10119000392080F838100168CA6842F48072CA6049
:1011A00001684A6942F001024A610068C16841F081
:1011B0002001C16000207047012070473222E6E71D
:1011C0000220704770477047FEE7FEE77047090747
:1011D000090E002806DA00F00F0000F1E02080F888
:1011E000141D704700F1E02080F8001470470000E3
:1011F0000149086070470000340800407047000053
:101200002DE9F041404C414DDFF80481207886B053
:101210004FF40046E0B16088401C80B26080B0F5B9
:10122000FA7F12D3002767806078E8B3012857D08F
:1012300002280AD1002231464046FFF735F9012243
:1012400018212846FFF730F9677006B0BDE8F08135
:10125000304A01202070916941F00101916191694A
:1012600001F0010104912C494B6823F0E06343F045
:1012700000734B60916941F008019161916901F03F
:1012800008010491916941F0040191619169019013
:10129000029048F2180401F0040103200094CDE903
:1012A00003016946284600E012E0FFF707F86946A7
:1012B000474640460096FFF701F80122214628469E
:1012C000FFF7F2F8012231463846FFF7EDF8BCE7A8
:1012D000002210212846FFF7E7F80122082107E045
:1012E000002208212846FFF7DFF8012248F210010A
:1012F0002846FFF7D9F8012231464046FFF7D4F8D7
:101300006078401C6070A0E700000020000C0140E5
:10131000000801400010024000000140044B4FF45F
:10132000807108B1012200E000221846FFF7BCB826
:101330000008014030B50E4885B0816941F00401D4
:10134000816180694FF4807400F0040004900120F2
:10135000CDE900400220074D039069462846FEF77C
:10136000ADFF002221462846FFF79EF805B030BDAC
:101370000010024000080140704710B5FFF740FF21
:10138000BDE81040FFF79CB830B58FB002240120B3
:10139000049000941020059000254FF46010CDE9D2
:1013A000085007946846FFF72FFA00B1FEE70AA934
:1013B0000F2081E831004FF48060CDE90D05022156
:1013C0000AA8FFF7E7F800B1FEE7FFF7A3F94FF42B
:1013D0007A71B0FBF1F0FFF7E0FC0420FFF7D1FCDD
:1013E00000221146501EFFF7A3F80FB030BD0000D9
:1013F0000F4810B5016841F00101016041680D4AD4
:101400001140416001680C4A11400160016821F4FB
:1014100080210160416821F4FE0141604FF41F0109
:101420008160FFF7B1FF05494FF00060086010BD13
:10143000001002400000FFF8FFFFF6FE08ED00E09C
:1014400010B50F4A0D4B00241360C2E90104C2E934
:1014500003141046FFF71DFD094860213C300022AF
:10146000C0E900140221816001463C38FFF7A9FC65
:10147000BDE8104000210248FFF752BD00080040BF
:101480001C010020F0B502681A4D1B4E1B4FDFF8FF
:1014900070C01C4B4FF0804EA84209D0984207D034
:1014A000704505D0B04203D0B84201D0604503D1A9
:1014B00022F070044A682243A84209D0984207D01B
:1014C000704505D0B04203D0B84201D0604503D189
:1014D00022F44074CA68224302608A68C2620A68C1
:1014E0008262A84201D0984201D1096901630121B9
:1014F0004161F0BD002C01400004004000080040A4
:10150000000C00400034014010B50123046A8B40F8
:101510009C430462036A8A401343036210BD0000C7
:10152000F0B5026A22F001020262026A436884692D
:10153000114E24F073050C68104F2C4322F0020565
:101540008A682A43B04201D0B84205D122F008058A
:10155000CA682A4322F00402B04201D0B84205D141
:101560004D6923F440731D438B692B4343608461B1
:10157000496841630262F0BD002C01400034014023
:10158000F0B5026A22F010020262026A43688469BE
:101590000D6824F4E64444EA05248D6822F0200214
:1015A00042EA05120F4D104EA84201D0B04206D1BA
:1015B000CF6822F0800242EA071222F04002A842DD
:1015C00001D0B04207D14D6923F4406343EA85035B
:1015D0008D6943EA850343608461496881630262DF
:1015E000F0BD0000002C014000340140F0B5026A5B
:1015F00022F480720262026A4368C46922F40072B3
:1016000024F073050C68124E2C438D6842EA0522C3
:101610000E4DA84201D0B04206D1CF6822F400623C
:1016200042EA072222F48062A84201D0B04207D1E8
:101630004D6923F4405343EA05138D6943EA0513CA
:101640004360C4614968C1630262F0BD002C01407F
:101650000034014030B5026A22F480520262036A0B
:101660004268C4690D6824F4E64444EA05248D68A0
:1016700023F4005343EA0533084DA84202D0084D35
:10168000A84204D14D6922F4804242EA85124260A8
:10169000C46149680164036230BD0000002C014050
:1016A000003401400B4910B5094AC1E9002000206F
:1016B0008860C860086188610C2048610846FFF7AF
:1016C000B8FCBDE81040012203490248FFF746BDBF
:1016D00000380140DC0000200D00002010B590F81B
:1016E0003910222903D0322901D0022010BD81688F
:1016F000B1F5805F11D00169002901681FD04968E8
:1017000001F07F03816A4A1C82620B70C18D491E01
:101710000904090CC18518D02FE00269816A002AEA
:101720000268526805D0D2B20A80816A491C81627F
:10173000ECE7C2F308020A80816A891CF7E74A686D
:10174000816A4B1C83620A70E0E70168CA6822F074
:101750002002CA6090F83910322910D00168CA6896
:1017600022F48072CA6001684A6922F001024A616B
:10177000012180F83910FFF725FD002010BD12214E
:10178000F7E700002DE9F041044600680169E268CE
:1017900021F4405111430161A1682069014360694E
:1017A00001432068C26841F20C639A430A43C26055
:1017B00020684169A26921F44071114341614C499B
:1017C00020686426322788423CD1FEF7C1FF00EB37
:1017D000C00101EB001061688900B0FBF1F5FEF774
:1017E000B7FF00EBC00101EB00106168B84689004B
:1017F000B0FBF1F0B0FBF6F06FF01801484305EBD9
:10180000800107EB0110B0FBF6F000F0F005FEF7E9
:101810009FFF00EBC00101EB001061688900B0FB85
:10182000F1F0B0FBF6F005EB0015FEF791FF00EBD1
:10183000C00101EB001061688900B0FBF1F7FEF711
:1018400087FF3BE0FEF76CFF00EBC00101EB0010EF
:1018500061688900B0FBF1F5FEF762FF00EBC001A3
:1018600001EB00106168B8468900B0FBF1F0B0FBF5
:10187000F6F06FF01801484305EB800107EB01100B
:10188000B0FBF6F000F0F005FEF74AFF00EBC001F8
:1018900001EB001061688900B0FBF1F0B0FBF6F0DD
:1018A00005EB0015FEF73CFF00EBC00101EB00105B
:1018B00061688900B0FBF1F7FEF732FF00EBC00171
:1018C00001EB001061688900B0FBF1F0B0FBF6F0AD
:1018D0006FF01801484307EB800108EB0110B0FBE3
:1018E000F6F0216800F00F0028448860BDE8F08120
:1018F0000038014090F83910122903D0322901D064
:10190000022070478168B1F5805F016A0BD04A1CE4
:101910000262026809785160C18C491E0904090CF1
:10192000C1840ED017E009880268C1F30801516034
:1019300001690029016A02D0491C0162ECE7891C97
:10194000FBE70168CA6822F08002CA600068C168CB
:1019500041F04001C1600020704700002DE9F041D6
:1019600000242046FFF7DAFC244D6868010442D5C4
:10197000C7B223A12448FEF74AFC234EA04610B369
:101980004FF49670092F02D00A2F2CD11CE000F0E2
:1019900071F8307A3038C0B2012804D002280AD059
:1019A000032820D10EE00A20FFF722FCC82000F017
:1019B00061F8012006E00A20FFF71AFCC82000F0B9
:1019C00059F8022028700EE000F054F8307A717A4D
:1019D00000EB8000F02202EB40000844C0B20B286C
:1019E00001D185F800804046C5F804803055641C5C
:1019F000A4B2C82CFAD32878BDE8F0810C000020EE
:101A00002D3E66616E00000014000020154830B4C1
:101A100000680068C04380061BD413480068134A5E
:101A2000C1B25068030414D444044FF0000304D539
:101A30000A290DD140F4004011E00D290DD0094DC7
:101A4000C0F30D04C83D401C29555060C72800D97B
:101A5000536030BC0348FFF780BA40F480405060C8
:101A6000F7E70000DC000020043801400C000020F3
:101A7000FEE7704700224FF4C85304E00021491CE0
:101A80009942FCD3521C8242F8D37047FEF720FDE6
:101A90004FF4E130FFF706FEFFF74CFC44F61F6100
:101AA0003F20FFF7CDFC44F6206442F6F82542F2D1
:101AB0002836FFF753FF48B1012809D0022809D082
:101AC0000328F6D10A20FFF793FBF2E72046FAE756
:101AD0002846F8E73046F6E7000000000000000066
:101AE00001020304060708090000000001020304C4
:101AF000101B000800000020140000006C0100080A
:101B0000241B000814000020C407000088010008FE
:101B10000000F4010090D00300000000000000006D
:041B200000000000C1
:0400000508000131BD
:00000001FF
