:020000040800F2
:1000000090070020D5010008691200086512000859
:10001000671200088D040008111900080000000094
:100020000000000000000000000000002D15000886
:10003000CD040008000000008B1200082F150008F6
:10004000EF010008EF010008EF010008EF010008D0
:10005000EF010008EF010008EF010008EF010008C0
:10006000EF010008EF010008EF010008EF010008B0
:10007000EF010008EF010008EF010008EF010008A0
:10008000EF010008EF010008EF010008EF01000890
:10009000EF010008EF010008EF010008EF01000880
:1000A000EF010008EF010008EF010008EF01000870
:1000B000EF010008EF010008EF010008EF01000860
:1000C000EF010008EF010008EF010008EF01000850
:1000D000EF010008AD180008EF010008EF0100086B
:1000E000EF010008EF010008EF010008EF01000830
:1000F000EF010008EF010008EF010008EF01000820
:10010000EF010008EF010008EF010008EF0100080F
:10011000EF010008EF010008EF010008EF010008FF
:10012000EF010008EF010008EF010008EF010008EF
:1001300000F002F800F03FF80AA090E8000C8244BA
:100140008344AAF10107DA4501D100F034F8AFF297
:10015000090EBAE80F0013F0010F18BFFB1A43F0A5
:1001600001031847FC2100001C220000103A24BFA4
:1001700078C878C1FAD8520724BF30C830C144BF0C
:1001800004680C607047000000230024002500264E
:10019000103A28BF78C1FBD8520728BF30C148BFEA
:1001A0000B607047642900F07780002070471FB50E
:1001B0001FBD10B510BD00F037F91146FFF7F7FF6E
:1001C00001F0C0FB00F055F903B4FFF7F2FF03BCE8
:1001D00001F09FFB0948804709480047FEE7FEE71A
:1001E000FEE7FEE7FEE7FEE7FEE7FEE7FEE7FEE7E7
:1001F00004480549054A064B70470000A51500084C
:100200003101000890010020900700209003002099
:1002100090030020704700000FB4044910B503AAF2
:10022000029800F0D3F810BC5DF814FB1400002015
:100230002DE9F0410E460446002020622046E16888
:10024000884730B3252805D0D4E901219047206A9A
:10025000401CF2E7E168204600278847050018D0D7
:10026000A5F14100192802D820354FF40067324625
:10027000294620462760FFF795FF40B1012804D0AA
:10028000F61D26F007060836D8E7361DD6E72846BD
:10029000DAE7206ABDE8F0812DE9F0410646002446
:1002A00010687529314616A510D0AFF300800028DC
:1002B00002DA404213A507E031688A0701D512A58A
:1002C00002E0490704D511A5012401E0AFF3008045
:1002D00000210A2206F1240709E0B0FBF2FCB0FB82
:1002E000F2F302FB1C00303078541846491C0028F9
:1002F000F3D123462A463046BDE8F04100F00CB861
:10030000000000002D0000002B0000002000000075
:1003100070477047704770472DE9F0470D46994682
:100320009246044600F124080168880604D5E06975
:1003300021F01001216000E00120A84201DD471BEF
:1003400000E00027A1697A1902EB0900081AA061F0
:100350002078C00602D42046AFF30080002608E0D3
:10036000D4E901211AF806009047206A401C761C47
:1003700020624E45F4DB2078C0060AD52046AFF354
:10038000008006E0D4E9012130209047206A401C1B
:100390002062381EA7F10107F4DC07E0D4E901214F
:1003A00018F805009047206A401C2062281EA5F11D
:1003B0000105F3DC2046AFF300802078000602D56B
:1003C0000220BDE8F0870120FBE70000074B70B575
:1003D0000D467B4400F011F80446284600F020F852
:1003E00010B14FF0FF3070BD204670BD57150000B2
:1003F00001694A1C02610878704700B58FB0CDE9E9
:1004000001310021059105497944CDE903101146D8
:100410006846FFF70DFF0FB000BD0000E5FFFFFFCE
:10042000007B00F080007047754600F02BF8AE4668
:1004300005006946534620F00700854618B020B5F0
:10044000FFF7D6FEBDE820404FF000064FF0000752
:100450004FF000084FF0000B21F00701AC46ACE86C
:10046000C009ACE8C009ACE8C009ACE8C0098D46D9
:10047000704710B50446AFF300802046BDE8104039
:10048000FFF7A2BE0048704730010020FEE70000E1
:1004900070B50D4D2946E8688C6840B1052C06DC26
:1004A000404201F077FE68600020E86070BD01F016
:1004B00071FE696801F0F0FD01F050FEE860052C66
:1004C000F4DD0A20A86070BD18000020704731B527
:1004D00000F008F9044600F005F90099001B884275
:1004E000F9D338BD2DE9F84FDFF8BC91002309F1AD
:1004F000040A0AF1040B1C464FF00F080BF1040E1E
:1005000001270A68A7403A40BA4272D1DFF89CC17D
:100510004D68A5EB0C0665452BD00DDC032D34D0C2
:1005200005DC35B3012D19D0022D2FD11BE0112D83
:1005300016D0122D2AD119E0B6F5881F19D006DC85
:10054000B6F5803F15D0B6F5801F1FD111E0B6F586
:10055000001F0ED0B6F5041F18D10AE0CB6815E0D5
:10056000CB681B1D12E0CB6808330FE0CB680C335F
:100570000CE08B682BB1012B4FF0080303D04761CF
:1005800004E0042302E0076100E00023FF2A01D811
:10059000064601E000F104064FEA840501D9A5F101
:1005A0002005376808FA05FC27EA0C0703FA05F569
:1005B00047EA050737604D68ED006ED53C4DAE69E2
:1005C00046F00106AE61AD6924F0030605F00105B1
:1005D0000095384D7719BE68A5072D0F08FA05FC60
:1005E00026EA0C06DFF8D0C0604503D14FF0000CBE
:1005F00025E052E0DFF8C4C0604502D14FF0010CA5
:100600001DE0DFF8BCC0604502D14FF0020C16E0DF
:10061000DFF8B0C0604502D14FF0030C0FE0DFF807
:10062000A8C0604502D14FF0040C08E0DFF89CC080
:10063000604502D14FF0050C01E04FF0060C0CFABA
:1006400005FC4CEA060CC7F808C04D68D9F80060F4
:10065000ED034D4601D5164300E096432E604D68EC
:10066000DAF80060AD03554601D5164300E0964325
:100670002E604D68DBF80060ED025D4601D5164343
:1006800000E096432E604D68DEF80060AD027546CE
:1006900001D5164300E096432E60641C102CFFF435
:1006A0002FAFBDE8F88F00000004014000001110DA
:1006B000001002400000014000080140000C014011
:1006C000001001400014014000180140001C0140CE
:1006D0008068084000D0012070470AB1016170476E
:1006E0000904FBE70148006870470000080000208B
:1006F00002480168491C01607047000008000020A2
:10070000074810B5016841F010010160032000F0B6
:1007100047F80F2000F006F800F015F8002010BD93
:100720000020024010B5044600F00CF94FF47A7135
:10073000B0FBF1F000F049FC00222146501E00F011
:100740000FF8002010BD704700F01F0201219140FA
:100750004009800000F1E020C0F80011704700005F
:10076000F0B40E4B1B68C3F30223C3F10704042C3F
:1007700000D904241D1D072D01D2002300E0DB1E3B
:10078000012606FA04F56D1E0D409D409E40761E22
:10079000164045EA0601F0BC00F067BD0CED00E034
:1007A000064A00F0070110684FF6FF03184040EAC0
:1007B0000120034908431060704700000CED00E081
:1007C0000000FA052DE9F047DFF8688104460E467F
:1007D000D8F8000000F00700B0420CD2D8F80010A2
:1007E00021F007013143C8F80010D8F8000000F0EC
:1007F0000700B04273D120784F4F800705D5786845
:10080000A16820F0F000084378602078C00755D038
:100810006068012201280CD0022828D0022393FA14
:10082000A3F1B1FA81F141F02001490904D03968FE
:1008300003E04FF40033F2E7796A93FAA3F3B3FAD3
:1008400083F303F01F039A40114248D0796821F0E6
:10085000030101437960FFF745FF0546606841F2F7
:10086000883101280CD00228894615D022E04FF0AB
:100870000073D4E7FFF736FF411B494501D916E065
:1008800089467868C0F381000128F3D116E0FFF7AC
:1008900029FF411B49450AD87868C0F38100022826
:1008A000F5D10BE0FFF71EFF411B494502D903209C
:1008B000BDE8F087786810F00C0FF3D1D8F800107D
:1008C000404601F00701B1420BD9016821F0070150
:1008D00031430160006800F00700B04201D0012000
:1008E000E6E72078400705D57868E16820F4E06005
:1008F000084378602078000706D57868216920F4DD
:10090000605040EAC100786000F052F87968F02247
:1009100092FAA2F201F0F001B2FA82F2D140074A53
:10092000515CC840064908600F20FFF7FBFE00201D
:10093000BEE70000002002400010024046230008ED
:1009400004000020014800687047000004000020F7
:1009500008480949006849684FF4E06292FAA2F237
:1009600001F4E061B2FA82F2D140044A515CC8401D
:1009700070470000040000200010024056230008C9
:1009800008480949006849684FF4605292FAA2F297
:1009900001F46051B2FA82F2D140044A515CC8407D
:1009A0007047000004000020001002405623000899
:1009B00010B519A085B00FC88DE80F001AA01B4B09
:1009C0000068049059681A4801F00C02042A1DD0EE
:1009D000082A1BD14FF4701494FAA4F401F4701295
:1009E000B4FA84F4E240C9031DF8022010D5596816
:1009F0004FF4003393FAA3F301F40031B3FA83F315
:100A0000D94004AB595CB0FBF1F0504305B010BDC8
:100A100008485043FAE700000203040506070809E6
:100A20000A0B0C0D0E0F1010010200000010024006
:100A300000127A0000093D002DE9F84F04460078C5
:100A4000FE4EC0074FF001057FD070684FF40038AC
:100A5000C0F38100012807D07068C0F3810002282C
:100A60001BD17068C00318D598FAA8F0B0FA80F0CE
:100A700040F02000400901D0306800E0706A98FA28
:100A8000A8F1B1FA81F101F01F0105FA01F1084264
:100A90005BD06068002879D057E06068B0F5803F8F
:100AA0000BD010B1B0F5A02F11D0306820F48030F9
:100AB0003060306820F4802002E0306840F48030FC
:100AC0003060606818B3FFF70DFE074609E0306834
:100AD00040F480203060F0E7FFF704FEC01B64287C
:100AE00070D898FAA8F0B0FA80F040F020004009E1
:100AF00001D0306800E0706A98FAA8F1B1FA81F18B
:100B000001F01F0105FA01F10842E5D01DE0FFF7F1
:100B1000E9FD074604E0FFF7E5FDC01B6428DFD8C8
:100B200098FAA8F0B0FA80F040F02000400901D017
:100B3000306800E0706A98FAA8F1B1FA81F101F02A
:100B40001F0105FA01F10842E5D12078DFF8F082B3
:100B500080074FF0000A4FF002075AD570684FF037
:100B6000F80B10F00C0F07D07068C0F3810002285A
:100B70001CD17068C00319D497FAA7F0B0FA80F0BE
:100B800040F02000400902D0306801E08AE0706A3D
:100B900097FAA7F1B1FA81F101F01F0105FA01F10D
:100BA00008422BD0206901287CD127E0206988B336
:100BB00095FAA5F0B0FA80F048F82050FFF792FDC2
:100BC000814606E04DE1FFF78DFDA0EB090002280C
:100BD00086D897FAA7F0B0FA80F040F020004009DC
:100BE00001D0306800E0706A97FAA7F1B1FA81F19C
:100BF00001F01F0105FA01F10842E4D030689BFAC8
:100C0000ABF220F0F8016069B2FA82F29040014341
:100C1000316025E0FFE795FAA5F1B1FA81F148F8D6
:100C200021A0FFF75FFD814605E0FFF75BFDA0EB2C
:100C300009000228CCD897FAA7F0B0FA80F040F06B
:100C40002000400901D0306800E0706A97FAA7F1EF
:100C5000B1FA81F101F01F0105FA01F10842E4D176
:100C6000207800076DD5A069B8B395FAA5F0B0FA61
:100C700080F008EB8000C0F88054FFF733FD814618
:100C800005E0FFF72FFDA0EB09000228A0D897FA96
:100C9000A7F0B0FA80F040F06000B5EB501F02D131
:100CA00030680CE063E197FAA7F0B0FA80F040F00A
:100CB0006000B7EB501F01D1306A00E0706A97FA0C
:100CC000A7F1B1FA81F101F01F0105FA01F210421A
:100CD000D7D00120FFF7FBFB33E0FFE795FAA5F142
:100CE000B1FA81F108EB8101C1F880A4FFF7FAFCA9
:100CF000814605E0FFF7F6FCA0EB0900022899D831
:100D000097FAA7F0B0FA80F040F06000B5EB501F02
:100D100001D130680BE097FAA7F0B0FA80F040F00C
:100D20006000B7EB501F01D1306A00E0706A97FA9B
:100D3000A7F1B1FA81F101F01F0105FA01F21042A9
:100D4000D8D12078400763D5F06940F08050F06139
:100D5000F069DFF8F0B000F080500090DBF8001090
:100D600041F48071CBF80010FFF7BCFC814605E030
:100D7000FFF7B8FCA0EB0900642872D8DBF800008C
:100D8000C005F5D5E06801280AD008B1052813D0C0
:100D9000306A20F001003062306A20F0040002E086
:100DA000306A40F001003062E06841F2883B80B375
:100DB000FFF798FC81460AE0306A40F00400306298
:100DC000EEE7FFF78FFCA0EB0901594549D897FAE8
:100DD000A7F0B0FA80F040F04000B5EB501F01D111
:100DE00030680BE097FAA7F0B0FA80F040F04000CE
:100DF000B7EB501F01D1306A00E0706A97FAA7F193
:100E0000B1FA81F101F01F0205FA02F10842D8D0CF
:100E100033E0FFE7FFF766FC814605E0FFF762FC81
:100E2000A0EB090159451CD897FAA7F0B0FA80F059
:100E300040F04000B5EB501F08D105E00010024023
:100E4000000042420070004030680CE097FAA7F0C2
:100E5000B0FA80F040F04000B7EB501F02D1306A8A
:100E600001E08AE0706A97FAA7F1B1FA81F101F026
:100E70001F0205FA02F10842D0D1E06998B3716807
:100E8000C1F38101022972D002284FF080714FF026
:100E9000007B50460AD091FAA1F1B1FA81F148F8ED
:100EA0002100FFF71FFC04465F4669E08A4691FA7D
:100EB000A1F1B1FA81F1C14648F82100FFF712FC17
:100EC000A84607465D4604E0FFF70CFCC01B02285D
:100ED00053D895FAA5F0B0FA80F040F02000400910
:100EE00002D0306801E060E0706A95FAA5F1B1FACD
:100EF00081F101F01F0208FA02F10842E4D1206AF0
:100F0000B0F5803F05D17068A16820F40030084337
:100F10007060D4E908010843716821F47411084332
:100F200070609AFAAAF0B0FA80F0474649F820803B
:100F3000FFF7D8FB044604E0FFF7D4FB001B0228B0
:100F40001BD895FAA5F0B0FA80F040F020004009D7
:100F500001D0306800E0706A95FAA5F1B1FA81F12C
:100F600001F01F0107FA01F10842E5D01DE01EE083
:100F7000FFF7B8FB001B022802D90320BDE8F88F59
:100F800097FAA7F0B0FA80F040F02000400901D0B5
:100F9000306800E0706A97FAA7F1B1FA81F101F0C8
:100FA0001F0105FA01F10842E2D10020E6E7012025
:100FB000E4E74FF0E0210428086903D020F00400A2
:100FC0000861704740F00400FAE710B5401EB0F128
:100FD000807F01D3012010BD4FF0E02460610F211C
:100FE000601700F042F90020A06107202061002076
:100FF00010BD704738B5044600680168C268C1F387
:10100000000102F4807221B11AB1E16B41F00101DB
:10101000E1630168C1F34002416901F0010122B1BD
:1010200019B1E26B42F00402E2630268C2F380028B
:1010300022B119B1E26B42F00202E2630268C2F32C
:10104000C00222B119B1E16B41F00801E16301680E
:10105000C068C1F3401100F0200019B110B1204662
:1010600000F0E4FA20680168C068C1F3C01100F024
:10107000800019B110B1204600F0E4FB2168086837
:10108000CA68C0F3801002F04002012568B162B165
:10109000CA68204622F04002CA6094F8391032290A
:1010A00010D080F8395000F0DCF8E06B002808D050
:1010B000206801684068009084F839502046FFF7A6
:1010C00098FF38BD222180F83910ECE770B5040094
:1010D00004D094F83900002510B106E0012070BD5D
:1010E00084F83850204600F021F8022084F83900B6
:1010F0002068C16821F40051C160204600F0EAFA7E
:101100002068016921F4904101612068416921F062
:101110002A0141612068C16841F40051C160E56362
:10112000012084F83900002070BD0000F0B500688F
:101130002D4F00252D490222012303262C4C85B07A
:10114000B8422FD1886940F004008861886900F0B6
:1011500004000490886940F480408861886900F444
:1011600080400490886940F001008861886900F03F
:101170000100049048158DE84D0069462046FFF7B0
:10118000B1F92115CDE9001569462046FFF7AAF906
:101190002520FFF7D9FA032211462520FFF7E0FAB0
:1011A00005B0F0BD134FB842FAD1886940F0040091
:1011B0008861886900F004000490C86940F4003038
:1011C000C861C869694600F40030049004208DE8C5
:1011D0004D002046FFF786F90821CDE90015694644
:1011E0002046FFF77FF9DBE700380140001002409E
:1011F000000801400044004090F83930012B01D034
:10120000122B2BD131B32AB390F83830012B25D0D3
:10121000012380F8383081628285C2850021C16354
:1012200090F83920122A17D0222280F8392080F82D
:1012300038100168CA6842F48072CA6001684A695D
:1012400042F001024A610068C16841F02001C160BA
:1012500000207047012070473222E6E702207047E5
:1012600070477047FEE7FEE770470907090E002840
:1012700006DA00F00F0000F1E02080F8141D70473E
:1012800000F1E02080F80014704770472DE9F0412C
:10129000404C414DDFF80481207886B04FF4004681
:1012A000E0B16088401C80B26080B0F5FA7F12D354
:1012B000002767806078E8B3012857D002280AD158
:1012C000002231464046FFF708FA0122182128463D
:1012D000FFF703FA677006B0BDE8F081304A0120DD
:1012E0002070916941F001019161916901F0010162
:1012F00004912C494B6823F0E06343F000734B608A
:10130000916941F008019161916901F0080104912E
:10131000916941F00401916191690190029048F254
:10132000180401F0040103200094CDE9030169468B
:10133000284600E012E0FFF7D5F8694647464046E8
:101340000096FFF7CFF8012221462846FFF7C5F99E
:10135000012231463846FFF7C0F9BCE700221021D0
:101360002846FFF7BAF90122082107E000220821E8
:101370002846FFF7B2F9012248F210012846FFF78C
:10138000ACF9012231464046FFF7A7F96078401CCE
:101390006070A0E700000020000C01400008014040
:1013A000001002400000014030B5114885B081694D
:1013B00041F00801816180690E4D00F00800049041
:1013C0000120009002240190694603942846FFF70B
:1013D00089F80021CDE90041029169462846FFF7CE
:1013E00081F8002201212846FFF777F905B030BDCA
:1013F00000100240000C014070B52E4C2E4D012211
:10140000A0680221401CA0602846FFF766F9002270
:1014100001212846FFF761F90026E66002212846EF
:10142000FFF756F90028F9D100BF267001221146B6
:101430002846FFF752F900BF02212846FFF748F976
:101440000028E06801D0401CE0604000E06000221D
:1014500001212846FFF741F900BF2078401CC1B2A6
:1014600021701829E2D3012211462846FFF735F9E9
:1014700000BF002201212846FFF72FF900BFE068D6
:1014800080F4000000F0B3FC0C4A0D4B00F028FB88
:1014900000220C4B00F016FD0B4A0C4B00F020FB19
:1014A00000F076FCE060FEF7F3FF0A2000F032FA6D
:1014B000E06870BD18000020000C014048AFBC9AE5
:1014C000F2D77A408026D3409EEFA7C64B37FB3F2A
:1014D000044B4FF4807108B1012200E0002218464D
:1014E000FFF7FBB80008014030B50E4885B08169B0
:1014F00041F00401816180694FF4807400F00400C0
:1015000004900120CDE900400220074D0390694678
:101510002846FEF7E7FF002221462846FFF7DDF8C0
:1015200005B030BD0010024000080140704710B502
:10153000FFF7ACFEBDE81040FFF7DAB830B58FB06A
:1015400002240120049000941020059000254FF4FF
:101550006010CDE9085007946846FFF76DFA00B1B6
:10156000FEE70AA90F2081E831004FF48060CDE941
:101570000D0502210AA8FFF725F900B1FEE7FFF7E4
:10158000E1F94FF47A71B0FBF1F0FFF71EFD042092
:10159000FFF70FFD00221146501EFFF7E1F80FB0D4
:1015A00030BD00000F4810B5016841F00101016035
:1015B00041680D4A1140416001680C4A11400160C8
:1015C000016821F480210160416821F4FE0141603D
:1015D0004FF41F018160FFF7B1FF05494FF0006034
:1015E000086010BD001002400000FFF8FFFFF6FE8B
:1015F00008ED00E00B4910B5094AC1E900200020C0
:101600008860C860086188610C2048610846FFF75F
:101610005DFDBDE81040012203490248FFF7ECBD23
:1016200000380140F00000200C00002010B590F8B8
:101630003910222903D0322901D0022010BD81683F
:10164000B1F5805F11D00169002901681FD0496898
:1016500001F07F03816A4A1C82620B70C18D491EB2
:101660000904090CC18518D02FE00269816A002A9B
:101670000268526805D0D2B20A80816A491C816230
:10168000ECE7C2F308020A80816A891CF7E74A681E
:10169000816A4B1C83620A70E0E70168CA6822F025
:1016A0002002CA6090F83910322910D00168CA6847
:1016B00022F48072CA6001684A6922F001024A611C
:1016C000012180F83910FFF7CBFD002010BD122159
:1016D000F7E700002DE9F041044600680169E2687F
:1016E00021F4405111430161A168206901436069FF
:1016F00001432068C26841F20C639A430A43C26006
:1017000020684169A26921F44071114341614C494B
:1017100020686426322788423CD1FFF731F900EB7C
:10172000C00101EB001061688900B0FBF1F5FFF723
:1017300027F900EBC00101EB00106168B846890091
:10174000B0FBF1F0B0FBF6F06FF01801484305EB89
:10175000800107EB0110B0FBF6F000F0F005FFF799
:101760000FF900EBC00101EB001061688900B0FBCC
:10177000F1F0B0FBF6F005EB0015FFF701F900EB17
:10178000C00101EB001061688900B0FBF1F7FFF7C1
:10179000F7F83BE0FFF7DCF800EBC00101EB0010CD
:1017A00061688900B0FBF1F5FFF7D2F800EBC001EA
:1017B00001EB00106168B8468900B0FBF1F0B0FBA6
:1017C000F6F06FF01801484305EB800107EB0110BC
:1017D000B0FBF6F000F0F005FFF7BAF800EBC0013F
:1017E00001EB001061688900B0FBF1F0B0FBF6F08E
:1017F00005EB0015FFF7ACF800EBC00101EB0010A2
:1018000061688900B0FBF1F7FFF7A2F800EBC001B7
:1018100001EB001061688900B0FBF1F0B0FBF6F05D
:101820006FF01801484307EB800108EB0110B0FB93
:10183000F6F0216800F00F0028448860BDE8F081D0
:101840000038014090F83910122903D0322901D014
:10185000022070478168B1F5805F016A0BD04A1C95
:101860000262026809785160C18C491E0904090CA2
:10187000C1840ED017E009880268C1F308015160E5
:1018800001690029016A02D0491C0162ECE7891C48
:10189000FBE70168CA6822F08002CA600068C1687C
:1018A00041F04001C160002070470000154830B48D
:1018B00000680068C04380061BD413480068134AC0
:1018C000C1B25068030414D444044FF0000304D59B
:1018D0000A290DD140F4004011E00D290DD0094D29
:1018E000C0F30D04C83D401C29555060C72800D9DD
:1018F000536030BC0348FFF77DBB40F4804050602C
:10190000F7E70000F0000020043801400C00002040
:10191000FEE7704700224FF4C85304E00021491C41
:101920009942FCD3521C8242F8D3704704490A689A
:101930005206FCD5024AC1B2121D11607047000068
:1019400000380140FEF7DCFE4FF4E130FFF752FEB5
:10195000FFF7CAFDFFF728FDFFF74EFD0446012003
:10196000FFF7B6FD214606A0FEF756FC0A20FFF75A
:10197000D1FF0020FFF7ACFD6420FFF7CBFFEBE7C2
:101980007065732D3E6C636425640D0A00000000D1
:1019900010B591EA030F48BF83F0004300F19A822B
:1019A000841A71EB030C05D2121943EB0C03001BD4
:1019B00061EB0C01DFF824E14FEA1154A4EB135C56
:1019C0001EEA430F18BF9EEA445F73D023EA0E035A
:1019D000DCF1200E21EA045143F4801332D322FAC1
:1019E0000CFE10EB0E0023FA0CFE41EB0E01CCF1C5
:1019F000200E03FA0EFE10EB0E0051F10001B1F5BE
:101A0000801FCCF1200E32D201EB045112FA0EF2FB
:101A1000BDE8104058BF7047401C38BF5FEA420223
:101A200018BF7047002814BF20F0010041F10001E9
:101A30004FEA410313F5001F38BF7047A1F1C041C1
:101A400000F03ABA012A43EB0302ACF1200CDCF1BE
:101A50001F0E32BF4FF0000E23FA0CF310EB030001
:101A600041EB0451B4EB115FD0D0A1EB045101F56F
:101A7000801149085FEA300001EB04510ED350F1A8
:101A8000000038BF12FA0EFE08D1BDE81040C9E7C9
:101A9000401C38BF5FEA4202CAD1C3E7BDE810402C
:101AA0004FEA410313F5001F38BF7047A1F1C04151
:101AB00000F002BA9EEA445F08D011EA5E0FBDE86A
:101AC000104004BF01F0004100207047BDE8104005
:101AD00070B500F0A3F900BF64FBBE3E0000E0FF5C
:101AE0002DE9C04130B4DFF8A0C23CEA111418BFA0
:101AF0003CEA131400F0EC8081EA03051CEA11149F
:101B000044EAD57418BF1CEA131500F0C780A4EB93
:101B100005044FF0004545EAC12145EAC32341EAE7
:101B2000505143EA525304F17F74994204F5003452
:101B30004FEAC0204FEAC22208BF904200F09C80CA
:101B40004FEA13650FF24016765D4FEA134506FB28
:101B500005F7C7F1807706FB07F74FEAD737A7FBF2
:101B600003687642C8F58038A7FB06CE38BFA8F1D7
:101B7000010807FB08E64FF0000EA6FB028CE6FB0F
:101B800003CEDCF1000CCEF1004E38BFAEF1010EF9
:101B9000A6FB0C584FF000074FF00005E6FB0E8740
:101BA000A1FB08C6A0FB07CE16EB0E0645F100050B
:101BB000E1FB076515F1E04E7EBFA4F580345FEAD6
:101BC00046066D4116F1800745F100054FEA1727DB
:101BD0004FEA066647EA0567A6F1DE46B6F1805F82
:101BE0004FEA15251FD9384624F0010C05EBC471C6
:101BF000BCF1FE6F01EB0C1102D8F0BCBDE8008116
:101C000024425CBF01F5801E9EEAC47F02D4F0BC72
:101C1000BDE80081244238D4F0BCA1F1C041BDE848
:101C2000004100F049B94FEAD22242EA43524FEA5A
:101C3000D323A7FB02864FEAD02040EA415007FB9E
:101C400003661EEA0E0F4FEAD12105FB026658BF5C
:101C5000A6EB0056B6EB00564FEA520E4EEAC37E94
:101C600018EB0E0E56EB530EBDD518EB02085E4175
:101C70007F1C55F10005B6E74FF480154FF00007C3
:101C80004FF000064FF00008ADE7F0BC4FF0000049
:101C900001F1C04101F00041BDE8008111EA0C1FD3
:101CA0000CEA131500D00CE013EA0C1F00F025809D
:101CB0004FF00000F0BC81EA030101F00041BDE8F3
:101CC0000081F0BCBDE8004181EA030100F0F4B8F6
:101CD000F0BCBDE8004170B500F0A0F8097EFC3E04
:101CE00000F007B881EA03014FF0000001F0004165
:101CF000704781EA030100F0DFB8F0BCBDE80041A5
:101D00004FF0000021497047FFFDFBF9F7F5F4F2B1
:101D1000F0EEEDEBE9E8E6E4E3E1E0DEDDDBDAD886
:101D2000D7D5D4D3D1D0CFCDCCCBCAC8C7C6C5C4E4
:101D3000C2C1C0BFBEBDBCBBBAB9B8B7B6B5B4B3FB
:101D4000B2B1B0AFAEADACABAAA9A8A8A7A6A5A4E6
:101D5000A3A3A2A1A09F9F9E9D9C9C9B9A999998AA
:101D60009797969595949393929191908F8F8E8E4D
:101D70008D8C8C8B8B8A89898888878786858584DA
:101D800084838382828181800000FF070000F87FC6
:101D90004FEA41034FEA5353A3F58063D3F11E0387
:101DA000C8BFD3F1210C0CDD4FF0004242EAC12242
:101DB00042EA505232FA03FC8CEAE17CACEBE1706F
:101DC0007047102BC4BF0020704703F5787CBCF12E
:101DD000FF3F04D06FF0004282EA2100704770B5E7
:101DE00000F01CF84992248000207047F2E710F0C0
:101DF000004248BF4042B0FA80F310FA03F10AD023
:101E0000C3F11D0303F580634FEA415002EB035217
:101E100002EBD12170474FF0000070470EF1020E27
:101E20002EF0030E5EF8046B364205D4012A43EB14
:101E3000030515F5001F12D8012841EB010C1CF514
:101E4000001F0CD80ED14FEAD17C15F5001F0CEB0A
:101E50004C0C0CF1020C08BF4CEBD37C04E04FF0AF
:101E6000080C01E04FEAD37C0CEB4C0526FA05F692
:101E700006F00706B6F1040C06D20EEB860CBDE8A0
:101E800070404CF0010C6047DFE80CF0090B0202D7
:101E90004FF000414FF00000A1F5002170BD194640
:101EA0001046012851EB010418BFD4F5001484BF7B
:101EB000002001F0004170BD0808A0F500114FEAB4
:101EC0003101704710B591EA030F48BF83F000431A
:101ED0003FF566AD841A71EB030C07D212198CF032
:101EE000004C43EB0C03001B61EB0C01DFF8A4E199
:101EF0004FEA1154A4EB135C1EEA430F18BF9EEA8D
:101F0000445F00F0B08023EA6E03524221EA04519C
:101F1000C3EB6E0338BF5B1EDCF1200E25D322FA23
:101F20000CFE10EB0E0043FA0CFE41EB0E01CCF15F
:101F3000200E03FA0EFE10EB0E0051F10001CCF161
:101F4000200E29D412FA0EF201EB0451BDE8104024
:101F500058BF7047401C1CBFB2F1004F70470028AB
:101F60000CBF491C20F00100704712EB020E43EB3E
:101F7000030218BF4FF0010E4EEA4202ACF1200CF2
:101F8000DCF11E0E54D943FA0CFE10EB0E0051F199
:101F9000FF31CCF11E0ED5D50EF1010E12FA0EFE58
:101FA000404141EB010101EB445C5FEA5C5C10D90C
:101FB00010EBDE7001EB045138BFBEF1004FBDE8FD
:101FC000104018BF704700280CBF491C20F00100CA
:101FD000704730D24FEAD42C11F5001124F400647C
:101FE0001BD0B1FA81F20B3AA41AA41ED2F120033D
:101FF000914030FA03F31943904001EBCC71002C6F
:1020000001EB0451BDE81040A8BF704701F1C04189
:102010004FF0000001F000417047B0FA80F310FA71
:1020200003F100D110BDE41A173C4805C90AE4E7E2
:1020300001EB045110BD491001EB0451BDE8104003
:102040004FEA300002E04FF0000170474A0008BF3D
:102050000042F8D0B2F5001F28BF704701F00041E0
:102060004FF0000070479EEA445F07D011EA5E0F10
:10207000BDE8104004BF002100207047BDE81040BB
:1020800070B5FFF7CBFE00BF40DFF63E83F00041A6
:10209000104670470000E0FF90EA010F48BF81F052
:1020A000004100F1E280421A3CBF801A89184FEAD1
:1020B000D0524FF07F4C1CEA410FA2EBD15318BF16
:1020C0009CEA026F00F03B804FF0004C4CEA00208D
:1020D0004CEA012121FA03FC10EB0C0C1ED202F198
:1020E000FF325FEA1C2040EBC25038BF70471CF043
:1020F0007F0F4FEA400C18BFBCF17F4F38BF7047CD
:10210000C3F12003994008BF20F00100BCF17F4FCC
:1021100038BF7047A0F1C04000F09AB84FEA3C00C9
:10212000000A40EBC25028BF1CF0FF0F4FEA400CE2
:10213000E6D018BFBCF17F4F38BF7047EAE79CEA92
:10214000026F05D010EA5C0F08BF00F00040704736
:1021500010B500F037F800BF64FBBE3E41000B0E27
:10216000D3F19E0208D950F400034FEA032323FA67
:1021700002F048BF4042704710B500F023F800BF9E
:1021800049922480002070476FF0004282EA2000CC
:102190007047000010F0004148BF4042B0FA80F3A1
:1021A00010FA03F2C3F19D030BD051EAC35101EBC6
:1021B0001220530638BF704700F1010008BF20F01D
:1021C000010070470EF1020E2EF0030E5EF8044B74
:1021D000244204D44FEA4102B2F17F4F11D84FEAB2
:1021E0004003B3F17F4F0CD80ED14FEAD07CB2F14F
:1021F0007F4F0CEB4C0C0CF1020C08BF4CEBD17C6C
:1022000004E04FF0080C01E04FEAD17C0CEB4C03EA
:1022100024FA03F404F00704B4F1040C06D20EEB24
:10222000840CBDE810404CF0010C6047DFE80CF076
:10223000070802024FF00040A0F5800010BD0846DC
:10224000420018BFD2F1807288BF00F0004010BD7C
:10225000FF2141EAD050C0057047000090EA010F0D
:1022600048BF81F000413FF51EAF421A04D882F00A
:102270000042A0EB020011444FEAD0524FF07F4CD5
:102280001CEA410FA2EBD15318BF9CEA026F4AD05F
:102290004FF0004C4CEA00204CEA012121FA03FCEB
:1022A000B0EB0C0C0FD412F0FE0F36D05FEA4C00EE
:1022B0001DD5001240EBC25038BF70471CF03F0FD5
:1022C00018BF70470BE0A2F101025FEA1C2040EB4F
:1022D000C25038BF70471CF07F0F18BF7047C3F162
:1022E0002003994014BF401E20F001007047800871
:1022F0004FEA122308BF7047B0FA80FCA2EB0C0231
:10230000CCF1280C60FA0CF093EA122F04BF00EB1A
:10231000C25070474FEAC3707047130A5FEADC107F
:1023200008BF7047F6E79CEA026F04D010EA5C0F22
:1023300008BF0020704710B5FFF744FF40DFF63EAE
:1023400081F0004070470000000000000000010222
:10235000030406070809000000000102030400004E
:102360008023000800000020280000006C01000805
:10237000A823000828000020680700008801000842
:102380000000F4010090D0030000000000000000F5
:10239000000000000000000000000000000000003D
:0823A000000000000000000035
:0400000508000131BD
:00000001FF
